{
  "address": "0x45A8079F3bA42ad77D925cC99de6Cd2dd13f4362",
  "abi": [
    {
      "inputs": [
        {
          "internalType": "string",
          "name": "name_",
          "type": "string"
        },
        {
          "internalType": "string",
          "name": "symbol_",
          "type": "string"
        }
      ],
      "stateMutability": "nonpayable",
      "type": "constructor"
    },
    {
      "anonymous": false,
      "inputs": [
        {
          "indexed": true,
          "internalType": "address",
          "name": "owner",
          "type": "address"
        },
        {
          "indexed": true,
          "internalType": "address",
          "name": "approved",
          "type": "address"
        },
        {
          "indexed": true,
          "internalType": "uint256",
          "name": "tokenId",
          "type": "uint256"
        }
      ],
      "name": "Approval",
      "type": "event"
    },
    {
      "anonymous": false,
      "inputs": [
        {
          "indexed": true,
          "internalType": "address",
          "name": "owner",
          "type": "address"
        },
        {
          "indexed": true,
          "internalType": "address",
          "name": "operator",
          "type": "address"
        },
        {
          "indexed": false,
          "internalType": "bool",
          "name": "approved",
          "type": "bool"
        }
      ],
      "name": "ApprovalForAll",
      "type": "event"
    },
    {
      "anonymous": false,
      "inputs": [
        {
          "indexed": true,
          "internalType": "address",
          "name": "previousOwner",
          "type": "address"
        },
        {
          "indexed": true,
          "internalType": "address",
          "name": "newOwner",
          "type": "address"
        }
      ],
      "name": "OwnershipTransferred",
      "type": "event"
    },
    {
      "anonymous": false,
      "inputs": [
        {
          "indexed": true,
          "internalType": "address",
          "name": "from",
          "type": "address"
        },
        {
          "indexed": true,
          "internalType": "address",
          "name": "to",
          "type": "address"
        },
        {
          "indexed": true,
          "internalType": "uint256",
          "name": "tokenId",
          "type": "uint256"
        }
      ],
      "name": "Transfer",
      "type": "event"
    },
    {
      "inputs": [
        {
          "internalType": "uint256",
          "name": "",
          "type": "uint256"
        }
      ],
      "name": "_tokenURIs",
      "outputs": [
        {
          "internalType": "string",
          "name": "",
          "type": "string"
        }
      ],
      "stateMutability": "view",
      "type": "function"
    },
    {
      "inputs": [
        {
          "internalType": "address",
          "name": "to",
          "type": "address"
        },
        {
          "internalType": "uint256",
          "name": "tokenId",
          "type": "uint256"
        }
      ],
      "name": "approve",
      "outputs": [],
      "stateMutability": "nonpayable",
      "type": "function"
    },
    {
      "inputs": [
        {
          "internalType": "address",
          "name": "owner",
          "type": "address"
        }
      ],
      "name": "balanceOf",
      "outputs": [
        {
          "internalType": "uint256",
          "name": "",
          "type": "uint256"
        }
      ],
      "stateMutability": "view",
      "type": "function"
    },
    {
      "inputs": [
        {
          "internalType": "uint256",
          "name": "_tokenId",
          "type": "uint256"
        }
      ],
      "name": "burnByManager",
      "outputs": [],
      "stateMutability": "nonpayable",
      "type": "function"
    },
    {
      "inputs": [
        {
          "internalType": "uint256",
          "name": "tokenId",
          "type": "uint256"
        }
      ],
      "name": "getApproved",
      "outputs": [
        {
          "internalType": "address",
          "name": "",
          "type": "address"
        }
      ],
      "stateMutability": "view",
      "type": "function"
    },
    {
      "inputs": [
        {
          "internalType": "address",
          "name": "owner",
          "type": "address"
        },
        {
          "internalType": "address",
          "name": "operator",
          "type": "address"
        }
      ],
      "name": "isApprovedForAll",
      "outputs": [
        {
          "internalType": "bool",
          "name": "",
          "type": "bool"
        }
      ],
      "stateMutability": "view",
      "type": "function"
    },
    {
      "inputs": [
        {
          "internalType": "address",
          "name": "_to",
          "type": "address"
        },
        {
          "internalType": "string",
          "name": "_tokenURI",
          "type": "string"
        },
        {
          "internalType": "uint256",
          "name": "_tokenId",
          "type": "uint256"
        }
      ],
      "name": "mintWithMetadata",
      "outputs": [],
      "stateMutability": "nonpayable",
      "type": "function"
    },
    {
      "inputs": [
        {
          "internalType": "address",
          "name": "_to",
          "type": "address"
        },
        {
          "internalType": "string[]",
          "name": "_tokenURIs",
          "type": "string[]"
        },
        {
          "internalType": "uint256[]",
          "name": "_tokenIds",
          "type": "uint256[]"
        }
      ],
      "name": "mintWithMetadataBatch",
      "outputs": [],
      "stateMutability": "nonpayable",
      "type": "function"
    },
    {
      "inputs": [],
      "name": "name",
      "outputs": [
        {
          "internalType": "string",
          "name": "",
          "type": "string"
        }
      ],
      "stateMutability": "view",
      "type": "function"
    },
    {
      "inputs": [],
      "name": "owner",
      "outputs": [
        {
          "internalType": "address",
          "name": "",
          "type": "address"
        }
      ],
      "stateMutability": "view",
      "type": "function"
    },
    {
      "inputs": [
        {
          "internalType": "uint256",
          "name": "tokenId",
          "type": "uint256"
        }
      ],
      "name": "ownerOf",
      "outputs": [
        {
          "internalType": "address",
          "name": "",
          "type": "address"
        }
      ],
      "stateMutability": "view",
      "type": "function"
    },
    {
      "inputs": [],
      "name": "renounceOwnership",
      "outputs": [],
      "stateMutability": "nonpayable",
      "type": "function"
    },
    {
      "inputs": [
        {
          "internalType": "address",
          "name": "from",
          "type": "address"
        },
        {
          "internalType": "address",
          "name": "to",
          "type": "address"
        },
        {
          "internalType": "uint256",
          "name": "tokenId",
          "type": "uint256"
        }
      ],
      "name": "safeTransferFrom",
      "outputs": [],
      "stateMutability": "nonpayable",
      "type": "function"
    },
    {
      "inputs": [
        {
          "internalType": "address",
          "name": "from",
          "type": "address"
        },
        {
          "internalType": "address",
          "name": "to",
          "type": "address"
        },
        {
          "internalType": "uint256",
          "name": "tokenId",
          "type": "uint256"
        },
        {
          "internalType": "bytes",
          "name": "_data",
          "type": "bytes"
        }
      ],
      "name": "safeTransferFrom",
      "outputs": [],
      "stateMutability": "nonpayable",
      "type": "function"
    },
    {
      "inputs": [
        {
          "internalType": "address",
          "name": "operator",
          "type": "address"
        },
        {
          "internalType": "bool",
          "name": "approved",
          "type": "bool"
        }
      ],
      "name": "setApprovalForAll",
      "outputs": [],
      "stateMutability": "nonpayable",
      "type": "function"
    },
    {
      "inputs": [
        {
          "internalType": "uint256",
          "name": "_tokenId",
          "type": "uint256"
        },
        {
          "internalType": "string",
          "name": "_tokenURI",
          "type": "string"
        }
      ],
      "name": "setTokenURI",
      "outputs": [],
      "stateMutability": "nonpayable",
      "type": "function"
    },
    {
      "inputs": [
        {
          "internalType": "string[]",
          "name": "_tokenURIs",
          "type": "string[]"
        },
        {
          "internalType": "uint256[]",
          "name": "_tokenIds",
          "type": "uint256[]"
        }
      ],
      "name": "setTokenURIBatch",
      "outputs": [],
      "stateMutability": "nonpayable",
      "type": "function"
    },
    {
      "inputs": [
        {
          "internalType": "bytes4",
          "name": "interfaceId",
          "type": "bytes4"
        }
      ],
      "name": "supportsInterface",
      "outputs": [
        {
          "internalType": "bool",
          "name": "",
          "type": "bool"
        }
      ],
      "stateMutability": "view",
      "type": "function"
    },
    {
      "inputs": [],
      "name": "symbol",
      "outputs": [
        {
          "internalType": "string",
          "name": "",
          "type": "string"
        }
      ],
      "stateMutability": "view",
      "type": "function"
    },
    {
      "inputs": [
        {
          "internalType": "uint256",
          "name": "tokenId",
          "type": "uint256"
        }
      ],
      "name": "tokenURI",
      "outputs": [
        {
          "internalType": "string",
          "name": "",
          "type": "string"
        }
      ],
      "stateMutability": "view",
      "type": "function"
    },
    {
      "inputs": [
        {
          "internalType": "address",
          "name": "from",
          "type": "address"
        },
        {
          "internalType": "address",
          "name": "to",
          "type": "address"
        },
        {
          "internalType": "uint256",
          "name": "tokenId",
          "type": "uint256"
        }
      ],
      "name": "transferFrom",
      "outputs": [],
      "stateMutability": "nonpayable",
      "type": "function"
    },
    {
      "inputs": [
        {
          "internalType": "address",
          "name": "newOwner",
          "type": "address"
        }
      ],
      "name": "transferOwnership",
      "outputs": [],
      "stateMutability": "nonpayable",
      "type": "function"
    }
  ],
  "transactionHash": "0xe342addbe83f9e8dab2fbf11abfc450560e850b74e218049af540be9d3d077d3",
  "args": [
    "AfinNFT",
    "AFIN"
  ],
  "solcInputHash": "02e9c861c5220fcd77f3f33b1d94e365",
  "bytecode": "0x60806040523480156200001157600080fd5b5060405162001fbe38038062001fbe833981016040819052620000349162000220565b6200003f3362000073565b815162000054906002906020850190620000c3565b5080516200006a906003906020840190620000c3565b505050620002dd565b600080546001600160a01b038381166001600160a01b0319831681178455604051919092169283917f8be0079c531659141344cd1fd0a4f28419497f9722a3daafe3b4186f6b6457e09190a35050565b828054620000d1906200028a565b90600052602060002090601f016020900481019282620000f5576000855562000140565b82601f106200011057805160ff191683800117855562000140565b8280016001018555821562000140579182015b828111156200014057825182559160200191906001019062000123565b506200014e92915062000152565b5090565b5b808211156200014e576000815560010162000153565b600082601f8301126200017b57600080fd5b81516001600160401b0380821115620001985762000198620002c7565b604051601f8301601f19908116603f01168101908282118183101715620001c357620001c3620002c7565b81604052838152602092508683858801011115620001e057600080fd5b600091505b83821015620002045785820183015181830184015290820190620001e5565b83821115620002165760008385830101525b9695505050505050565b600080604083850312156200023457600080fd5b82516001600160401b03808211156200024c57600080fd5b6200025a8683870162000169565b935060208501519150808211156200027157600080fd5b50620002808582860162000169565b9150509250929050565b600181811c908216806200029f57607f821691505b60208210811415620002c157634e487b7160e01b600052602260045260246000fd5b50919050565b634e487b7160e01b600052604160045260246000fd5b611cd180620002ed6000396000f3fe608060405234801561001057600080fd5b50600436106101425760003560e01c80638da5cb5b116100b8578063c87b56dd1161007c578063c87b56dd1461029e578063cdb72c7b146102b1578063d6470ec4146102c4578063e985e9c5146102d7578063f1ef2e6414610313578063f2fde38b1461032657600080fd5b80638da5cb5b1461024c57806395d89b411461025d5780639b9168b814610265578063a22cb46514610278578063b88d4fde1461028b57600080fd5b8063162094c41161010a578063162094c4146101d757806323b872dd146101ea57806342842e0e146101fd5780636352211e1461021057806370a0823114610223578063715018a61461024457600080fd5b806301ffc9a71461014757806306fdde031461016f578063081812fc14610184578063095ea7b3146101af5780630bb78ec1146101c4575b600080fd5b61015a610155366004611925565b610339565b60405190151581526020015b60405180910390f35b61017761038b565b6040516101669190611a7e565b61019761019236600461195f565b61041d565b6040516001600160a01b039091168152602001610166565b6101c26101bd366004611897565b6104b7565b005b6101776101d236600461195f565b6105cd565b6101c26101e5366004611978565b610667565b6101c26101f83660046116d8565b6106d1565b6101c261020b3660046116d8565b610702565b61019761021e36600461195f565b61071d565b61023661023136600461168a565b610794565b604051908152602001610166565b6101c261081b565b6000546001600160a01b0316610197565b610177610851565b6101c2610273366004611790565b610860565b6101c2610286366004611804565b61093c565b6101c2610299366004611714565b61094b565b6101776102ac36600461195f565b61097d565b6101c26102bf36600461195f565b610a9a565b6101c26102d23660046118c1565b610ad0565b61015a6102e53660046116a5565b6001600160a01b03918216600090815260076020908152604080832093909416825291909152205460ff1690565b6101c2610321366004611840565b610ba5565b6101c261033436600461168a565b610bda565b60006001600160e01b031982166380ac58cd60e01b148061036a57506001600160e01b03198216635b5e139f60e01b145b8061038557506301ffc9a760e01b6001600160e01b03198316145b92915050565b60606002805461039a90611bed565b80601f01602080910402602001604051908101604052809291908181526020018280546103c690611bed565b80156104135780601f106103e857610100808354040283529160200191610413565b820191906000526020600020905b8154815290600101906020018083116103f657829003601f168201915b5050505050905090565b6000818152600460205260408120546001600160a01b031661049b5760405162461bcd60e51b815260206004820152602c60248201527f4552433732313a20617070726f76656420717565727920666f72206e6f6e657860448201526b34b9ba32b73a103a37b5b2b760a11b60648201526084015b60405180910390fd5b506000908152600660205260409020546001600160a01b031690565b60006104c28261071d565b9050806001600160a01b0316836001600160a01b031614156105305760405162461bcd60e51b815260206004820152602160248201527f4552433732313a20617070726f76616c20746f2063757272656e74206f776e656044820152603960f91b6064820152608401610492565b336001600160a01b038216148061054c575061054c81336102e5565b6105be5760405162461bcd60e51b815260206004820152603860248201527f4552433732313a20617070726f76652063616c6c6572206973206e6f74206f7760448201527f6e6572206e6f7220617070726f76656420666f7220616c6c00000000000000006064820152608401610492565b6105c88383610c72565b505050565b600160205260009081526040902080546105e690611bed565b80601f016020809104026020016040519081016040528092919081815260200182805461061290611bed565b801561065f5780601f106106345761010080835404028352916020019161065f565b820191906000526020600020905b81548152906001019060200180831161064257829003601f168201915b505050505081565b6000546001600160a01b031633146106915760405162461bcd60e51b815260040161049290611ae3565b6105c88383838080601f016020809104026020016040519081016040528093929190818152602001838380828437600092019190915250610ce092505050565b6106db3382610d6f565b6106f75760405162461bcd60e51b815260040161049290611b18565b6105c8838383610e66565b6105c88383836040518060200160405280600081525061094b565b6000818152600460205260408120546001600160a01b0316806103855760405162461bcd60e51b815260206004820152602960248201527f4552433732313a206f776e657220717565727920666f72206e6f6e657869737460448201526832b73a103a37b5b2b760b91b6064820152608401610492565b60006001600160a01b0382166107ff5760405162461bcd60e51b815260206004820152602a60248201527f4552433732313a2062616c616e636520717565727920666f7220746865207a65604482015269726f206164647265737360b01b6064820152608401610492565b506001600160a01b031660009081526005602052604090205490565b6000546001600160a01b031633146108455760405162461bcd60e51b815260040161049290611ae3565b61084f6000611002565b565b60606003805461039a90611bed565b6000546001600160a01b0316331461088a5760405162461bcd60e51b815260040161049290611ae3565b80518251146108db5760405162461bcd60e51b815260206004820152601d60248201527f4e65656420616c6c20696e70757420696e2073616d65206c656e6774680000006044820152606401610492565b60005b815181101561093657610924848483815181106108fd576108fd611c59565b602002602001015184848151811061091757610917611c59565b6020026020010151611052565b8061092e81611c28565b9150506108de565b50505050565b610947338383611066565b5050565b6109553383610d6f565b6109715760405162461bcd60e51b815260040161049290611b18565b61093684848484611135565b6000818152600460205260409020546060906001600160a01b03166109fc5760405162461bcd60e51b815260206004820152602f60248201527f4552433732314d657461646174613a2055524920717565727920666f72206e6f60448201526e3732bc34b9ba32b73a103a37b5b2b760891b6064820152608401610492565b60008281526001602052604090208054610a1590611bed565b80601f0160208091040260200160405190810160405280929190818152602001828054610a4190611bed565b8015610a8e5780601f10610a6357610100808354040283529160200191610a8e565b820191906000526020600020905b815481529060010190602001808311610a7157829003601f168201915b50505050509050919050565b6000546001600160a01b03163314610ac45760405162461bcd60e51b815260040161049290611ae3565b610acd81611168565b50565b6000546001600160a01b03163314610afa5760405162461bcd60e51b815260040161049290611ae3565b8051825114610b4b5760405162461bcd60e51b815260206004820152601d60248201527f4e65656420616c6c20696e70757420696e2073616d65206c656e6774680000006044820152606401610492565b60005b81518110156105c857610b93828281518110610b6c57610b6c611c59565b6020026020010151848381518110610b8657610b86611c59565b6020026020010151610ce0565b80610b9d81611c28565b915050610b4e565b6000546001600160a01b03163314610bcf5760405162461bcd60e51b815260040161049290611ae3565b6105c8838383611052565b6000546001600160a01b03163314610c045760405162461bcd60e51b815260040161049290611ae3565b6001600160a01b038116610c695760405162461bcd60e51b815260206004820152602660248201527f4f776e61626c653a206e6577206f776e657220697320746865207a65726f206160448201526564647265737360d01b6064820152608401610492565b610acd81611002565b600081815260066020526040902080546001600160a01b0319166001600160a01b0384169081179091558190610ca78261071d565b6001600160a01b03167f8c5be1e5ebec7d5bd14f71427d1e84f3dd0314c0f7b2291e5b200ac8c7c3b92560405160405180910390a45050565b6000828152600460205260409020546001600160a01b0316610d505760405162461bcd60e51b8152602060048201526024808201527f4b41503732313a2055524920736574206f66206e6f6e6578697374656e74207460448201526337b5b2b760e11b6064820152608401610492565b600082815260016020908152604090912082516105c892840190611452565b6000818152600460205260408120546001600160a01b0316610de85760405162461bcd60e51b815260206004820152602c60248201527f4552433732313a206f70657261746f7220717565727920666f72206e6f6e657860448201526b34b9ba32b73a103a37b5b2b760a11b6064820152608401610492565b6000610df38361071d565b9050806001600160a01b0316846001600160a01b03161480610e2e5750836001600160a01b0316610e238461041d565b6001600160a01b0316145b80610e5e57506001600160a01b0380821660009081526007602090815260408083209388168352929052205460ff165b949350505050565b826001600160a01b0316610e798261071d565b6001600160a01b031614610edd5760405162461bcd60e51b815260206004820152602560248201527f4552433732313a207472616e736665722066726f6d20696e636f72726563742060448201526437bbb732b960d91b6064820152608401610492565b6001600160a01b038216610f3f5760405162461bcd60e51b8152602060048201526024808201527f4552433732313a207472616e7366657220746f20746865207a65726f206164646044820152637265737360e01b6064820152608401610492565b610f4a600082610c72565b6001600160a01b0383166000908152600560205260408120805460019290610f73908490611bd6565b90915550506001600160a01b0382166000908152600560205260408120805460019290610fa1908490611bbe565b909155505060008181526004602052604080822080546001600160a01b0319166001600160a01b0386811691821790925591518493918716917fddf252ad1be2c89b69c2b068fc378daa952ba7f163c4a11628f55a4df523b3ef91a4505050565b600080546001600160a01b038381166001600160a01b0319831681178455604051919092169283917f8be0079c531659141344cd1fd0a4f28419497f9722a3daafe3b4186f6b6457e09190a35050565b61105c8382611203565b6105c88183610ce0565b816001600160a01b0316836001600160a01b031614156110c85760405162461bcd60e51b815260206004820152601960248201527f4552433732313a20617070726f766520746f2063616c6c6572000000000000006044820152606401610492565b6001600160a01b03838116600081815260076020908152604080832094871680845294825291829020805460ff191686151590811790915591519182527f17307eab39ab6107e8899845ad3d59bd9653f200f220920489ca2b5937696c31910160405180910390a3505050565b611140848484610e66565b61114c84848484611345565b6109365760405162461bcd60e51b815260040161049290611a91565b60006111738261071d565b9050611180600083610c72565b6001600160a01b03811660009081526005602052604081208054600192906111a9908490611bd6565b909155505060008281526004602052604080822080546001600160a01b0319169055518391906001600160a01b038416907fddf252ad1be2c89b69c2b068fc378daa952ba7f163c4a11628f55a4df523b3ef908390a45050565b6001600160a01b0382166112595760405162461bcd60e51b815260206004820181905260248201527f4552433732313a206d696e7420746f20746865207a65726f20616464726573736044820152606401610492565b6000818152600460205260409020546001600160a01b0316156112be5760405162461bcd60e51b815260206004820152601c60248201527f4552433732313a20746f6b656e20616c7265616479206d696e746564000000006044820152606401610492565b6001600160a01b03821660009081526005602052604081208054600192906112e7908490611bbe565b909155505060008181526004602052604080822080546001600160a01b0319166001600160a01b03861690811790915590518392907fddf252ad1be2c89b69c2b068fc378daa952ba7f163c4a11628f55a4df523b3ef908290a45050565b60006001600160a01b0384163b1561144757604051630a85bd0160e11b81526001600160a01b0385169063150b7a0290611389903390899088908890600401611a41565b602060405180830381600087803b1580156113a357600080fd5b505af19250505080156113d3575060408051601f3d908101601f191682019092526113d091810190611942565b60015b61142d573d808015611401576040519150601f19603f3d011682016040523d82523d6000602084013e611406565b606091505b5080516114255760405162461bcd60e51b815260040161049290611a91565b805181602001fd5b6001600160e01b031916630a85bd0160e11b149050610e5e565b506001949350505050565b82805461145e90611bed565b90600052602060002090601f01602090048101928261148057600085556114c6565b82601f1061149957805160ff19168380011785556114c6565b828001600101855582156114c6579182015b828111156114c65782518255916020019190600101906114ab565b506114d29291506114d6565b5090565b5b808211156114d257600081556001016114d7565b600067ffffffffffffffff83111561150557611505611c6f565b611518601f8401601f1916602001611b69565b905082815283838301111561152c57600080fd5b828260208301376000602084830101529392505050565b80356001600160a01b038116811461155a57600080fd5b919050565b600082601f83011261157057600080fd5b8135602061158561158083611b9a565b611b69565b80838252828201915082860187848660051b89010111156115a557600080fd5b6000805b868110156115e857823567ffffffffffffffff8111156115c7578283fd5b6115d58b88838d0101611663565b86525093850193918501916001016115a9565b509198975050505050505050565b600082601f83011261160757600080fd5b8135602061161761158083611b9a565b80838252828201915082860187848660051b890101111561163757600080fd5b60005b858110156116565781358452928401929084019060010161163a565b5090979650505050505050565b600082601f83011261167457600080fd5b611683838335602085016114eb565b9392505050565b60006020828403121561169c57600080fd5b61168382611543565b600080604083850312156116b857600080fd5b6116c183611543565b91506116cf60208401611543565b90509250929050565b6000806000606084860312156116ed57600080fd5b6116f684611543565b925061170460208501611543565b9150604084013590509250925092565b6000806000806080858703121561172a57600080fd5b61173385611543565b935061174160208601611543565b925060408501359150606085013567ffffffffffffffff81111561176457600080fd5b8501601f8101871361177557600080fd5b611784878235602084016114eb565b91505092959194509250565b6000806000606084860312156117a557600080fd5b6117ae84611543565b9250602084013567ffffffffffffffff808211156117cb57600080fd5b6117d78783880161155f565b935060408601359150808211156117ed57600080fd5b506117fa868287016115f6565b9150509250925092565b6000806040838503121561181757600080fd5b61182083611543565b91506020830135801515811461183557600080fd5b809150509250929050565b60008060006060848603121561185557600080fd5b61185e84611543565b9250602084013567ffffffffffffffff81111561187a57600080fd5b61188686828701611663565b925050604084013590509250925092565b600080604083850312156118aa57600080fd5b6118b383611543565b946020939093013593505050565b600080604083850312156118d457600080fd5b823567ffffffffffffffff808211156118ec57600080fd5b6118f88683870161155f565b9350602085013591508082111561190e57600080fd5b5061191b858286016115f6565b9150509250929050565b60006020828403121561193757600080fd5b813561168381611c85565b60006020828403121561195457600080fd5b815161168381611c85565b60006020828403121561197157600080fd5b5035919050565b60008060006040848603121561198d57600080fd5b83359250602084013567ffffffffffffffff808211156119ac57600080fd5b818601915086601f8301126119c057600080fd5b8135818111156119cf57600080fd5b8760208285010111156119e157600080fd5b6020830194508093505050509250925092565b6000815180845260005b81811015611a1a576020818501810151868301820152016119fe565b81811115611a2c576000602083870101525b50601f01601f19169290920160200192915050565b6001600160a01b0385811682528416602082015260408101839052608060608201819052600090611a74908301846119f4565b9695505050505050565b60208152600061168360208301846119f4565b60208082526032908201527f4552433732313a207472616e7366657220746f206e6f6e20455243373231526560408201527131b2b4bb32b91034b6b83632b6b2b73a32b960711b606082015260800190565b6020808252818101527f4f776e61626c653a2063616c6c6572206973206e6f7420746865206f776e6572604082015260600190565b60208082526031908201527f4552433732313a207472616e736665722063616c6c6572206973206e6f74206f6040820152701ddb995c881b9bdc88185c1c1c9bdd9959607a1b606082015260800190565b604051601f8201601f1916810167ffffffffffffffff81118282101715611b9257611b92611c6f565b604052919050565b600067ffffffffffffffff821115611bb457611bb4611c6f565b5060051b60200190565b60008219821115611bd157611bd1611c43565b500190565b600082821015611be857611be8611c43565b500390565b600181811c90821680611c0157607f821691505b60208210811415611c2257634e487b7160e01b600052602260045260246000fd5b50919050565b6000600019821415611c3c57611c3c611c43565b5060010190565b634e487b7160e01b600052601160045260246000fd5b634e487b7160e01b600052603260045260246000fd5b634e487b7160e01b600052604160045260246000fd5b6001600160e01b031981168114610acd57600080fdfea26469706673582212209bcf6400427e4d4289ae74eae64ee7bbfa4cbd04c3cfbad5d7fcbb95a0bb16a864736f6c63430008060033",
  "devdoc": {
    "details": "Implementation of https://eips.ethereum.org/EIPS/eip-721[ERC721] Non-Fungible Token Standard, including the Metadata extension, but not including the Enumerable extension, which is available separately as {ERC721Enumerable}.",
    "kind": "dev",
    "methods": {
      "approve(address,uint256)": {
        "details": "See {IERC721-approve}."
      },
      "balanceOf(address)": {
        "details": "See {IERC721-balanceOf}."
      },
      "constructor": {
        "details": "Initializes the contract by setting a `name` and a `symbol` to the token collection."
      },
      "getApproved(uint256)": {
        "details": "See {IERC721-getApproved}."
      },
      "isApprovedForAll(address,address)": {
        "details": "See {IERC721-isApprovedForAll}."
      },
      "name()": {
        "details": "See {IERC721Metadata-name}."
      },
      "owner()": {
        "details": "Returns the address of the current owner."
      },
      "ownerOf(uint256)": {
        "details": "See {IERC721-ownerOf}."
      },
      "renounceOwnership()": {
        "details": "Leaves the contract without owner. It will not be possible to call `onlyOwner` functions anymore. Can only be called by the current owner. NOTE: Renouncing ownership will leave the contract without an owner, thereby removing any functionality that is only available to the owner."
      },
      "safeTransferFrom(address,address,uint256)": {
        "details": "See {IERC721-safeTransferFrom}."
      },
      "safeTransferFrom(address,address,uint256,bytes)": {
        "details": "See {IERC721-safeTransferFrom}."
      },
      "setApprovalForAll(address,bool)": {
        "details": "See {IERC721-setApprovalForAll}."
      },
      "supportsInterface(bytes4)": {
        "details": "See {IERC165-supportsInterface}."
      },
      "symbol()": {
        "details": "See {IERC721Metadata-symbol}."
      },
      "tokenURI(uint256)": {
        "details": "See {IERC721Metadata-tokenURI}."
      },
      "transferFrom(address,address,uint256)": {
        "details": "See {IERC721-transferFrom}."
      },
      "transferOwnership(address)": {
        "details": "Transfers ownership of the contract to a new account (`newOwner`). Can only be called by the current owner."
      }
    },
    "version": 1
  },
  "userdoc": {
    "kind": "user",
    "methods": {},
    "version": 1
  },
  "storageLayout": {
    "storage": [
      {
        "astId": 7,
        "contract": "contracts/token/ERC721/ERC721.sol:ERC721",
        "label": "_owner",
        "offset": 0,
        "slot": "0",
        "type": "t_address"
      },
      {
        "astId": 135,
        "contract": "contracts/token/ERC721/ERC721.sol:ERC721",
        "label": "_tokenURIs",
        "offset": 0,
        "slot": "1",
        "type": "t_mapping(t_uint256,t_string_storage)"
      },
      {
        "astId": 137,
        "contract": "contracts/token/ERC721/ERC721.sol:ERC721",
        "label": "_name",
        "offset": 0,
        "slot": "2",
        "type": "t_string_storage"
      },
      {
        "astId": 139,
        "contract": "contracts/token/ERC721/ERC721.sol:ERC721",
        "label": "_symbol",
        "offset": 0,
        "slot": "3",
        "type": "t_string_storage"
      },
      {
        "astId": 143,
        "contract": "contracts/token/ERC721/ERC721.sol:ERC721",
        "label": "_owners",
        "offset": 0,
        "slot": "4",
        "type": "t_mapping(t_uint256,t_address)"
      },
      {
        "astId": 147,
        "contract": "contracts/token/ERC721/ERC721.sol:ERC721",
        "label": "_balances",
        "offset": 0,
        "slot": "5",
        "type": "t_mapping(t_address,t_uint256)"
      },
      {
        "astId": 151,
        "contract": "contracts/token/ERC721/ERC721.sol:ERC721",
        "label": "_tokenApprovals",
        "offset": 0,
        "slot": "6",
        "type": "t_mapping(t_uint256,t_address)"
      },
      {
        "astId": 157,
        "contract": "contracts/token/ERC721/ERC721.sol:ERC721",
        "label": "_operatorApprovals",
        "offset": 0,
        "slot": "7",
        "type": "t_mapping(t_address,t_mapping(t_address,t_bool))"
      }
    ],
    "types": {
      "t_address": {
        "encoding": "inplace",
        "label": "address",
        "numberOfBytes": "20"
      },
      "t_bool": {
        "encoding": "inplace",
        "label": "bool",
        "numberOfBytes": "1"
      },
      "t_mapping(t_address,t_bool)": {
        "encoding": "mapping",
        "key": "t_address",
        "label": "mapping(address => bool)",
        "numberOfBytes": "32",
        "value": "t_bool"
      },
      "t_mapping(t_address,t_mapping(t_address,t_bool))": {
        "encoding": "mapping",
        "key": "t_address",
        "label": "mapping(address => mapping(address => bool))",
        "numberOfBytes": "32",
        "value": "t_mapping(t_address,t_bool)"
      },
      "t_mapping(t_address,t_uint256)": {
        "encoding": "mapping",
        "key": "t_address",
        "label": "mapping(address => uint256)",
        "numberOfBytes": "32",
        "value": "t_uint256"
      },
      "t_mapping(t_uint256,t_address)": {
        "encoding": "mapping",
        "key": "t_uint256",
        "label": "mapping(uint256 => address)",
        "numberOfBytes": "32",
        "value": "t_address"
      },
      "t_mapping(t_uint256,t_string_storage)": {
        "encoding": "mapping",
        "key": "t_uint256",
        "label": "mapping(uint256 => string)",
        "numberOfBytes": "32",
        "value": "t_string_storage"
      },
      "t_string_storage": {
        "encoding": "bytes",
        "label": "string",
        "numberOfBytes": "32"
      },
      "t_uint256": {
        "encoding": "inplace",
        "label": "uint256",
        "numberOfBytes": "32"
      }
    }
  }
}