{
  "address": "0x0eA6A3aC9F0ED107Ee21c603d76cb9Eaa9b75e5f",
  "abi": [
    {
      "inputs": [
        {
          "internalType": "string",
          "name": "_NFT_NAME",
          "type": "string"
        },
        {
          "internalType": "string",
          "name": "_NFT_SYMBOL",
          "type": "string"
        },
        {
          "internalType": "uint256",
          "name": "_AVAILABLE_SUPPLY",
          "type": "uint256"
        },
        {
          "internalType": "uint256",
          "name": "_MINT_PRE_START_TIME",
          "type": "uint256"
        },
        {
          "internalType": "uint256",
          "name": "_MINT_START_TIME",
          "type": "uint256"
        },
        {
          "internalType": "uint256",
          "name": "_MINT_END_TIME",
          "type": "uint256"
        },
        {
          "internalType": "address",
          "name": "_afin",
          "type": "address"
        },
        {
          "internalType": "address",
          "name": "_mvp",
          "type": "address"
        },
        {
          "internalType": "address",
          "name": "_feeAddress",
          "type": "address"
        }
      ],
      "stateMutability": "nonpayable",
      "type": "constructor"
    },
    {
      "anonymous": false,
      "inputs": [
        {
          "indexed": true,
          "internalType": "address",
          "name": "owner",
          "type": "address"
        },
        {
          "indexed": true,
          "internalType": "address",
          "name": "approved",
          "type": "address"
        },
        {
          "indexed": true,
          "internalType": "uint256",
          "name": "tokenId",
          "type": "uint256"
        }
      ],
      "name": "Approval",
      "type": "event"
    },
    {
      "anonymous": false,
      "inputs": [
        {
          "indexed": true,
          "internalType": "address",
          "name": "owner",
          "type": "address"
        },
        {
          "indexed": true,
          "internalType": "address",
          "name": "operator",
          "type": "address"
        },
        {
          "indexed": false,
          "internalType": "bool",
          "name": "approved",
          "type": "bool"
        }
      ],
      "name": "ApprovalForAll",
      "type": "event"
    },
    {
      "anonymous": false,
      "inputs": [
        {
          "indexed": true,
          "internalType": "address",
          "name": "owner",
          "type": "address"
        },
        {
          "indexed": false,
          "internalType": "uint256",
          "name": "amount",
          "type": "uint256"
        }
      ],
      "name": "Claimed",
      "type": "event"
    },
    {
      "anonymous": false,
      "inputs": [],
      "name": "Locked",
      "type": "event"
    },
    {
      "anonymous": false,
      "inputs": [
        {
          "indexed": true,
          "internalType": "address",
          "name": "user",
          "type": "address"
        },
        {
          "indexed": false,
          "internalType": "uint256",
          "name": "entries",
          "type": "uint256"
        }
      ],
      "name": "Minted",
      "type": "event"
    },
    {
      "anonymous": false,
      "inputs": [
        {
          "indexed": true,
          "internalType": "address",
          "name": "user",
          "type": "address"
        },
        {
          "indexed": false,
          "internalType": "uint256",
          "name": "entries",
          "type": "uint256"
        }
      ],
      "name": "MintedPre",
      "type": "event"
    },
    {
      "anonymous": false,
      "inputs": [
        {
          "indexed": true,
          "internalType": "address",
          "name": "previousOwner",
          "type": "address"
        },
        {
          "indexed": true,
          "internalType": "address",
          "name": "newOwner",
          "type": "address"
        }
      ],
      "name": "OwnershipTransferred",
      "type": "event"
    },
    {
      "anonymous": false,
      "inputs": [
        {
          "indexed": false,
          "internalType": "string",
          "name": "baseUri",
          "type": "string"
        }
      ],
      "name": "SetBaseURI",
      "type": "event"
    },
    {
      "anonymous": false,
      "inputs": [
        {
          "indexed": false,
          "internalType": "address",
          "name": "feeAdd",
          "type": "address"
        }
      ],
      "name": "SetFeeAddress",
      "type": "event"
    },
    {
      "anonymous": false,
      "inputs": [
        {
          "indexed": false,
          "internalType": "string",
          "name": "provenance",
          "type": "string"
        }
      ],
      "name": "SetProvenance",
      "type": "event"
    },
    {
      "anonymous": false,
      "inputs": [
        {
          "indexed": false,
          "internalType": "uint256",
          "name": "startPre",
          "type": "uint256"
        },
        {
          "indexed": false,
          "internalType": "uint256",
          "name": "start",
          "type": "uint256"
        },
        {
          "indexed": false,
          "internalType": "uint256",
          "name": "end",
          "type": "uint256"
        }
      ],
      "name": "SetTimes",
      "type": "event"
    },
    {
      "anonymous": false,
      "inputs": [],
      "name": "ToggleOpen",
      "type": "event"
    },
    {
      "anonymous": false,
      "inputs": [
        {
          "indexed": true,
          "internalType": "address",
          "name": "from",
          "type": "address"
        },
        {
          "indexed": true,
          "internalType": "address",
          "name": "to",
          "type": "address"
        },
        {
          "indexed": true,
          "internalType": "uint256",
          "name": "tokenId",
          "type": "uint256"
        }
      ],
      "name": "Transfer",
      "type": "event"
    },
    {
      "anonymous": false,
      "inputs": [
        {
          "indexed": true,
          "internalType": "address",
          "name": "user",
          "type": "address"
        },
        {
          "indexed": false,
          "internalType": "uint256",
          "name": "entries",
          "type": "uint256"
        }
      ],
      "name": "Whitelisted",
      "type": "event"
    },
    {
      "anonymous": false,
      "inputs": [
        {
          "indexed": true,
          "internalType": "address",
          "name": "user",
          "type": "address"
        },
        {
          "indexed": false,
          "internalType": "uint256",
          "name": "entries",
          "type": "uint256"
        }
      ],
      "name": "WhitelistedPre",
      "type": "event"
    },
    {
      "inputs": [],
      "name": "AVAILABLE_SUPPLY",
      "outputs": [
        {
          "internalType": "uint256",
          "name": "",
          "type": "uint256"
        }
      ],
      "stateMutability": "view",
      "type": "function"
    },
    {
      "inputs": [],
      "name": "MINT_COST",
      "outputs": [
        {
          "internalType": "uint256",
          "name": "",
          "type": "uint256"
        }
      ],
      "stateMutability": "view",
      "type": "function"
    },
    {
      "inputs": [],
      "name": "MINT_END_TIME",
      "outputs": [
        {
          "internalType": "uint256",
          "name": "",
          "type": "uint256"
        }
      ],
      "stateMutability": "view",
      "type": "function"
    },
    {
      "inputs": [],
      "name": "MINT_PRE_START_TIME",
      "outputs": [
        {
          "internalType": "uint256",
          "name": "",
          "type": "uint256"
        }
      ],
      "stateMutability": "view",
      "type": "function"
    },
    {
      "inputs": [],
      "name": "MINT_START_TIME",
      "outputs": [
        {
          "internalType": "uint256",
          "name": "",
          "type": "uint256"
        }
      ],
      "stateMutability": "view",
      "type": "function"
    },
    {
      "inputs": [],
      "name": "afin",
      "outputs": [
        {
          "internalType": "address",
          "name": "",
          "type": "address"
        }
      ],
      "stateMutability": "view",
      "type": "function"
    },
    {
      "inputs": [],
      "name": "afinPrice",
      "outputs": [
        {
          "internalType": "uint256",
          "name": "",
          "type": "uint256"
        }
      ],
      "stateMutability": "view",
      "type": "function"
    },
    {
      "inputs": [
        {
          "internalType": "address",
          "name": "to",
          "type": "address"
        },
        {
          "internalType": "uint256",
          "name": "tokenId",
          "type": "uint256"
        }
      ],
      "name": "approve",
      "outputs": [],
      "stateMutability": "nonpayable",
      "type": "function"
    },
    {
      "inputs": [
        {
          "internalType": "address",
          "name": "owner",
          "type": "address"
        }
      ],
      "name": "balanceOf",
      "outputs": [
        {
          "internalType": "uint256",
          "name": "",
          "type": "uint256"
        }
      ],
      "stateMutability": "view",
      "type": "function"
    },
    {
      "inputs": [],
      "name": "claimProceeds",
      "outputs": [],
      "stateMutability": "nonpayable",
      "type": "function"
    },
    {
      "inputs": [
        {
          "internalType": "address",
          "name": "token",
          "type": "address"
        }
      ],
      "name": "claimProceedsToken",
      "outputs": [],
      "stateMutability": "nonpayable",
      "type": "function"
    },
    {
      "inputs": [
        {
          "internalType": "address",
          "name": "",
          "type": "address"
        }
      ],
      "name": "entriesPerAddress",
      "outputs": [
        {
          "internalType": "uint256",
          "name": "",
          "type": "uint256"
        }
      ],
      "stateMutability": "view",
      "type": "function"
    },
    {
      "inputs": [
        {
          "internalType": "address",
          "name": "",
          "type": "address"
        }
      ],
      "name": "entriesPerAddressPre",
      "outputs": [
        {
          "internalType": "uint256",
          "name": "",
          "type": "uint256"
        }
      ],
      "stateMutability": "view",
      "type": "function"
    },
    {
      "inputs": [],
      "name": "entropy",
      "outputs": [
        {
          "internalType": "uint256",
          "name": "",
          "type": "uint256"
        }
      ],
      "stateMutability": "view",
      "type": "function"
    },
    {
      "inputs": [],
      "name": "feeAddress",
      "outputs": [
        {
          "internalType": "address",
          "name": "",
          "type": "address"
        }
      ],
      "stateMutability": "view",
      "type": "function"
    },
    {
      "inputs": [
        {
          "internalType": "uint256",
          "name": "tokenId",
          "type": "uint256"
        }
      ],
      "name": "getApproved",
      "outputs": [
        {
          "internalType": "address",
          "name": "",
          "type": "address"
        }
      ],
      "stateMutability": "view",
      "type": "function"
    },
    {
      "inputs": [
        {
          "internalType": "address",
          "name": "owner",
          "type": "address"
        },
        {
          "internalType": "address",
          "name": "operator",
          "type": "address"
        }
      ],
      "name": "isApprovedForAll",
      "outputs": [
        {
          "internalType": "bool",
          "name": "",
          "type": "bool"
        }
      ],
      "stateMutability": "view",
      "type": "function"
    },
    {
      "inputs": [],
      "name": "lockMetadata",
      "outputs": [],
      "stateMutability": "nonpayable",
      "type": "function"
    },
    {
      "inputs": [],
      "name": "locked",
      "outputs": [
        {
          "internalType": "bool",
          "name": "",
          "type": "bool"
        }
      ],
      "stateMutability": "view",
      "type": "function"
    },
    {
      "inputs": [
        {
          "internalType": "uint256",
          "name": "count",
          "type": "uint256"
        }
      ],
      "name": "mint",
      "outputs": [],
      "stateMutability": "payable",
      "type": "function"
    },
    {
      "inputs": [
        {
          "internalType": "uint256",
          "name": "count",
          "type": "uint256"
        }
      ],
      "name": "mintCustom",
      "outputs": [],
      "stateMutability": "payable",
      "type": "function"
    },
    {
      "inputs": [],
      "name": "mintOpen",
      "outputs": [
        {
          "internalType": "bool",
          "name": "",
          "type": "bool"
        }
      ],
      "stateMutability": "view",
      "type": "function"
    },
    {
      "inputs": [
        {
          "internalType": "uint256",
          "name": "count",
          "type": "uint256"
        }
      ],
      "name": "mintPre",
      "outputs": [],
      "stateMutability": "payable",
      "type": "function"
    },
    {
      "inputs": [
        {
          "internalType": "uint256",
          "name": "count",
          "type": "uint256"
        },
        {
          "internalType": "address",
          "name": "token",
          "type": "address"
        }
      ],
      "name": "mintPreWithToken",
      "outputs": [],
      "stateMutability": "nonpayable",
      "type": "function"
    },
    {
      "inputs": [
        {
          "internalType": "uint256",
          "name": "count",
          "type": "uint256"
        },
        {
          "internalType": "address",
          "name": "token",
          "type": "address"
        }
      ],
      "name": "mintWithToken",
      "outputs": [],
      "stateMutability": "nonpayable",
      "type": "function"
    },
    {
      "inputs": [],
      "name": "mvp",
      "outputs": [
        {
          "internalType": "address",
          "name": "",
          "type": "address"
        }
      ],
      "stateMutability": "view",
      "type": "function"
    },
    {
      "inputs": [],
      "name": "mvpPrice",
      "outputs": [
        {
          "internalType": "uint256",
          "name": "",
          "type": "uint256"
        }
      ],
      "stateMutability": "view",
      "type": "function"
    },
    {
      "inputs": [],
      "name": "name",
      "outputs": [
        {
          "internalType": "string",
          "name": "",
          "type": "string"
        }
      ],
      "stateMutability": "view",
      "type": "function"
    },
    {
      "inputs": [],
      "name": "nftCount",
      "outputs": [
        {
          "internalType": "uint256",
          "name": "",
          "type": "uint256"
        }
      ],
      "stateMutability": "view",
      "type": "function"
    },
    {
      "inputs": [],
      "name": "owner",
      "outputs": [
        {
          "internalType": "address",
          "name": "",
          "type": "address"
        }
      ],
      "stateMutability": "view",
      "type": "function"
    },
    {
      "inputs": [
        {
          "internalType": "uint256",
          "name": "tokenId",
          "type": "uint256"
        }
      ],
      "name": "ownerOf",
      "outputs": [
        {
          "internalType": "address",
          "name": "",
          "type": "address"
        }
      ],
      "stateMutability": "view",
      "type": "function"
    },
    {
      "inputs": [],
      "name": "provenance",
      "outputs": [
        {
          "internalType": "string",
          "name": "",
          "type": "string"
        }
      ],
      "stateMutability": "view",
      "type": "function"
    },
    {
      "inputs": [],
      "name": "renounceOwnership",
      "outputs": [],
      "stateMutability": "nonpayable",
      "type": "function"
    },
    {
      "inputs": [
        {
          "internalType": "address",
          "name": "from",
          "type": "address"
        },
        {
          "internalType": "address",
          "name": "to",
          "type": "address"
        },
        {
          "internalType": "uint256",
          "name": "tokenId",
          "type": "uint256"
        }
      ],
      "name": "safeTransferFrom",
      "outputs": [],
      "stateMutability": "nonpayable",
      "type": "function"
    },
    {
      "inputs": [
        {
          "internalType": "address",
          "name": "from",
          "type": "address"
        },
        {
          "internalType": "address",
          "name": "to",
          "type": "address"
        },
        {
          "internalType": "uint256",
          "name": "tokenId",
          "type": "uint256"
        },
        {
          "internalType": "bytes",
          "name": "_data",
          "type": "bytes"
        }
      ],
      "name": "safeTransferFrom",
      "outputs": [],
      "stateMutability": "nonpayable",
      "type": "function"
    },
    {
      "inputs": [
        {
          "internalType": "address",
          "name": "operator",
          "type": "address"
        },
        {
          "internalType": "bool",
          "name": "approved",
          "type": "bool"
        }
      ],
      "name": "setApprovalForAll",
      "outputs": [],
      "stateMutability": "nonpayable",
      "type": "function"
    },
    {
      "inputs": [
        {
          "internalType": "string",
          "name": "_uri",
          "type": "string"
        }
      ],
      "name": "setBaseURI",
      "outputs": [],
      "stateMutability": "nonpayable",
      "type": "function"
    },
    {
      "inputs": [
        {
          "internalType": "address",
          "name": "_feeAddress",
          "type": "address"
        }
      ],
      "name": "setFeeAddress",
      "outputs": [],
      "stateMutability": "nonpayable",
      "type": "function"
    },
    {
      "inputs": [
        {
          "internalType": "uint256",
          "name": "_MINT_PRE_START_TIME",
          "type": "uint256"
        },
        {
          "internalType": "uint256",
          "name": "_MINT_START_TIME",
          "type": "uint256"
        },
        {
          "internalType": "uint256",
          "name": "_MINT_END_TIME",
          "type": "uint256"
        }
      ],
      "name": "setMintTimes",
      "outputs": [],
      "stateMutability": "nonpayable",
      "type": "function"
    },
    {
      "inputs": [
        {
          "internalType": "uint256",
          "name": "price",
          "type": "uint256"
        },
        {
          "internalType": "address",
          "name": "token",
          "type": "address"
        }
      ],
      "name": "setPrice",
      "outputs": [],
      "stateMutability": "nonpayable",
      "type": "function"
    },
    {
      "inputs": [
        {
          "internalType": "string",
          "name": "_provenance",
          "type": "string"
        }
      ],
      "name": "setProvenance",
      "outputs": [],
      "stateMutability": "nonpayable",
      "type": "function"
    },
    {
      "inputs": [
        {
          "internalType": "address[]",
          "name": "addresses",
          "type": "address[]"
        },
        {
          "internalType": "uint256[]",
          "name": "entries",
          "type": "uint256[]"
        }
      ],
      "name": "setWhitelist",
      "outputs": [],
      "stateMutability": "nonpayable",
      "type": "function"
    },
    {
      "inputs": [
        {
          "internalType": "address[]",
          "name": "addresses",
          "type": "address[]"
        },
        {
          "internalType": "uint256[]",
          "name": "entries",
          "type": "uint256[]"
        }
      ],
      "name": "setWhitelistPre",
      "outputs": [],
      "stateMutability": "nonpayable",
      "type": "function"
    },
    {
      "inputs": [],
      "name": "startingIndex",
      "outputs": [
        {
          "internalType": "uint256",
          "name": "",
          "type": "uint256"
        }
      ],
      "stateMutability": "view",
      "type": "function"
    },
    {
      "inputs": [
        {
          "internalType": "bytes4",
          "name": "interfaceId",
          "type": "bytes4"
        }
      ],
      "name": "supportsInterface",
      "outputs": [
        {
          "internalType": "bool",
          "name": "",
          "type": "bool"
        }
      ],
      "stateMutability": "view",
      "type": "function"
    },
    {
      "inputs": [],
      "name": "symbol",
      "outputs": [
        {
          "internalType": "string",
          "name": "",
          "type": "string"
        }
      ],
      "stateMutability": "view",
      "type": "function"
    },
    {
      "inputs": [],
      "name": "toggleOpen",
      "outputs": [],
      "stateMutability": "nonpayable",
      "type": "function"
    },
    {
      "inputs": [
        {
          "internalType": "uint256",
          "name": "index",
          "type": "uint256"
        }
      ],
      "name": "tokenByIndex",
      "outputs": [
        {
          "internalType": "uint256",
          "name": "",
          "type": "uint256"
        }
      ],
      "stateMutability": "view",
      "type": "function"
    },
    {
      "inputs": [
        {
          "internalType": "address",
          "name": "owner",
          "type": "address"
        },
        {
          "internalType": "uint256",
          "name": "index",
          "type": "uint256"
        }
      ],
      "name": "tokenOfOwnerByIndex",
      "outputs": [
        {
          "internalType": "uint256",
          "name": "",
          "type": "uint256"
        }
      ],
      "stateMutability": "view",
      "type": "function"
    },
    {
      "inputs": [
        {
          "internalType": "uint256",
          "name": "tokenId",
          "type": "uint256"
        }
      ],
      "name": "tokenURI",
      "outputs": [
        {
          "internalType": "string",
          "name": "",
          "type": "string"
        }
      ],
      "stateMutability": "view",
      "type": "function"
    },
    {
      "inputs": [],
      "name": "totalSupply",
      "outputs": [
        {
          "internalType": "uint256",
          "name": "",
          "type": "uint256"
        }
      ],
      "stateMutability": "view",
      "type": "function"
    },
    {
      "inputs": [
        {
          "internalType": "address",
          "name": "from",
          "type": "address"
        },
        {
          "internalType": "address",
          "name": "to",
          "type": "address"
        },
        {
          "internalType": "uint256",
          "name": "tokenId",
          "type": "uint256"
        }
      ],
      "name": "transferFrom",
      "outputs": [],
      "stateMutability": "nonpayable",
      "type": "function"
    },
    {
      "inputs": [
        {
          "internalType": "address",
          "name": "newOwner",
          "type": "address"
        }
      ],
      "name": "transferOwnership",
      "outputs": [],
      "stateMutability": "nonpayable",
      "type": "function"
    },
    {
      "inputs": [],
      "name": "uri",
      "outputs": [
        {
          "internalType": "string",
          "name": "",
          "type": "string"
        }
      ],
      "stateMutability": "view",
      "type": "function"
    },
    {
      "inputs": [
        {
          "internalType": "address",
          "name": "",
          "type": "address"
        }
      ],
      "name": "whitelist",
      "outputs": [
        {
          "internalType": "uint256",
          "name": "",
          "type": "uint256"
        }
      ],
      "stateMutability": "view",
      "type": "function"
    },
    {
      "inputs": [
        {
          "internalType": "address",
          "name": "",
          "type": "address"
        }
      ],
      "name": "whitelistPre",
      "outputs": [
        {
          "internalType": "uint256",
          "name": "",
          "type": "uint256"
        }
      ],
      "stateMutability": "view",
      "type": "function"
    }
  ],
  "transactionHash": "0xee70387c49b8d559a8fa7d644fad7e595d0d7d2ff811597fc872c0030a2320df",
  "args": [
    "MetaHornbill",
    "METAHORNBILL",
    2000,
    1648904400,
    1649077200,
    1649250000,
    "0xb955b4cab9aa3b49e23aeb5204ebc5ff6678e86d",
    "0x3379a0bdf5a5cb566127c421782686ba0f80490a",
    "0xd0BE34550AC47e616B7220564605BA00912A5FeF"
  ],
  "solcInputHash": "4f031792cdad090f82921d206733d764",
  "bytecode": "0x60a060405268a2a15d09519be0000060185569014542ba12a337c000006019553480156200002c57600080fd5b50604051620044c2380380620044c28339810160408190526200004f91620002fa565b88886200005c3362000130565b81516200007190600190602085019062000180565b5080516200008790600290602084019062000180565b50506001600b55506080879052600c869055600d859055600e849055601a80546001600160a01b038581166001600160a01b031992831617909255601b8054858416908316179055601c80549284169290911691909117905560408051878152602081018790529081018590527f3e5026851758e1ab6e995b071b048e26e92f459b047600ff68914479d5074c549060600160405180910390a150505050505050505062000416565b600080546001600160a01b038381166001600160a01b0319831681178455604051919092169283917f8be0079c531659141344cd1fd0a4f28419497f9722a3daafe3b4186f6b6457e09190a35050565b8280546200018e90620003c3565b90600052602060002090601f016020900481019282620001b25760008555620001fd565b82601f10620001cd57805160ff1916838001178555620001fd565b82800160010185558215620001fd579182015b82811115620001fd578251825591602001919060010190620001e0565b506200020b9291506200020f565b5090565b5b808211156200020b576000815560010162000210565b80516001600160a01b03811681146200023e57600080fd5b919050565b600082601f8301126200025557600080fd5b81516001600160401b038082111562000272576200027262000400565b604051601f8301601f19908116603f011681019082821181831017156200029d576200029d62000400565b81604052838152602092508683858801011115620002ba57600080fd5b600091505b83821015620002de5785820183015181830184015290820190620002bf565b83821115620002f05760008385830101525b9695505050505050565b60008060008060008060008060006101208a8c0312156200031a57600080fd5b89516001600160401b03808211156200033257600080fd5b620003408d838e0162000243565b9a5060208c01519150808211156200035757600080fd5b50620003668c828d0162000243565b98505060408a0151965060608a0151955060808a0151945060a08a015193506200039360c08b0162000226565b9250620003a360e08b0162000226565b9150620003b46101008b0162000226565b90509295985092959850929598565b600181811c90821680620003d857607f821691505b60208210811415620003fa57634e487b7160e01b600052602260045260246000fd5b50919050565b634e487b7160e01b600052604160045260246000fd5b60805161407b62000447600039600081816108290152818161223301528181612dd70152612ec6015261407b6000f3fe60806040526004361061036b5760003560e01c80638705fcd4116101c6578063c662e481116100f7578063e853164111610095578063f013e0e11161006f578063f013e0e1146109cd578063f2fde38b146109ed578063fc58819014610a0d578063ffe630b514610a2357600080fd5b8063e85316411461094f578063e985e9c51461096f578063eac989f8146109b857600080fd5b8063cd983d8d116100d1578063cd983d8d146108d2578063cf309012146108ff578063d0081af814610919578063d3e966581461092f57600080fd5b8063c662e48114610881578063c87b56dd1461089d578063cb774d47146108bd57600080fd5b8063a0712d6811610164578063b0e07c231161013e578063b0e07c23146107f7578063b438e12e14610817578063b88d4fde1461084b578063c492547a1461086b57600080fd5b8063a0712d68146107af578063a22cb465146107c2578063a7b72294146107e257600080fd5b80638da5cb5b116101a05780638da5cb5b1461073a57806395d89b4114610758578063989bdbb61461076d5780639b19251a1461078257600080fd5b80638705fcd4146106f25780638ab1e111146107125780638c3b0ca81461072557600080fd5b80633792481c116102a05780634f6ccce71161023e57806370a082311161021857806370a082311461067a578063715018a61461069a57806373653929146106af5780637e2ade0c146106dc57600080fd5b80634f6ccce71461061a57806355f804b31461063a5780636352211e1461065a57600080fd5b806342842e0e1161027a57806342842e0e146105a4578063477c729d146105c457806347ce07cc146105e4578063485f4767146105fa57600080fd5b80633792481c146105515780633bbaac7b14610571578063412753581461058457600080fd5b80630f7309e81161030d57806322c24205116102e757806322c24205146104d257806323b872dd146104f257806324bbd049146105125780632f745c591461053157600080fd5b80630f7309e81461048857806318160ddd1461049d578063189381cd146104b257600080fd5b8063081812fc11610349578063081812fc146103eb578063095ea7b3146104235780630af2c6ca146104455780630f134ca41461045b57600080fd5b806301ffc9a71461037057806306fdde03146103a557806307bd6322146103c7575b600080fd5b34801561037c57600080fd5b5061039061038b3660046139da565b610a43565b60405190151581526020015b60405180910390f35b3480156103b157600080fd5b506103ba610a54565b60405161039c9190613c9a565b3480156103d357600080fd5b506103dd600e5481565b60405190815260200161039c565b3480156103f757600080fd5b5061040b610406366004613a86565b610ae6565b6040516001600160a01b03909116815260200161039c565b34801561042f57600080fd5b5061044361043e366004613927565b610b80565b005b34801561045157600080fd5b506103dd60175481565b34801561046757600080fd5b506103dd610476366004613783565b600f6020526000908152604090205481565b34801561049457600080fd5b506103ba610c96565b3480156104a957600080fd5b506009546103dd565b3480156104be57600080fd5b50601a5461040b906001600160a01b031681565b3480156104de57600080fd5b506104436104ed366004613951565b610d24565b3480156104fe57600080fd5b5061044361050d3660046137d8565b610ed9565b34801561051e57600080fd5b5060155461039090610100900460ff1681565b34801561053d57600080fd5b506103dd61054c366004613927565b610f0a565b34801561055d57600080fd5b5061044361056c366004613ab8565b610fa0565b61044361057f366004613a86565b611480565b34801561059057600080fd5b50601c5461040b906001600160a01b031681565b3480156105b057600080fd5b506104436105bf3660046137d8565b611655565b3480156105d057600080fd5b50601b5461040b906001600160a01b031681565b3480156105f057600080fd5b506103dd60165481565b34801561060657600080fd5b50610443610615366004613ab8565b611670565b34801561062657600080fd5b506103dd610635366004613a86565b61173f565b34801561064657600080fd5b50610443610655366004613a14565b6117d2565b34801561066657600080fd5b5061040b610675366004613a86565b61188b565b34801561068657600080fd5b506103dd610695366004613783565b611902565b3480156106a657600080fd5b50610443611989565b3480156106bb57600080fd5b506103dd6106ca366004613783565b60126020526000908152604090205481565b3480156106e857600080fd5b506103dd600d5481565b3480156106fe57600080fd5b5061044361070d366004613783565b6119bf565b610443610720366004613a86565b611a3d565b34801561073157600080fd5b50610443611b73565b34801561074657600080fd5b506000546001600160a01b031661040b565b34801561076457600080fd5b506103ba611cb7565b34801561077957600080fd5b50610443611cc6565b34801561078e57600080fd5b506103dd61079d366004613783565b60106020526000908152604090205481565b6104436107bd366004613a86565b611d28565b3480156107ce57600080fd5b506104436107dd3660046138f0565b611ea9565b3480156107ee57600080fd5b50610443611eb4565b34801561080357600080fd5b50610443610812366004613783565b611f24565b34801561082357600080fd5b506103dd7f000000000000000000000000000000000000000000000000000000000000000081565b34801561085757600080fd5b50610443610866366004613814565b612146565b34801561087757600080fd5b506103dd600c5481565b34801561088d57600080fd5b506103dd6706f05b59d3b2000081565b3480156108a957600080fd5b506103ba6108b8366004613a86565b61217e565b3480156108c957600080fd5b506103dd61222f565b3480156108de57600080fd5b506103dd6108ed366004613783565b60116020526000908152604090205481565b34801561090b57600080fd5b506015546103909060ff1681565b34801561092557600080fd5b506103dd60185481565b34801561093b57600080fd5b5061044361094a366004613adb565b612264565b34801561095b57600080fd5b5061044361096a366004613ab8565b6122e3565b34801561097b57600080fd5b5061039061098a3660046137a5565b6001600160a01b03918216600090815260066020908152604080832093909416825291909152205460ff1690565b3480156109c457600080fd5b506103ba6127a1565b3480156109d957600080fd5b506104436109e8366004613951565b6127ae565b3480156109f957600080fd5b50610443610a08366004613783565b61295c565b348015610a1957600080fd5b506103dd60195481565b348015610a2f57600080fd5b50610443610a3e366004613a14565b6129f7565b6000610a4e82612aa4565b92915050565b606060018054610a6390613f49565b80601f0160208091040260200160405190810160405280929190818152602001828054610a8f90613f49565b8015610adc5780601f10610ab157610100808354040283529160200191610adc565b820191906000526020600020905b815481529060010190602001808311610abf57829003601f168201915b5050505050905090565b6000818152600360205260408120546001600160a01b0316610b645760405162461bcd60e51b815260206004820152602c60248201527f4552433732313a20617070726f76656420717565727920666f72206e6f6e657860448201526b34b9ba32b73a103a37b5b2b760a11b60648201526084015b60405180910390fd5b506000908152600560205260409020546001600160a01b031690565b6000610b8b8261188b565b9050806001600160a01b0316836001600160a01b03161415610bf95760405162461bcd60e51b815260206004820152602160248201527f4552433732313a20617070726f76616c20746f2063757272656e74206f776e656044820152603960f91b6064820152608401610b5b565b336001600160a01b0382161480610c155750610c15813361098a565b610c875760405162461bcd60e51b815260206004820152603860248201527f4552433732313a20617070726f76652063616c6c6572206973206e6f74206f7760448201527f6e6572206e6f7220617070726f76656420666f7220616c6c00000000000000006064820152608401610b5b565b610c918383612ac9565b505050565b60148054610ca390613f49565b80601f0160208091040260200160405190810160405280929190818152602001828054610ccf90613f49565b8015610d1c5780601f10610cf157610100808354040283529160200191610d1c565b820191906000526020600020905b815481529060010190602001808311610cff57829003601f168201915b505050505081565b6000546001600160a01b03163314610d4e5760405162461bcd60e51b8152600401610b5b90613dda565b828114610d6d5760405162461bcd60e51b8152600401610b5b90613d98565b60005b83811015610ed2576000858583818110610d8c57610d8c613ff5565b9050602002016020810190610da19190613783565b6001600160a01b03161415610de15760405162461bcd60e51b8152600401610b5b906020808252600490820152637a65726f60e01b604082015260600190565b828282818110610df357610df3613ff5565b90506020020135600f6000878785818110610e1057610e10613ff5565b9050602002016020810190610e259190613783565b6001600160a01b03168152602081019190915260400160002055848482818110610e5157610e51613ff5565b9050602002016020810190610e669190613783565b6001600160a01b03167f69561778ac97dfc2d31e860092bca67d1ebce2d3f486e1210aa13f0e9a2a6fe9848484818110610ea257610ea2613ff5565b90506020020135604051610eb891815260200190565b60405180910390a280610eca81613f84565b915050610d70565b5050505050565b610ee33382612b37565b610eff5760405162461bcd60e51b8152600401610b5b90613e33565b610c91838383612c2e565b6000610f1583611902565b8210610f775760405162461bcd60e51b815260206004820152602b60248201527f455243373231456e756d657261626c653a206f776e657220696e646578206f7560448201526a74206f6620626f756e647360a81b6064820152608401610b5b565b506001600160a01b03919091166000908152600760209081526040808320938352929052205490565b6002600b541415610fc35760405162461bcd60e51b8152600401610b5b90613e84565b6002600b55600c544210156110115760405162461bcd60e51b8152602060048201526014602482015273141c994b535a5b9d081b9bdd081cdd185c9d195960621b6044820152606401610b5b565b600d5442106110535760405162461bcd60e51b815260206004820152600e60248201526d141c994b535a5b9d08195b99195960921b6044820152606401610b5b565b336000908152600f60205260409020548211156110825760405162461bcd60e51b8152600401610b5b90613d61565b601a546001600160a01b03828116911614806110ab5750601b546001600160a01b038281169116145b6110e75760405162461bcd60e51b815260206004820152600d60248201526c24b73b30b634b2102a37b5b2b760991b6044820152606401610b5b565b601a546001600160a01b038281169116141561125d576000546001600160a01b03163314611258578160185461111d9190613ee7565b6040516370a0823160e01b81523360048201526001600160a01b038316906370a082319060240160206040518083038186803b15801561115c57600080fd5b505afa158015611170573d6000803e3d6000fd5b505050506040513d601f19601f820116820180604052508101906111949190613a9f565b10156111b25760405162461bcd60e51b8152600401610b5b90613d2a565b806001600160a01b03166323b872dd33601c60009054906101000a90046001600160a01b0316856018546111e69190613ee7565b6040518463ffffffff1660e01b815260040161120493929190613c0a565b602060405180830381600087803b15801561121e57600080fd5b505af1158015611232573d6000803e3d6000fd5b505050506040513d601f19601f8201168201806040525081019061125691906139bd565b505b6113ce565b601b546001600160a01b03828116911614156113ce576000546001600160a01b031633146113ce57816019546112939190613ee7565b6040516370a0823160e01b81523360048201526001600160a01b038316906370a082319060240160206040518083038186803b1580156112d257600080fd5b505afa1580156112e6573d6000803e3d6000fd5b505050506040513d601f19601f8201168201806040525081019061130a9190613a9f565b10156113285760405162461bcd60e51b8152600401610b5b90613d2a565b806001600160a01b03166323b872dd33601c60009054906101000a90046001600160a01b03168560195461135c9190613ee7565b6040518463ffffffff1660e01b815260040161137a93929190613c0a565b602060405180830381600087803b15801561139457600080fd5b505af11580156113a8573d6000803e3d6000fd5b505050506040513d601f19601f820116820180604052508101906113cc91906139bd565b505b336000908152600f6020526040812080548492906113ed908490613f06565b90915550503360009081526011602052604081208054849290611411908490613ebb565b90915550504360165560005b828110156114405761142e33612dd5565b8061143881613f84565b91505061141d565b5060405182815233907f925f730a5ad66a8169d9e681b6feed65b2a165b2d93d33fce9d83b699f247914906020015b60405180910390a250506001600b55565b6002600b5414156114a35760405162461bcd60e51b8152600401610b5b90613e84565b6002600b55600c544210156114f15760405162461bcd60e51b8152602060048201526014602482015273141c994b535a5b9d081b9bdd081cdd185c9d195960621b6044820152606401610b5b565b600d5442106115335760405162461bcd60e51b815260206004820152600e60248201526d141c994b535a5b9d08195b99195960921b6044820152606401610b5b565b336000908152600f60205260409020548111156115625760405162461bcd60e51b8152600401610b5b90613d61565b6000546001600160a01b031633146115a4576115866706f05b59d3b2000082613ee7565b34146115a45760405162461bcd60e51b8152600401610b5b90613cad565b336000908152600f6020526040812080548392906115c3908490613f06565b909155505033600090815260116020526040812080548392906115e7908490613ebb565b90915550504360165560005b818110156116165761160433612dd5565b8061160e81613f84565b9150506115f3565b5060405181815233907f925f730a5ad66a8169d9e681b6feed65b2a165b2d93d33fce9d83b699f247914906020015b60405180910390a2506001600b55565b610c9183838360405180602001604052806000815250612146565b6000546001600160a01b0316331461169a5760405162461bcd60e51b8152600401610b5b90613dda565b601a546001600160a01b03828116911614806116c35750601b546001600160a01b038281169116145b6117035760405162461bcd60e51b81526020600482015260116024820152703ab739bab83837b93a32b2103a37b5b2b760791b6044820152606401610b5b565b601a546001600160a01b038281169116141561171f5750601855565b601b546001600160a01b038281169116141561173b5760198290555b5050565b600061174a60095490565b82106117ad5760405162461bcd60e51b815260206004820152602c60248201527f455243373231456e756d657261626c653a20676c6f62616c20696e646578206f60448201526b7574206f6620626f756e647360a01b6064820152608401610b5b565b600982815481106117c0576117c0613ff5565b90600052602060002001549050919050565b6000546001600160a01b031633146117fc5760405162461bcd60e51b8152600401610b5b90613dda565b60155460ff16156118415760405162461bcd60e51b815260206004820152600f60248201526e13595d1859185d18481b1bd8dad959608a1b6044820152606401610b5b565b61184d60138383613682565b507f23c8c9488efebfd474e85a7956de6f39b17c7ab88502d42a623db2d8e382bbaa828260405161187f929190613c6b565b60405180910390a15050565b6000818152600360205260408120546001600160a01b031680610a4e5760405162461bcd60e51b815260206004820152602960248201527f4552433732313a206f776e657220717565727920666f72206e6f6e657869737460448201526832b73a103a37b5b2b760b91b6064820152608401610b5b565b60006001600160a01b03821661196d5760405162461bcd60e51b815260206004820152602a60248201527f4552433732313a2062616c616e636520717565727920666f7220746865207a65604482015269726f206164647265737360b01b6064820152608401610b5b565b506001600160a01b031660009081526004602052604090205490565b6000546001600160a01b031633146119b35760405162461bcd60e51b8152600401610b5b90613dda565b6119bd6000612e71565b565b6000546001600160a01b031633146119e95760405162461bcd60e51b8152600401610b5b90613dda565b601c80546001600160a01b0319166001600160a01b0383169081179091556040519081527ffcb8a963756b148f85a52537b63147b6c4b40af694099c901ac3b99d317a2db89060200160405180910390a150565b6002600b541415611a605760405162461bcd60e51b8152600401610b5b90613e84565b6002600b556000546001600160a01b03163314611a8f5760405162461bcd60e51b8152600401610b5b90613dda565b600e544211611ab05760405162461bcd60e51b8152600401610b5b90613e0f565b6000546001600160a01b03163314611af257611ad46706f05b59d3b2000082613ee7565b3414611af25760405162461bcd60e51b8152600401610b5b90613cad565b3360009081526012602052604081208054839290611b11908490613ebb565b90915550504360165560005b81811015611b4057611b2e33612ec1565b80611b3881613f84565b915050611b1d565b5060405181815233907f30385c845b448a36257a6a1716e6ad2e1bc2cbe333cde1e69fe849ad6511adfe90602001611645565b6000546001600160a01b03163314611b9d5760405162461bcd60e51b8152600401610b5b90613dda565b600e54421015611be45760405162461bcd60e51b8152602060048201526012602482015271135a5b9d081a185cc81b9bdd08195b99195960721b6044820152606401610b5b565b6040514790600090339083908381818185875af1925050503d8060008114611c28576040519150601f19603f3d011682016040523d82523d6000602084013e611c2d565b606091505b5050905080611c7e5760405162461bcd60e51b815260206004820152601760248201527f436f756c64206e6f742073656e642070726f63656564730000000000000000006044820152606401610b5b565b60405182815233907fd8138f8a3f377c5259ca548e70e4c2de94f129f5a11036a15b69513cba2b426a9060200160405180910390a25050565b606060028054610a6390613f49565b6000546001600160a01b03163314611cf05760405162461bcd60e51b8152600401610b5b90613dda565b6015805460ff191660011790556040517f0f2e5b6c72c6a4491efd919a9f9a409f324ef0708c11ee57d410c2cb06c0992b90600090a1565b6002600b541415611d4b5760405162461bcd60e51b8152600401610b5b90613e84565b6002600b55600d54421015611d955760405162461bcd60e51b815260206004820152601060248201526f135a5b9d081b9bdd081cdd185c9d195960821b6044820152606401610b5b565b601554610100900460ff16611e1957600e544210611dc55760405162461bcd60e51b8152600401610b5b90613e0f565b33600090815260106020526040902054811115611df45760405162461bcd60e51b8152600401610b5b90613d61565b3360009081526010602052604081208054839290611e13908490613f06565b90915550505b6000546001600160a01b03163314611e5b57611e3d6706f05b59d3b2000082613ee7565b3414611e5b5760405162461bcd60e51b8152600401610b5b90613cad565b3360009081526012602052604081208054839290611e7a908490613ebb565b90915550504360165560005b81811015611b4057611e9733612dd5565b80611ea181613f84565b915050611e86565b61173b338383612f37565b6000546001600160a01b03163314611ede5760405162461bcd60e51b8152600401610b5b90613dda565b6015805461ff001981166101009182900460ff16159091021790556040517f98bc8e6193430ff4877b42d69dfbee87f60c67a35b201e9e9402fa4fc4befae690600090a1565b6000546001600160a01b03163314611f4e5760405162461bcd60e51b8152600401610b5b90613dda565b600e54421015611f955760405162461bcd60e51b8152602060048201526012602482015271135a5b9d081a185cc81b9bdd08195b99195960721b6044820152606401610b5b565b6040516370a0823160e01b81523060048201526000906001600160a01b038316906370a082319060240160206040518083038186803b158015611fd757600080fd5b505afa158015611feb573d6000803e3d6000fd5b505050506040513d601f19601f8201168201806040525081019061200f9190613a9f565b116120525760405162461bcd60e51b81526020600482015260136024820152724e6f2066756e6420746f20776974686472617760681b6044820152606401610b5b565b6040516370a0823160e01b815230600482018190526001600160a01b038316916323b872dd9190339084906370a082319060240160206040518083038186803b15801561209e57600080fd5b505afa1580156120b2573d6000803e3d6000fd5b505050506040513d601f19601f820116820180604052508101906120d69190613a9f565b6040518463ffffffff1660e01b81526004016120f493929190613c0a565b602060405180830381600087803b15801561210e57600080fd5b505af1158015612122573d6000803e3d6000fd5b505050506040513d601f19601f8201168201806040525081019061173b91906139bd565b6121503383612b37565b61216c5760405162461bcd60e51b8152600401610b5b90613e33565b61217884848484613006565b50505050565b6000818152600360205260409020546060906001600160a01b03166121fd5760405162461bcd60e51b815260206004820152602f60248201527f4552433732314d657461646174613a2055524920717565727920666f72206e6f60448201526e3732bc34b9ba32b73a103a37b5b2b760891b6064820152608401610b5b565b601361220883613039565b604051602001612219929190613b4f565b6040516020818303038152906040529050919050565b60007f000000000000000000000000000000000000000000000000000000000000000060165461225f9190613f9f565b905090565b6000546001600160a01b0316331461228e5760405162461bcd60e51b8152600401610b5b90613dda565b600c839055600d829055600e81905560408051848152602081018490529081018290527f3e5026851758e1ab6e995b071b048e26e92f459b047600ff68914479d5074c549060600160405180910390a1505050565b6002600b5414156123065760405162461bcd60e51b8152600401610b5b90613e84565b6002600b55600d544210156123505760405162461bcd60e51b815260206004820152601060248201526f135a5b9d081b9bdd081cdd185c9d195960821b6044820152606401610b5b565b601a546001600160a01b03828116911614806123795750601b546001600160a01b038281169116145b6123b55760405162461bcd60e51b815260206004820152600d60248201526c24b73b30b634b2102a37b5b2b760991b6044820152606401610b5b565b601554610100900460ff1661243957600e5442106123e55760405162461bcd60e51b8152600401610b5b90613e0f565b336000908152601060205260409020548211156124145760405162461bcd60e51b8152600401610b5b90613d61565b3360009081526010602052604081208054849290612433908490613f06565b90915550505b601a546001600160a01b03828116911614156125af576000546001600160a01b031633146125aa578160185461246f9190613ee7565b6040516370a0823160e01b81523360048201526001600160a01b038316906370a082319060240160206040518083038186803b1580156124ae57600080fd5b505afa1580156124c2573d6000803e3d6000fd5b505050506040513d601f19601f820116820180604052508101906124e69190613a9f565b10156125045760405162461bcd60e51b8152600401610b5b90613d2a565b806001600160a01b03166323b872dd33601c60009054906101000a90046001600160a01b0316856018546125389190613ee7565b6040518463ffffffff1660e01b815260040161255693929190613c0a565b602060405180830381600087803b15801561257057600080fd5b505af1158015612584573d6000803e3d6000fd5b505050506040513d601f19601f820116820180604052508101906125a891906139bd565b505b612720565b601b546001600160a01b0382811691161415612720576000546001600160a01b0316331461272057816019546125e59190613ee7565b6040516370a0823160e01b81523360048201526001600160a01b038316906370a082319060240160206040518083038186803b15801561262457600080fd5b505afa158015612638573d6000803e3d6000fd5b505050506040513d601f19601f8201168201806040525081019061265c9190613a9f565b101561267a5760405162461bcd60e51b8152600401610b5b90613d2a565b806001600160a01b03166323b872dd33601c60009054906101000a90046001600160a01b0316856019546126ae9190613ee7565b6040518463ffffffff1660e01b81526004016126cc93929190613c0a565b602060405180830381600087803b1580156126e657600080fd5b505af11580156126fa573d6000803e3d6000fd5b505050506040513d601f19601f8201168201806040525081019061271e91906139bd565b505b336000908152601260205260408120805484929061273f908490613ebb565b90915550504360165560005b8281101561276e5761275c33612dd5565b8061276681613f84565b91505061274b565b5060405182815233907f30385c845b448a36257a6a1716e6ad2e1bc2cbe333cde1e69fe849ad6511adfe9060200161146f565b60138054610ca390613f49565b6000546001600160a01b031633146127d85760405162461bcd60e51b8152600401610b5b90613dda565b8281146127f75760405162461bcd60e51b8152600401610b5b90613d98565b60005b83811015610ed257600085858381811061281657612816613ff5565b905060200201602081019061282b9190613783565b6001600160a01b0316141561286b5760405162461bcd60e51b8152600401610b5b906020808252600490820152635a65726f60e01b604082015260600190565b82828281811061287d5761287d613ff5565b905060200201356010600087878581811061289a5761289a613ff5565b90506020020160208101906128af9190613783565b6001600160a01b031681526020810191909152604001600020558484828181106128db576128db613ff5565b90506020020160208101906128f09190613783565b6001600160a01b03167f6ea640312e182de387819fbeb13be00db3171a445412852248559054871c419984848481811061292c5761292c613ff5565b9050602002013560405161294291815260200190565b60405180910390a28061295481613f84565b9150506127fa565b6000546001600160a01b031633146129865760405162461bcd60e51b8152600401610b5b90613dda565b6001600160a01b0381166129eb5760405162461bcd60e51b815260206004820152602660248201527f4f776e61626c653a206e6577206f776e657220697320746865207a65726f206160448201526564647265737360d01b6064820152608401610b5b565b6129f481612e71565b50565b6000546001600160a01b03163314612a215760405162461bcd60e51b8152600401610b5b90613dda565b60155460ff1615612a665760405162461bcd60e51b815260206004820152600f60248201526e13595d1859185d18481b1bd8dad959608a1b6044820152606401610b5b565b612a7260148383613682565b507f9a15466c5caef68c45172698c3e94fec7de42c88676fa00817bde701c8df8903828260405161187f929190613c6b565b60006001600160e01b0319821663780e9d6360e01b1480610a4e5750610a4e82613137565b600081815260056020526040902080546001600160a01b0319166001600160a01b0384169081179091558190612afe8261188b565b6001600160a01b03167f8c5be1e5ebec7d5bd14f71427d1e84f3dd0314c0f7b2291e5b200ac8c7c3b92560405160405180910390a45050565b6000818152600360205260408120546001600160a01b0316612bb05760405162461bcd60e51b815260206004820152602c60248201527f4552433732313a206f70657261746f7220717565727920666f72206e6f6e657860448201526b34b9ba32b73a103a37b5b2b760a11b6064820152608401610b5b565b6000612bbb8361188b565b9050806001600160a01b0316846001600160a01b03161480612bf65750836001600160a01b0316612beb84610ae6565b6001600160a01b0316145b80612c2657506001600160a01b0380821660009081526006602090815260408083209388168352929052205460ff165b949350505050565b826001600160a01b0316612c418261188b565b6001600160a01b031614612ca55760405162461bcd60e51b815260206004820152602560248201527f4552433732313a207472616e736665722066726f6d20696e636f72726563742060448201526437bbb732b960d91b6064820152608401610b5b565b6001600160a01b038216612d075760405162461bcd60e51b8152602060048201526024808201527f4552433732313a207472616e7366657220746f20746865207a65726f206164646044820152637265737360e01b6064820152608401610b5b565b612d12838383613187565b612d1d600082612ac9565b6001600160a01b0383166000908152600460205260408120805460019290612d46908490613f06565b90915550506001600160a01b0382166000908152600460205260408120805460019290612d74908490613ebb565b909155505060008181526003602052604080822080546001600160a01b0319166001600160a01b0386811691821790925591518493918716917fddf252ad1be2c89b69c2b068fc378daa952ba7f163c4a11628f55a4df523b3ef91a4505050565b7f000000000000000000000000000000000000000000000000000000000000000060175410612e415760405162461bcd60e51b8152602060048201526018602482015277105d985a5b18589b19481cdd5c1c1b1e481c995858da195960421b6044820152606401610b5b565b612e59336017546001612e549190613ebb565b613192565b60178054906000612e6983613f84565b919050555050565b600080546001600160a01b038381166001600160a01b0319831681178455604051919092169283917f8be0079c531659141344cd1fd0a4f28419497f9722a3daafe3b4186f6b6457e09190a35050565b612eec7f0000000000000000000000000000000000000000000000000000000000000000603c613ebb565b60175410612e415760405162461bcd60e51b8152602060048201526018602482015277105d985a5b18589b19481cdd5c1c1b1e481c995858da195960421b6044820152606401610b5b565b816001600160a01b0316836001600160a01b03161415612f995760405162461bcd60e51b815260206004820152601960248201527f4552433732313a20617070726f766520746f2063616c6c6572000000000000006044820152606401610b5b565b6001600160a01b03838116600081815260066020908152604080832094871680845294825291829020805460ff191686151590811790915591519182527f17307eab39ab6107e8899845ad3d59bd9653f200f220920489ca2b5937696c31910160405180910390a3505050565b613011848484612c2e565b61301d848484846131ac565b6121785760405162461bcd60e51b8152600401610b5b90613cd8565b60608161305d5750506040805180820190915260018152600360fc1b602082015290565b8160005b8115613087578061307181613f84565b91506130809050600a83613ed3565b9150613061565b60008167ffffffffffffffff8111156130a2576130a261400b565b6040519080825280601f01601f1916602001820160405280156130cc576020820181803683370190505b5090505b8415612c26576130e1600183613f06565b91506130ee600a86613f9f565b6130f9906030613ebb565b60f81b81838151811061310e5761310e613ff5565b60200101906001600160f81b031916908160001a905350613130600a86613ed3565b94506130d0565b60006001600160e01b031982166380ac58cd60e01b148061316857506001600160e01b03198216635b5e139f60e01b145b80610a4e57506301ffc9a760e01b6001600160e01b0319831614610a4e565b610c918383836132b9565b61173b828260405180602001604052806000815250613371565b60006001600160a01b0384163b156132ae57604051630a85bd0160e11b81526001600160a01b0385169063150b7a02906131f0903390899088908890600401613c2e565b602060405180830381600087803b15801561320a57600080fd5b505af192505050801561323a575060408051601f3d908101601f19168201909252613237918101906139f7565b60015b613294573d808015613268576040519150601f19603f3d011682016040523d82523d6000602084013e61326d565b606091505b50805161328c5760405162461bcd60e51b8152600401610b5b90613cd8565b805181602001fd5b6001600160e01b031916630a85bd0160e11b149050612c26565b506001949350505050565b6001600160a01b0383166133145761330f81600980546000838152600a60205260408120829055600182018355919091527f6e1540171b6c0c960b71a7020d9f60077f6af931a8bbf590da0223dacf75c7af0155565b613337565b816001600160a01b0316836001600160a01b0316146133375761333783826133a4565b6001600160a01b03821661334e57610c9181613441565b826001600160a01b0316826001600160a01b031614610c9157610c9182826134f0565b61337b8383613534565b61338860008484846131ac565b610c915760405162461bcd60e51b8152600401610b5b90613cd8565b600060016133b184611902565b6133bb9190613f06565b60008381526008602052604090205490915080821461340e576001600160a01b03841660009081526007602090815260408083208584528252808320548484528184208190558352600890915290208190555b5060009182526008602090815260408084208490556001600160a01b039094168352600781528383209183525290812055565b60095460009061345390600190613f06565b6000838152600a60205260408120546009805493945090928490811061347b5761347b613ff5565b90600052602060002001549050806009838154811061349c5761349c613ff5565b6000918252602080832090910192909255828152600a909152604080822084905585825281205560098054806134d4576134d4613fdf565b6001900381819060005260206000200160009055905550505050565b60006134fb83611902565b6001600160a01b039093166000908152600760209081526040808320868452825280832085905593825260089052919091209190915550565b6001600160a01b03821661358a5760405162461bcd60e51b815260206004820181905260248201527f4552433732313a206d696e7420746f20746865207a65726f20616464726573736044820152606401610b5b565b6000818152600360205260409020546001600160a01b0316156135ef5760405162461bcd60e51b815260206004820152601c60248201527f4552433732313a20746f6b656e20616c7265616479206d696e746564000000006044820152606401610b5b565b6135fb60008383613187565b6001600160a01b0382166000908152600460205260408120805460019290613624908490613ebb565b909155505060008181526003602052604080822080546001600160a01b0319166001600160a01b03861690811790915590518392907fddf252ad1be2c89b69c2b068fc378daa952ba7f163c4a11628f55a4df523b3ef908290a45050565b82805461368e90613f49565b90600052602060002090601f0160209004810192826136b057600085556136f6565b82601f106136c95782800160ff198235161785556136f6565b828001600101855582156136f6579182015b828111156136f65782358255916020019190600101906136db565b50613702929150613706565b5090565b5b808211156137025760008155600101613707565b80356001600160a01b038116811461373257600080fd5b919050565b60008083601f84011261374957600080fd5b50813567ffffffffffffffff81111561376157600080fd5b6020830191508360208260051b850101111561377c57600080fd5b9250929050565b60006020828403121561379557600080fd5b61379e8261371b565b9392505050565b600080604083850312156137b857600080fd5b6137c18361371b565b91506137cf6020840161371b565b90509250929050565b6000806000606084860312156137ed57600080fd5b6137f68461371b565b92506138046020850161371b565b9150604084013590509250925092565b6000806000806080858703121561382a57600080fd5b6138338561371b565b93506138416020860161371b565b925060408501359150606085013567ffffffffffffffff8082111561386557600080fd5b818701915087601f83011261387957600080fd5b81358181111561388b5761388b61400b565b604051601f8201601f19908116603f011681019083821181831017156138b3576138b361400b565b816040528281528a60208487010111156138cc57600080fd5b82602086016020830137600060208483010152809550505050505092959194509250565b6000806040838503121561390357600080fd5b61390c8361371b565b9150602083013561391c81614021565b809150509250929050565b6000806040838503121561393a57600080fd5b6139438361371b565b946020939093013593505050565b6000806000806040858703121561396757600080fd5b843567ffffffffffffffff8082111561397f57600080fd5b61398b88838901613737565b909650945060208701359150808211156139a457600080fd5b506139b187828801613737565b95989497509550505050565b6000602082840312156139cf57600080fd5b815161379e81614021565b6000602082840312156139ec57600080fd5b813561379e8161402f565b600060208284031215613a0957600080fd5b815161379e8161402f565b60008060208385031215613a2757600080fd5b823567ffffffffffffffff80821115613a3f57600080fd5b818501915085601f830112613a5357600080fd5b813581811115613a6257600080fd5b866020828501011115613a7457600080fd5b60209290920196919550909350505050565b600060208284031215613a9857600080fd5b5035919050565b600060208284031215613ab157600080fd5b5051919050565b60008060408385031215613acb57600080fd5b823591506137cf6020840161371b565b600080600060608486031215613af057600080fd5b505081359360208301359350604090920135919050565b60008151808452613b1f816020860160208601613f1d565b601f01601f19169290920160200192915050565b60008151613b45818560208601613f1d565b9290920192915050565b600080845481600182811c915080831680613b6b57607f831692505b6020808410821415613b8b57634e487b7160e01b86526022600452602486fd5b818015613b9f5760018114613bb057613bdd565b60ff19861689528489019650613bdd565b60008b81526020902060005b86811015613bd55781548b820152908501908301613bbc565b505084890196505b505050505050613c01613bf08286613b33565b64173539b7b760d91b815260050190565b95945050505050565b6001600160a01b039384168152919092166020820152604081019190915260600190565b6001600160a01b0385811682528416602082015260408101839052608060608201819052600090613c6190830184613b07565b9695505050505050565b60208152816020820152818360408301376000818301604090810191909152601f909201601f19160101919050565b60208152600061379e6020830184613b07565b602080825260119082015270125b98dbdc9c9958dd081c185e5b595b9d607a1b604082015260600190565b60208082526032908201527f4552433732313a207472616e7366657220746f206e6f6e20455243373231526560408201527131b2b4bb32b91034b6b83632b6b2b73a32b960711b606082015260800190565b60208082526017908201527f746f6b656e20616d6f756e7420697320746f6f206c6f77000000000000000000604082015260600190565b6020808252601d908201527f4d6178206d696e747320666f7220616464726573732072656163686564000000604082015260600190565b60208082526022908201527f416464726573736573206c656e67746820213d20656e7472696573206c656e676040820152610e8d60f31b606082015260800190565b6020808252818101527f4f776e61626c653a2063616c6c6572206973206e6f7420746865206f776e6572604082015260600190565b6020808252600a9082015269135a5b9d08195b99195960b21b604082015260600190565b60208082526031908201527f4552433732313a207472616e736665722063616c6c6572206973206e6f74206f6040820152701ddb995c881b9bdc88185c1c1c9bdd9959607a1b606082015260800190565b6020808252601f908201527f5265656e7472616e637947756172643a207265656e7472616e742063616c6c00604082015260600190565b60008219821115613ece57613ece613fb3565b500190565b600082613ee257613ee2613fc9565b500490565b6000816000190483118215151615613f0157613f01613fb3565b500290565b600082821015613f1857613f18613fb3565b500390565b60005b83811015613f38578181015183820152602001613f20565b838111156121785750506000910152565b600181811c90821680613f5d57607f821691505b60208210811415613f7e57634e487b7160e01b600052602260045260246000fd5b50919050565b6000600019821415613f9857613f98613fb3565b5060010190565b600082613fae57613fae613fc9565b500690565b634e487b7160e01b600052601160045260246000fd5b634e487b7160e01b600052601260045260246000fd5b634e487b7160e01b600052603160045260246000fd5b634e487b7160e01b600052603260045260246000fd5b634e487b7160e01b600052604160045260246000fd5b80151581146129f457600080fd5b6001600160e01b0319811681146129f457600080fdfea2646970667358221220e75fb5e4cd14f7f56d974471d9a1ced629bb59078d68a59cfe22c777113cd2bf64736f6c63430008070033",
  "devdoc": {
    "kind": "dev",
    "methods": {
      "approve(address,uint256)": {
        "details": "See {IERC721-approve}."
      },
      "balanceOf(address)": {
        "details": "See {IERC721-balanceOf}."
      },
      "getApproved(uint256)": {
        "details": "See {IERC721-getApproved}."
      },
      "isApprovedForAll(address,address)": {
        "details": "See {IERC721-isApprovedForAll}."
      },
      "name()": {
        "details": "See {IERC721Metadata-name}."
      },
      "owner()": {
        "details": "Returns the address of the current owner."
      },
      "ownerOf(uint256)": {
        "details": "See {IERC721-ownerOf}."
      },
      "renounceOwnership()": {
        "details": "Leaves the contract without owner. It will not be possible to call `onlyOwner` functions anymore. Can only be called by the current owner. NOTE: Renouncing ownership will leave the contract without an owner, thereby removing any functionality that is only available to the owner."
      },
      "safeTransferFrom(address,address,uint256)": {
        "details": "See {IERC721-safeTransferFrom}."
      },
      "safeTransferFrom(address,address,uint256,bytes)": {
        "details": "See {IERC721-safeTransferFrom}."
      },
      "setApprovalForAll(address,bool)": {
        "details": "See {IERC721-setApprovalForAll}."
      },
      "symbol()": {
        "details": "See {IERC721Metadata-symbol}."
      },
      "tokenByIndex(uint256)": {
        "details": "See {IERC721Enumerable-tokenByIndex}."
      },
      "tokenOfOwnerByIndex(address,uint256)": {
        "details": "See {IERC721Enumerable-tokenOfOwnerByIndex}."
      },
      "tokenURI(uint256)": {
        "details": "See {IERC721Metadata-tokenURI}."
      },
      "totalSupply()": {
        "details": "See {IERC721Enumerable-totalSupply}."
      },
      "transferFrom(address,address,uint256)": {
        "details": "See {IERC721-transferFrom}."
      },
      "transferOwnership(address)": {
        "details": "Transfers ownership of the contract to a new account (`newOwner`). Can only be called by the current owner."
      }
    },
    "version": 1
  },
  "userdoc": {
    "kind": "user",
    "methods": {},
    "version": 1
  },
  "storageLayout": {
    "storage": [
      {
        "astId": 7,
        "contract": "contracts/MetaHornbill.sol:MetaHornbill",
        "label": "_owner",
        "offset": 0,
        "slot": "0",
        "type": "t_address"
      },
      {
        "astId": 905,
        "contract": "contracts/MetaHornbill.sol:MetaHornbill",
        "label": "_name",
        "offset": 0,
        "slot": "1",
        "type": "t_string_storage"
      },
      {
        "astId": 907,
        "contract": "contracts/MetaHornbill.sol:MetaHornbill",
        "label": "_symbol",
        "offset": 0,
        "slot": "2",
        "type": "t_string_storage"
      },
      {
        "astId": 911,
        "contract": "contracts/MetaHornbill.sol:MetaHornbill",
        "label": "_owners",
        "offset": 0,
        "slot": "3",
        "type": "t_mapping(t_uint256,t_address)"
      },
      {
        "astId": 915,
        "contract": "contracts/MetaHornbill.sol:MetaHornbill",
        "label": "_balances",
        "offset": 0,
        "slot": "4",
        "type": "t_mapping(t_address,t_uint256)"
      },
      {
        "astId": 919,
        "contract": "contracts/MetaHornbill.sol:MetaHornbill",
        "label": "_tokenApprovals",
        "offset": 0,
        "slot": "5",
        "type": "t_mapping(t_uint256,t_address)"
      },
      {
        "astId": 925,
        "contract": "contracts/MetaHornbill.sol:MetaHornbill",
        "label": "_operatorApprovals",
        "offset": 0,
        "slot": "6",
        "type": "t_mapping(t_address,t_mapping(t_address,t_bool))"
      },
      {
        "astId": 1894,
        "contract": "contracts/MetaHornbill.sol:MetaHornbill",
        "label": "_ownedTokens",
        "offset": 0,
        "slot": "7",
        "type": "t_mapping(t_address,t_mapping(t_uint256,t_uint256))"
      },
      {
        "astId": 1898,
        "contract": "contracts/MetaHornbill.sol:MetaHornbill",
        "label": "_ownedTokensIndex",
        "offset": 0,
        "slot": "8",
        "type": "t_mapping(t_uint256,t_uint256)"
      },
      {
        "astId": 1901,
        "contract": "contracts/MetaHornbill.sol:MetaHornbill",
        "label": "_allTokens",
        "offset": 0,
        "slot": "9",
        "type": "t_array(t_uint256)dyn_storage"
      },
      {
        "astId": 1905,
        "contract": "contracts/MetaHornbill.sol:MetaHornbill",
        "label": "_allTokensIndex",
        "offset": 0,
        "slot": "10",
        "type": "t_mapping(t_uint256,t_uint256)"
      },
      {
        "astId": 115,
        "contract": "contracts/MetaHornbill.sol:MetaHornbill",
        "label": "_status",
        "offset": 0,
        "slot": "11",
        "type": "t_uint256"
      },
      {
        "astId": 2857,
        "contract": "contracts/MetaHornbill.sol:MetaHornbill",
        "label": "MINT_PRE_START_TIME",
        "offset": 0,
        "slot": "12",
        "type": "t_uint256"
      },
      {
        "astId": 2859,
        "contract": "contracts/MetaHornbill.sol:MetaHornbill",
        "label": "MINT_START_TIME",
        "offset": 0,
        "slot": "13",
        "type": "t_uint256"
      },
      {
        "astId": 2861,
        "contract": "contracts/MetaHornbill.sol:MetaHornbill",
        "label": "MINT_END_TIME",
        "offset": 0,
        "slot": "14",
        "type": "t_uint256"
      },
      {
        "astId": 2865,
        "contract": "contracts/MetaHornbill.sol:MetaHornbill",
        "label": "whitelistPre",
        "offset": 0,
        "slot": "15",
        "type": "t_mapping(t_address,t_uint256)"
      },
      {
        "astId": 2869,
        "contract": "contracts/MetaHornbill.sol:MetaHornbill",
        "label": "whitelist",
        "offset": 0,
        "slot": "16",
        "type": "t_mapping(t_address,t_uint256)"
      },
      {
        "astId": 2873,
        "contract": "contracts/MetaHornbill.sol:MetaHornbill",
        "label": "entriesPerAddressPre",
        "offset": 0,
        "slot": "17",
        "type": "t_mapping(t_address,t_uint256)"
      },
      {
        "astId": 2877,
        "contract": "contracts/MetaHornbill.sol:MetaHornbill",
        "label": "entriesPerAddress",
        "offset": 0,
        "slot": "18",
        "type": "t_mapping(t_address,t_uint256)"
      },
      {
        "astId": 2879,
        "contract": "contracts/MetaHornbill.sol:MetaHornbill",
        "label": "uri",
        "offset": 0,
        "slot": "19",
        "type": "t_string_storage"
      },
      {
        "astId": 2881,
        "contract": "contracts/MetaHornbill.sol:MetaHornbill",
        "label": "provenance",
        "offset": 0,
        "slot": "20",
        "type": "t_string_storage"
      },
      {
        "astId": 2883,
        "contract": "contracts/MetaHornbill.sol:MetaHornbill",
        "label": "locked",
        "offset": 0,
        "slot": "21",
        "type": "t_bool"
      },
      {
        "astId": 2885,
        "contract": "contracts/MetaHornbill.sol:MetaHornbill",
        "label": "mintOpen",
        "offset": 1,
        "slot": "21",
        "type": "t_bool"
      },
      {
        "astId": 2887,
        "contract": "contracts/MetaHornbill.sol:MetaHornbill",
        "label": "entropy",
        "offset": 0,
        "slot": "22",
        "type": "t_uint256"
      },
      {
        "astId": 2889,
        "contract": "contracts/MetaHornbill.sol:MetaHornbill",
        "label": "nftCount",
        "offset": 0,
        "slot": "23",
        "type": "t_uint256"
      },
      {
        "astId": 2892,
        "contract": "contracts/MetaHornbill.sol:MetaHornbill",
        "label": "afinPrice",
        "offset": 0,
        "slot": "24",
        "type": "t_uint256"
      },
      {
        "astId": 2895,
        "contract": "contracts/MetaHornbill.sol:MetaHornbill",
        "label": "mvpPrice",
        "offset": 0,
        "slot": "25",
        "type": "t_uint256"
      },
      {
        "astId": 2897,
        "contract": "contracts/MetaHornbill.sol:MetaHornbill",
        "label": "afin",
        "offset": 0,
        "slot": "26",
        "type": "t_address"
      },
      {
        "astId": 2899,
        "contract": "contracts/MetaHornbill.sol:MetaHornbill",
        "label": "mvp",
        "offset": 0,
        "slot": "27",
        "type": "t_address"
      },
      {
        "astId": 2901,
        "contract": "contracts/MetaHornbill.sol:MetaHornbill",
        "label": "feeAddress",
        "offset": 0,
        "slot": "28",
        "type": "t_address"
      }
    ],
    "types": {
      "t_address": {
        "encoding": "inplace",
        "label": "address",
        "numberOfBytes": "20"
      },
      "t_array(t_uint256)dyn_storage": {
        "base": "t_uint256",
        "encoding": "dynamic_array",
        "label": "uint256[]",
        "numberOfBytes": "32"
      },
      "t_bool": {
        "encoding": "inplace",
        "label": "bool",
        "numberOfBytes": "1"
      },
      "t_mapping(t_address,t_bool)": {
        "encoding": "mapping",
        "key": "t_address",
        "label": "mapping(address => bool)",
        "numberOfBytes": "32",
        "value": "t_bool"
      },
      "t_mapping(t_address,t_mapping(t_address,t_bool))": {
        "encoding": "mapping",
        "key": "t_address",
        "label": "mapping(address => mapping(address => bool))",
        "numberOfBytes": "32",
        "value": "t_mapping(t_address,t_bool)"
      },
      "t_mapping(t_address,t_mapping(t_uint256,t_uint256))": {
        "encoding": "mapping",
        "key": "t_address",
        "label": "mapping(address => mapping(uint256 => uint256))",
        "numberOfBytes": "32",
        "value": "t_mapping(t_uint256,t_uint256)"
      },
      "t_mapping(t_address,t_uint256)": {
        "encoding": "mapping",
        "key": "t_address",
        "label": "mapping(address => uint256)",
        "numberOfBytes": "32",
        "value": "t_uint256"
      },
      "t_mapping(t_uint256,t_address)": {
        "encoding": "mapping",
        "key": "t_uint256",
        "label": "mapping(uint256 => address)",
        "numberOfBytes": "32",
        "value": "t_address"
      },
      "t_mapping(t_uint256,t_uint256)": {
        "encoding": "mapping",
        "key": "t_uint256",
        "label": "mapping(uint256 => uint256)",
        "numberOfBytes": "32",
        "value": "t_uint256"
      },
      "t_string_storage": {
        "encoding": "bytes",
        "label": "string",
        "numberOfBytes": "32"
      },
      "t_uint256": {
        "encoding": "inplace",
        "label": "uint256",
        "numberOfBytes": "32"
      }
    }
  }
}