{
  "address": "0x61A3b2a0c0c8505bF7973049d91A924d0Ba03fa8",
  "abi": [
    {
      "inputs": [
        {
          "internalType": "string",
          "name": "_NFT_NAME",
          "type": "string"
        },
        {
          "internalType": "string",
          "name": "_NFT_SYMBOL",
          "type": "string"
        },
        {
          "internalType": "uint256",
          "name": "_AVAILABLE_SUPPLY",
          "type": "uint256"
        },
        {
          "internalType": "uint256",
          "name": "_MINT_PRE_START_TIME",
          "type": "uint256"
        },
        {
          "internalType": "uint256",
          "name": "_MINT_START_TIME",
          "type": "uint256"
        },
        {
          "internalType": "uint256",
          "name": "_MINT_END_TIME",
          "type": "uint256"
        },
        {
          "internalType": "address",
          "name": "_afin",
          "type": "address"
        },
        {
          "internalType": "address",
          "name": "_mvp",
          "type": "address"
        }
      ],
      "stateMutability": "nonpayable",
      "type": "constructor"
    },
    {
      "anonymous": false,
      "inputs": [
        {
          "indexed": true,
          "internalType": "address",
          "name": "owner",
          "type": "address"
        },
        {
          "indexed": true,
          "internalType": "address",
          "name": "approved",
          "type": "address"
        },
        {
          "indexed": true,
          "internalType": "uint256",
          "name": "tokenId",
          "type": "uint256"
        }
      ],
      "name": "Approval",
      "type": "event"
    },
    {
      "anonymous": false,
      "inputs": [
        {
          "indexed": true,
          "internalType": "address",
          "name": "owner",
          "type": "address"
        },
        {
          "indexed": true,
          "internalType": "address",
          "name": "operator",
          "type": "address"
        },
        {
          "indexed": false,
          "internalType": "bool",
          "name": "approved",
          "type": "bool"
        }
      ],
      "name": "ApprovalForAll",
      "type": "event"
    },
    {
      "anonymous": false,
      "inputs": [
        {
          "indexed": true,
          "internalType": "address",
          "name": "owner",
          "type": "address"
        },
        {
          "indexed": false,
          "internalType": "uint256",
          "name": "amount",
          "type": "uint256"
        }
      ],
      "name": "Claimed",
      "type": "event"
    },
    {
      "anonymous": false,
      "inputs": [],
      "name": "Locked",
      "type": "event"
    },
    {
      "anonymous": false,
      "inputs": [
        {
          "indexed": true,
          "internalType": "address",
          "name": "user",
          "type": "address"
        },
        {
          "indexed": false,
          "internalType": "uint256",
          "name": "entries",
          "type": "uint256"
        }
      ],
      "name": "Minted",
      "type": "event"
    },
    {
      "anonymous": false,
      "inputs": [
        {
          "indexed": true,
          "internalType": "address",
          "name": "user",
          "type": "address"
        },
        {
          "indexed": false,
          "internalType": "uint256",
          "name": "entries",
          "type": "uint256"
        }
      ],
      "name": "MintedPre",
      "type": "event"
    },
    {
      "anonymous": false,
      "inputs": [
        {
          "indexed": true,
          "internalType": "address",
          "name": "previousOwner",
          "type": "address"
        },
        {
          "indexed": true,
          "internalType": "address",
          "name": "newOwner",
          "type": "address"
        }
      ],
      "name": "OwnershipTransferred",
      "type": "event"
    },
    {
      "anonymous": false,
      "inputs": [
        {
          "indexed": false,
          "internalType": "string",
          "name": "baseUri",
          "type": "string"
        }
      ],
      "name": "SetBaseURI",
      "type": "event"
    },
    {
      "anonymous": false,
      "inputs": [
        {
          "indexed": false,
          "internalType": "string",
          "name": "provenance",
          "type": "string"
        }
      ],
      "name": "SetProvenance",
      "type": "event"
    },
    {
      "anonymous": false,
      "inputs": [
        {
          "indexed": false,
          "internalType": "uint256",
          "name": "startPre",
          "type": "uint256"
        },
        {
          "indexed": false,
          "internalType": "uint256",
          "name": "start",
          "type": "uint256"
        },
        {
          "indexed": false,
          "internalType": "uint256",
          "name": "end",
          "type": "uint256"
        }
      ],
      "name": "SetTimes",
      "type": "event"
    },
    {
      "anonymous": false,
      "inputs": [],
      "name": "ToggleOpen",
      "type": "event"
    },
    {
      "anonymous": false,
      "inputs": [
        {
          "indexed": true,
          "internalType": "address",
          "name": "from",
          "type": "address"
        },
        {
          "indexed": true,
          "internalType": "address",
          "name": "to",
          "type": "address"
        },
        {
          "indexed": true,
          "internalType": "uint256",
          "name": "tokenId",
          "type": "uint256"
        }
      ],
      "name": "Transfer",
      "type": "event"
    },
    {
      "anonymous": false,
      "inputs": [
        {
          "indexed": true,
          "internalType": "address",
          "name": "user",
          "type": "address"
        },
        {
          "indexed": false,
          "internalType": "uint256",
          "name": "entries",
          "type": "uint256"
        }
      ],
      "name": "Whitelisted",
      "type": "event"
    },
    {
      "anonymous": false,
      "inputs": [
        {
          "indexed": true,
          "internalType": "address",
          "name": "user",
          "type": "address"
        },
        {
          "indexed": false,
          "internalType": "uint256",
          "name": "entries",
          "type": "uint256"
        }
      ],
      "name": "WhitelistedPre",
      "type": "event"
    },
    {
      "inputs": [],
      "name": "AVAILABLE_SUPPLY",
      "outputs": [
        {
          "internalType": "uint256",
          "name": "",
          "type": "uint256"
        }
      ],
      "stateMutability": "view",
      "type": "function"
    },
    {
      "inputs": [],
      "name": "MINT_COST",
      "outputs": [
        {
          "internalType": "uint256",
          "name": "",
          "type": "uint256"
        }
      ],
      "stateMutability": "view",
      "type": "function"
    },
    {
      "inputs": [],
      "name": "MINT_END_TIME",
      "outputs": [
        {
          "internalType": "uint256",
          "name": "",
          "type": "uint256"
        }
      ],
      "stateMutability": "view",
      "type": "function"
    },
    {
      "inputs": [],
      "name": "MINT_PRE_START_TIME",
      "outputs": [
        {
          "internalType": "uint256",
          "name": "",
          "type": "uint256"
        }
      ],
      "stateMutability": "view",
      "type": "function"
    },
    {
      "inputs": [],
      "name": "MINT_START_TIME",
      "outputs": [
        {
          "internalType": "uint256",
          "name": "",
          "type": "uint256"
        }
      ],
      "stateMutability": "view",
      "type": "function"
    },
    {
      "inputs": [],
      "name": "afin",
      "outputs": [
        {
          "internalType": "address",
          "name": "",
          "type": "address"
        }
      ],
      "stateMutability": "view",
      "type": "function"
    },
    {
      "inputs": [],
      "name": "afinPrice",
      "outputs": [
        {
          "internalType": "uint256",
          "name": "",
          "type": "uint256"
        }
      ],
      "stateMutability": "view",
      "type": "function"
    },
    {
      "inputs": [
        {
          "internalType": "address",
          "name": "to",
          "type": "address"
        },
        {
          "internalType": "uint256",
          "name": "tokenId",
          "type": "uint256"
        }
      ],
      "name": "approve",
      "outputs": [],
      "stateMutability": "nonpayable",
      "type": "function"
    },
    {
      "inputs": [
        {
          "internalType": "address",
          "name": "owner",
          "type": "address"
        }
      ],
      "name": "balanceOf",
      "outputs": [
        {
          "internalType": "uint256",
          "name": "",
          "type": "uint256"
        }
      ],
      "stateMutability": "view",
      "type": "function"
    },
    {
      "inputs": [],
      "name": "claimProceeds",
      "outputs": [],
      "stateMutability": "nonpayable",
      "type": "function"
    },
    {
      "inputs": [
        {
          "internalType": "address",
          "name": "token",
          "type": "address"
        }
      ],
      "name": "claimProceedsToken",
      "outputs": [],
      "stateMutability": "nonpayable",
      "type": "function"
    },
    {
      "inputs": [
        {
          "internalType": "address",
          "name": "",
          "type": "address"
        }
      ],
      "name": "entriesPerAddress",
      "outputs": [
        {
          "internalType": "uint256",
          "name": "",
          "type": "uint256"
        }
      ],
      "stateMutability": "view",
      "type": "function"
    },
    {
      "inputs": [
        {
          "internalType": "address",
          "name": "",
          "type": "address"
        }
      ],
      "name": "entriesPerAddressPre",
      "outputs": [
        {
          "internalType": "uint256",
          "name": "",
          "type": "uint256"
        }
      ],
      "stateMutability": "view",
      "type": "function"
    },
    {
      "inputs": [],
      "name": "entropy",
      "outputs": [
        {
          "internalType": "uint256",
          "name": "",
          "type": "uint256"
        }
      ],
      "stateMutability": "view",
      "type": "function"
    },
    {
      "inputs": [
        {
          "internalType": "uint256",
          "name": "tokenId",
          "type": "uint256"
        }
      ],
      "name": "getApproved",
      "outputs": [
        {
          "internalType": "address",
          "name": "",
          "type": "address"
        }
      ],
      "stateMutability": "view",
      "type": "function"
    },
    {
      "inputs": [
        {
          "internalType": "address",
          "name": "owner",
          "type": "address"
        },
        {
          "internalType": "address",
          "name": "operator",
          "type": "address"
        }
      ],
      "name": "isApprovedForAll",
      "outputs": [
        {
          "internalType": "bool",
          "name": "",
          "type": "bool"
        }
      ],
      "stateMutability": "view",
      "type": "function"
    },
    {
      "inputs": [],
      "name": "lockMetadata",
      "outputs": [],
      "stateMutability": "nonpayable",
      "type": "function"
    },
    {
      "inputs": [],
      "name": "locked",
      "outputs": [
        {
          "internalType": "bool",
          "name": "",
          "type": "bool"
        }
      ],
      "stateMutability": "view",
      "type": "function"
    },
    {
      "inputs": [
        {
          "internalType": "uint256",
          "name": "count",
          "type": "uint256"
        }
      ],
      "name": "mint",
      "outputs": [],
      "stateMutability": "payable",
      "type": "function"
    },
    {
      "inputs": [
        {
          "internalType": "uint256",
          "name": "count",
          "type": "uint256"
        }
      ],
      "name": "mintCustom",
      "outputs": [],
      "stateMutability": "payable",
      "type": "function"
    },
    {
      "inputs": [],
      "name": "mintOpen",
      "outputs": [
        {
          "internalType": "bool",
          "name": "",
          "type": "bool"
        }
      ],
      "stateMutability": "view",
      "type": "function"
    },
    {
      "inputs": [
        {
          "internalType": "uint256",
          "name": "count",
          "type": "uint256"
        }
      ],
      "name": "mintPre",
      "outputs": [],
      "stateMutability": "payable",
      "type": "function"
    },
    {
      "inputs": [
        {
          "internalType": "uint256",
          "name": "count",
          "type": "uint256"
        },
        {
          "internalType": "address",
          "name": "token",
          "type": "address"
        }
      ],
      "name": "mintPreWithToken",
      "outputs": [],
      "stateMutability": "nonpayable",
      "type": "function"
    },
    {
      "inputs": [
        {
          "internalType": "uint256",
          "name": "count",
          "type": "uint256"
        },
        {
          "internalType": "address",
          "name": "token",
          "type": "address"
        }
      ],
      "name": "mintWithToken",
      "outputs": [],
      "stateMutability": "nonpayable",
      "type": "function"
    },
    {
      "inputs": [],
      "name": "mvp",
      "outputs": [
        {
          "internalType": "address",
          "name": "",
          "type": "address"
        }
      ],
      "stateMutability": "view",
      "type": "function"
    },
    {
      "inputs": [],
      "name": "mvpPrice",
      "outputs": [
        {
          "internalType": "uint256",
          "name": "",
          "type": "uint256"
        }
      ],
      "stateMutability": "view",
      "type": "function"
    },
    {
      "inputs": [],
      "name": "name",
      "outputs": [
        {
          "internalType": "string",
          "name": "",
          "type": "string"
        }
      ],
      "stateMutability": "view",
      "type": "function"
    },
    {
      "inputs": [],
      "name": "nftCount",
      "outputs": [
        {
          "internalType": "uint256",
          "name": "",
          "type": "uint256"
        }
      ],
      "stateMutability": "view",
      "type": "function"
    },
    {
      "inputs": [],
      "name": "owner",
      "outputs": [
        {
          "internalType": "address",
          "name": "",
          "type": "address"
        }
      ],
      "stateMutability": "view",
      "type": "function"
    },
    {
      "inputs": [
        {
          "internalType": "uint256",
          "name": "tokenId",
          "type": "uint256"
        }
      ],
      "name": "ownerOf",
      "outputs": [
        {
          "internalType": "address",
          "name": "",
          "type": "address"
        }
      ],
      "stateMutability": "view",
      "type": "function"
    },
    {
      "inputs": [],
      "name": "provenance",
      "outputs": [
        {
          "internalType": "string",
          "name": "",
          "type": "string"
        }
      ],
      "stateMutability": "view",
      "type": "function"
    },
    {
      "inputs": [],
      "name": "renounceOwnership",
      "outputs": [],
      "stateMutability": "nonpayable",
      "type": "function"
    },
    {
      "inputs": [
        {
          "internalType": "address",
          "name": "from",
          "type": "address"
        },
        {
          "internalType": "address",
          "name": "to",
          "type": "address"
        },
        {
          "internalType": "uint256",
          "name": "tokenId",
          "type": "uint256"
        }
      ],
      "name": "safeTransferFrom",
      "outputs": [],
      "stateMutability": "nonpayable",
      "type": "function"
    },
    {
      "inputs": [
        {
          "internalType": "address",
          "name": "from",
          "type": "address"
        },
        {
          "internalType": "address",
          "name": "to",
          "type": "address"
        },
        {
          "internalType": "uint256",
          "name": "tokenId",
          "type": "uint256"
        },
        {
          "internalType": "bytes",
          "name": "_data",
          "type": "bytes"
        }
      ],
      "name": "safeTransferFrom",
      "outputs": [],
      "stateMutability": "nonpayable",
      "type": "function"
    },
    {
      "inputs": [
        {
          "internalType": "address",
          "name": "operator",
          "type": "address"
        },
        {
          "internalType": "bool",
          "name": "approved",
          "type": "bool"
        }
      ],
      "name": "setApprovalForAll",
      "outputs": [],
      "stateMutability": "nonpayable",
      "type": "function"
    },
    {
      "inputs": [
        {
          "internalType": "string",
          "name": "_uri",
          "type": "string"
        }
      ],
      "name": "setBaseURI",
      "outputs": [],
      "stateMutability": "nonpayable",
      "type": "function"
    },
    {
      "inputs": [
        {
          "internalType": "uint256",
          "name": "_MINT_PRE_START_TIME",
          "type": "uint256"
        },
        {
          "internalType": "uint256",
          "name": "_MINT_START_TIME",
          "type": "uint256"
        },
        {
          "internalType": "uint256",
          "name": "_MINT_END_TIME",
          "type": "uint256"
        }
      ],
      "name": "setMintTimes",
      "outputs": [],
      "stateMutability": "nonpayable",
      "type": "function"
    },
    {
      "inputs": [
        {
          "internalType": "string",
          "name": "_provenance",
          "type": "string"
        }
      ],
      "name": "setProvenance",
      "outputs": [],
      "stateMutability": "nonpayable",
      "type": "function"
    },
    {
      "inputs": [
        {
          "internalType": "address[]",
          "name": "addresses",
          "type": "address[]"
        },
        {
          "internalType": "uint256[]",
          "name": "entries",
          "type": "uint256[]"
        }
      ],
      "name": "setWhitelist",
      "outputs": [],
      "stateMutability": "nonpayable",
      "type": "function"
    },
    {
      "inputs": [
        {
          "internalType": "address[]",
          "name": "addresses",
          "type": "address[]"
        },
        {
          "internalType": "uint256[]",
          "name": "entries",
          "type": "uint256[]"
        }
      ],
      "name": "setWhitelistPre",
      "outputs": [],
      "stateMutability": "nonpayable",
      "type": "function"
    },
    {
      "inputs": [],
      "name": "startingIndex",
      "outputs": [
        {
          "internalType": "uint256",
          "name": "",
          "type": "uint256"
        }
      ],
      "stateMutability": "view",
      "type": "function"
    },
    {
      "inputs": [
        {
          "internalType": "bytes4",
          "name": "interfaceId",
          "type": "bytes4"
        }
      ],
      "name": "supportsInterface",
      "outputs": [
        {
          "internalType": "bool",
          "name": "",
          "type": "bool"
        }
      ],
      "stateMutability": "view",
      "type": "function"
    },
    {
      "inputs": [],
      "name": "symbol",
      "outputs": [
        {
          "internalType": "string",
          "name": "",
          "type": "string"
        }
      ],
      "stateMutability": "view",
      "type": "function"
    },
    {
      "inputs": [],
      "name": "toggleOpen",
      "outputs": [],
      "stateMutability": "nonpayable",
      "type": "function"
    },
    {
      "inputs": [
        {
          "internalType": "uint256",
          "name": "index",
          "type": "uint256"
        }
      ],
      "name": "tokenByIndex",
      "outputs": [
        {
          "internalType": "uint256",
          "name": "",
          "type": "uint256"
        }
      ],
      "stateMutability": "view",
      "type": "function"
    },
    {
      "inputs": [
        {
          "internalType": "address",
          "name": "owner",
          "type": "address"
        },
        {
          "internalType": "uint256",
          "name": "index",
          "type": "uint256"
        }
      ],
      "name": "tokenOfOwnerByIndex",
      "outputs": [
        {
          "internalType": "uint256",
          "name": "",
          "type": "uint256"
        }
      ],
      "stateMutability": "view",
      "type": "function"
    },
    {
      "inputs": [
        {
          "internalType": "uint256",
          "name": "tokenId",
          "type": "uint256"
        }
      ],
      "name": "tokenURI",
      "outputs": [
        {
          "internalType": "string",
          "name": "",
          "type": "string"
        }
      ],
      "stateMutability": "view",
      "type": "function"
    },
    {
      "inputs": [],
      "name": "totalSupply",
      "outputs": [
        {
          "internalType": "uint256",
          "name": "",
          "type": "uint256"
        }
      ],
      "stateMutability": "view",
      "type": "function"
    },
    {
      "inputs": [
        {
          "internalType": "address",
          "name": "from",
          "type": "address"
        },
        {
          "internalType": "address",
          "name": "to",
          "type": "address"
        },
        {
          "internalType": "uint256",
          "name": "tokenId",
          "type": "uint256"
        }
      ],
      "name": "transferFrom",
      "outputs": [],
      "stateMutability": "nonpayable",
      "type": "function"
    },
    {
      "inputs": [
        {
          "internalType": "address",
          "name": "newOwner",
          "type": "address"
        }
      ],
      "name": "transferOwnership",
      "outputs": [],
      "stateMutability": "nonpayable",
      "type": "function"
    },
    {
      "inputs": [],
      "name": "uri",
      "outputs": [
        {
          "internalType": "string",
          "name": "",
          "type": "string"
        }
      ],
      "stateMutability": "view",
      "type": "function"
    },
    {
      "inputs": [
        {
          "internalType": "address",
          "name": "",
          "type": "address"
        }
      ],
      "name": "whitelist",
      "outputs": [
        {
          "internalType": "uint256",
          "name": "",
          "type": "uint256"
        }
      ],
      "stateMutability": "view",
      "type": "function"
    },
    {
      "inputs": [
        {
          "internalType": "address",
          "name": "",
          "type": "address"
        }
      ],
      "name": "whitelistPre",
      "outputs": [
        {
          "internalType": "uint256",
          "name": "",
          "type": "uint256"
        }
      ],
      "stateMutability": "view",
      "type": "function"
    }
  ],
  "transactionHash": "0x6eb4c1a594096b52ec7d16c5528e0ffef59545943b290fd2c51aec264a0891ab",
  "args": [
    "MetaHornbill",
    "AFIN",
    5,
    1646154264,
    1746154264,
    1846154264,
    "0x7B1324A72Ea9Ef0f696fD13Bdb4443D74372deC5",
    "0xe26aBd8eab8A631b339665b1bE99A050A3dc880e"
  ],
  "solcInputHash": "4a7eb9ebfcb2cdb99c683577f97e08c6",
  "bytecode": "0x60a0604052670de0b6b3a7640000601855670de0b6b3a76400006019553480156200002957600080fd5b506040516200424c3803806200424c8339810160408190526200004c91620002e9565b878762000059336200011f565b81516200006e9060019060208501906200016f565b508051620000849060029060208401906200016f565b50506001600b55506080869052600c859055600d849055600e839055601a80546001600160a01b038481166001600160a01b031992831617909255601b80549284169290911691909117905560408051868152602081018690529081018490527f3e5026851758e1ab6e995b071b048e26e92f459b047600ff68914479d5074c549060600160405180910390a15050505050505050620003f2565b600080546001600160a01b038381166001600160a01b0319831681178455604051919092169283917f8be0079c531659141344cd1fd0a4f28419497f9722a3daafe3b4186f6b6457e09190a35050565b8280546200017d906200039f565b90600052602060002090601f016020900481019282620001a15760008555620001ec565b82601f10620001bc57805160ff1916838001178555620001ec565b82800160010185558215620001ec579182015b82811115620001ec578251825591602001919060010190620001cf565b50620001fa929150620001fe565b5090565b5b80821115620001fa5760008155600101620001ff565b80516001600160a01b03811681146200022d57600080fd5b919050565b600082601f8301126200024457600080fd5b81516001600160401b0380821115620002615762000261620003dc565b604051601f8301601f19908116603f011681019082821181831017156200028c576200028c620003dc565b81604052838152602092508683858801011115620002a957600080fd5b600091505b83821015620002cd5785820183015181830184015290820190620002ae565b83821115620002df5760008385830101525b9695505050505050565b600080600080600080600080610100898b0312156200030757600080fd5b88516001600160401b03808211156200031f57600080fd5b6200032d8c838d0162000232565b995060208b01519150808211156200034457600080fd5b50620003538b828c0162000232565b97505060408901519550606089015194506080890151935060a089015192506200038060c08a0162000215565b91506200039060e08a0162000215565b90509295985092959890939650565b600181811c90821680620003b457607f821691505b60208210811415620003d657634e487b7160e01b600052602260045260246000fd5b50919050565b634e487b7160e01b600052604160045260246000fd5b608051613e2962000423600039600081816107780152818161200b01528181612b850152612c740152613e296000f3fe60806040526004361061031a5760003560e01c80638ab1e111116101ab578063c662e481116100f7578063e853164111610095578063f013e0e11161006f578063f013e0e11461091b578063f2fde38b1461093b578063fc5881901461095b578063ffe630b51461097157600080fd5b8063e85316411461089d578063e985e9c5146108bd578063eac989f81461090657600080fd5b8063cd983d8d116100d1578063cd983d8d14610820578063cf3090121461084d578063d0081af814610867578063d3e966581461087d57600080fd5b8063c662e481146107d0578063c87b56dd146107eb578063cb774d471461080b57600080fd5b8063a0712d6811610164578063b0e07c231161013e578063b0e07c2314610746578063b438e12e14610766578063b88d4fde1461079a578063c492547a146107ba57600080fd5b8063a0712d68146106fe578063a22cb46514610711578063a7b722941461073157600080fd5b80638ab1e111146106615780638c3b0ca8146106745780638da5cb5b1461068957806395d89b41146106a7578063989bdbb6146106bc5780639b19251a146106d157600080fd5b80632f745c591161026a5780634f6ccce71161022357806370a08231116101fd57806370a08231146105e9578063715018a614610609578063736539291461061e5780637e2ade0c1461064b57600080fd5b80634f6ccce71461058957806355f804b3146105a95780636352211e146105c957600080fd5b80632f745c59146104e05780633792481c146105005780633bbaac7b1461052057806342842e0e14610533578063477c729d1461055357806347ce07cc1461057357600080fd5b80630f134ca4116102d7578063189381cd116102b1578063189381cd1461046157806322c242051461048157806323b872dd146104a157806324bbd049146104c157600080fd5b80630f134ca41461040a5780630f7309e81461043757806318160ddd1461044c57600080fd5b806301ffc9a71461031f57806306fdde031461035457806307bd632214610376578063081812fc1461039a578063095ea7b3146103d25780630af2c6ca146103f4575b600080fd5b34801561032b57600080fd5b5061033f61033a366004613788565b610991565b60405190151581526020015b60405180910390f35b34801561036057600080fd5b506103696109a2565b60405161034b9190613a48565b34801561038257600080fd5b5061038c600e5481565b60405190815260200161034b565b3480156103a657600080fd5b506103ba6103b5366004613834565b610a34565b6040516001600160a01b03909116815260200161034b565b3480156103de57600080fd5b506103f26103ed3660046136d5565b610ace565b005b34801561040057600080fd5b5061038c60175481565b34801561041657600080fd5b5061038c610425366004613531565b600f6020526000908152604090205481565b34801561044357600080fd5b50610369610be4565b34801561045857600080fd5b5060095461038c565b34801561046d57600080fd5b50601a546103ba906001600160a01b031681565b34801561048d57600080fd5b506103f261049c3660046136ff565b610c72565b3480156104ad57600080fd5b506103f26104bc366004613586565b610e27565b3480156104cd57600080fd5b5060155461033f90610100900460ff1681565b3480156104ec57600080fd5b5061038c6104fb3660046136d5565b610e58565b34801561050c57600080fd5b506103f261051b366004613866565b610eee565b6103f261052e366004613834565b6113a4565b34801561053f57600080fd5b506103f261054e366004613586565b611578565b34801561055f57600080fd5b50601b546103ba906001600160a01b031681565b34801561057f57600080fd5b5061038c60165481565b34801561059557600080fd5b5061038c6105a4366004613834565b611593565b3480156105b557600080fd5b506103f26105c43660046137c2565b611626565b3480156105d557600080fd5b506103ba6105e4366004613834565b6116df565b3480156105f557600080fd5b5061038c610604366004613531565b611756565b34801561061557600080fd5b506103f26117dd565b34801561062a57600080fd5b5061038c610639366004613531565b60126020526000908152604090205481565b34801561065757600080fd5b5061038c600d5481565b6103f261066f366004613834565b611813565b34801561068057600080fd5b506103f2611948565b34801561069557600080fd5b506000546001600160a01b03166103ba565b3480156106b357600080fd5b50610369611a8c565b3480156106c857600080fd5b506103f2611a9b565b3480156106dd57600080fd5b5061038c6106ec366004613531565b60106020526000908152604090205481565b6103f261070c366004613834565b611afd565b34801561071d57600080fd5b506103f261072c36600461369e565b611c7d565b34801561073d57600080fd5b506103f2611c8c565b34801561075257600080fd5b506103f2610761366004613531565b611cfc565b34801561077257600080fd5b5061038c7f000000000000000000000000000000000000000000000000000000000000000081565b3480156107a657600080fd5b506103f26107b53660046135c2565b611f1e565b3480156107c657600080fd5b5061038c600c5481565b3480156107dc57600080fd5b5061038c66038d7ea4c6800081565b3480156107f757600080fd5b50610369610806366004613834565b611f56565b34801561081757600080fd5b5061038c612007565b34801561082c57600080fd5b5061038c61083b366004613531565b60116020526000908152604090205481565b34801561085957600080fd5b5060155461033f9060ff1681565b34801561087357600080fd5b5061038c60185481565b34801561088957600080fd5b506103f2610898366004613889565b61203c565b3480156108a957600080fd5b506103f26108b8366004613866565b6120bb565b3480156108c957600080fd5b5061033f6108d8366004613553565b6001600160a01b03918216600090815260066020908152604080832093909416825291909152205460ff1690565b34801561091257600080fd5b5061036961254f565b34801561092757600080fd5b506103f26109363660046136ff565b61255c565b34801561094757600080fd5b506103f2610956366004613531565b61270a565b34801561096757600080fd5b5061038c60195481565b34801561097d57600080fd5b506103f261098c3660046137c2565b6127a5565b600061099c82612852565b92915050565b6060600180546109b190613cf7565b80601f01602080910402602001604051908101604052809291908181526020018280546109dd90613cf7565b8015610a2a5780601f106109ff57610100808354040283529160200191610a2a565b820191906000526020600020905b815481529060010190602001808311610a0d57829003601f168201915b5050505050905090565b6000818152600360205260408120546001600160a01b0316610ab25760405162461bcd60e51b815260206004820152602c60248201527f4552433732313a20617070726f76656420717565727920666f72206e6f6e657860448201526b34b9ba32b73a103a37b5b2b760a11b60648201526084015b60405180910390fd5b506000908152600560205260409020546001600160a01b031690565b6000610ad9826116df565b9050806001600160a01b0316836001600160a01b03161415610b475760405162461bcd60e51b815260206004820152602160248201527f4552433732313a20617070726f76616c20746f2063757272656e74206f776e656044820152603960f91b6064820152608401610aa9565b336001600160a01b0382161480610b635750610b6381336108d8565b610bd55760405162461bcd60e51b815260206004820152603860248201527f4552433732313a20617070726f76652063616c6c6572206973206e6f74206f7760448201527f6e6572206e6f7220617070726f76656420666f7220616c6c00000000000000006064820152608401610aa9565b610bdf8383612877565b505050565b60148054610bf190613cf7565b80601f0160208091040260200160405190810160405280929190818152602001828054610c1d90613cf7565b8015610c6a5780601f10610c3f57610100808354040283529160200191610c6a565b820191906000526020600020905b815481529060010190602001808311610c4d57829003601f168201915b505050505081565b6000546001600160a01b03163314610c9c5760405162461bcd60e51b8152600401610aa990613b88565b828114610cbb5760405162461bcd60e51b8152600401610aa990613b46565b60005b83811015610e20576000858583818110610cda57610cda613da3565b9050602002016020810190610cef9190613531565b6001600160a01b03161415610d2f5760405162461bcd60e51b8152600401610aa9906020808252600490820152637a65726f60e01b604082015260600190565b828282818110610d4157610d41613da3565b90506020020135600f6000878785818110610d5e57610d5e613da3565b9050602002016020810190610d739190613531565b6001600160a01b03168152602081019190915260400160002055848482818110610d9f57610d9f613da3565b9050602002016020810190610db49190613531565b6001600160a01b03167f69561778ac97dfc2d31e860092bca67d1ebce2d3f486e1210aa13f0e9a2a6fe9848484818110610df057610df0613da3565b90506020020135604051610e0691815260200190565b60405180910390a280610e1881613d32565b915050610cbe565b5050505050565b610e3133826128e5565b610e4d5760405162461bcd60e51b8152600401610aa990613be1565b610bdf8383836129dc565b6000610e6383611756565b8210610ec55760405162461bcd60e51b815260206004820152602b60248201527f455243373231456e756d657261626c653a206f776e657220696e646578206f7560448201526a74206f6620626f756e647360a81b6064820152608401610aa9565b506001600160a01b03919091166000908152600760209081526040808320938352929052205490565b6002600b541415610f115760405162461bcd60e51b8152600401610aa990613c32565b6002600b55600c54421015610f5f5760405162461bcd60e51b8152602060048201526014602482015273141c994b535a5b9d081b9bdd081cdd185c9d195960621b6044820152606401610aa9565b600d544210610fa15760405162461bcd60e51b815260206004820152600e60248201526d141c994b535a5b9d08195b99195960921b6044820152606401610aa9565b336000908152600f6020526040902054821115610fd05760405162461bcd60e51b8152600401610aa990613b0f565b601a546001600160a01b0382811691161480610ff95750601b546001600160a01b038281169116145b6110355760405162461bcd60e51b815260206004820152600d60248201526c24b73b30b634b2102a37b5b2b760991b6044820152606401610aa9565b601a546001600160a01b0382811691161415611196576000546001600160a01b03163314611191578160185461106b9190613c95565b6040516370a0823160e01b81523360048201526001600160a01b038316906370a082319060240160206040518083038186803b1580156110aa57600080fd5b505afa1580156110be573d6000803e3d6000fd5b505050506040513d601f19601f820116820180604052508101906110e2919061384d565b10156111005760405162461bcd60e51b8152600401610aa990613ad8565b806001600160a01b03166323b872dd33308560185461111f9190613c95565b6040518463ffffffff1660e01b815260040161113d939291906139b8565b602060405180830381600087803b15801561115757600080fd5b505af115801561116b573d6000803e3d6000fd5b505050506040513d601f19601f8201168201806040525081019061118f919061376b565b505b6112f2565b601b546001600160a01b03828116911614156112f2576000546001600160a01b031633146112f257816019546111cc9190613c95565b6040516370a0823160e01b81523360048201526001600160a01b038316906370a082319060240160206040518083038186803b15801561120b57600080fd5b505afa15801561121f573d6000803e3d6000fd5b505050506040513d601f19601f82011682018060405250810190611243919061384d565b10156112615760405162461bcd60e51b8152600401610aa990613ad8565b806001600160a01b03166323b872dd3330856019546112809190613c95565b6040518463ffffffff1660e01b815260040161129e939291906139b8565b602060405180830381600087803b1580156112b857600080fd5b505af11580156112cc573d6000803e3d6000fd5b505050506040513d601f19601f820116820180604052508101906112f0919061376b565b505b336000908152600f602052604081208054849290611311908490613cb4565b90915550503360009081526011602052604081208054849290611335908490613c69565b90915550504360165560005b828110156113645761135233612b83565b8061135c81613d32565b915050611341565b5060405182815233907f925f730a5ad66a8169d9e681b6feed65b2a165b2d93d33fce9d83b699f247914906020015b60405180910390a250506001600b55565b6002600b5414156113c75760405162461bcd60e51b8152600401610aa990613c32565b6002600b55600c544210156114155760405162461bcd60e51b8152602060048201526014602482015273141c994b535a5b9d081b9bdd081cdd185c9d195960621b6044820152606401610aa9565b600d5442106114575760405162461bcd60e51b815260206004820152600e60248201526d141c994b535a5b9d08195b99195960921b6044820152606401610aa9565b336000908152600f60205260409020548111156114865760405162461bcd60e51b8152600401610aa990613b0f565b6000546001600160a01b031633146114c7576114a966038d7ea4c6800082613c95565b34146114c75760405162461bcd60e51b8152600401610aa990613a5b565b336000908152600f6020526040812080548392906114e6908490613cb4565b9091555050336000908152601160205260408120805483929061150a908490613c69565b90915550504360165560005b818110156115395761152733612b83565b8061153181613d32565b915050611516565b5060405181815233907f925f730a5ad66a8169d9e681b6feed65b2a165b2d93d33fce9d83b699f247914906020015b60405180910390a2506001600b55565b610bdf83838360405180602001604052806000815250611f1e565b600061159e60095490565b82106116015760405162461bcd60e51b815260206004820152602c60248201527f455243373231456e756d657261626c653a20676c6f62616c20696e646578206f60448201526b7574206f6620626f756e647360a01b6064820152608401610aa9565b6009828154811061161457611614613da3565b90600052602060002001549050919050565b6000546001600160a01b031633146116505760405162461bcd60e51b8152600401610aa990613b88565b60155460ff16156116955760405162461bcd60e51b815260206004820152600f60248201526e13595d1859185d18481b1bd8dad959608a1b6044820152606401610aa9565b6116a160138383613430565b507f23c8c9488efebfd474e85a7956de6f39b17c7ab88502d42a623db2d8e382bbaa82826040516116d3929190613a19565b60405180910390a15050565b6000818152600360205260408120546001600160a01b03168061099c5760405162461bcd60e51b815260206004820152602960248201527f4552433732313a206f776e657220717565727920666f72206e6f6e657869737460448201526832b73a103a37b5b2b760b91b6064820152608401610aa9565b60006001600160a01b0382166117c15760405162461bcd60e51b815260206004820152602a60248201527f4552433732313a2062616c616e636520717565727920666f7220746865207a65604482015269726f206164647265737360b01b6064820152608401610aa9565b506001600160a01b031660009081526004602052604090205490565b6000546001600160a01b031633146118075760405162461bcd60e51b8152600401610aa990613b88565b6118116000612c1f565b565b6002600b5414156118365760405162461bcd60e51b8152600401610aa990613c32565b6002600b556000546001600160a01b031633146118655760405162461bcd60e51b8152600401610aa990613b88565b600e5442116118865760405162461bcd60e51b8152600401610aa990613bbd565b6000546001600160a01b031633146118c7576118a966038d7ea4c6800082613c95565b34146118c75760405162461bcd60e51b8152600401610aa990613a5b565b33600090815260126020526040812080548392906118e6908490613c69565b90915550504360165560005b818110156119155761190333612c6f565b8061190d81613d32565b9150506118f2565b5060405181815233907f30385c845b448a36257a6a1716e6ad2e1bc2cbe333cde1e69fe849ad6511adfe90602001611568565b6000546001600160a01b031633146119725760405162461bcd60e51b8152600401610aa990613b88565b600e544210156119b95760405162461bcd60e51b8152602060048201526012602482015271135a5b9d081a185cc81b9bdd08195b99195960721b6044820152606401610aa9565b6040514790600090339083908381818185875af1925050503d80600081146119fd576040519150601f19603f3d011682016040523d82523d6000602084013e611a02565b606091505b5050905080611a535760405162461bcd60e51b815260206004820152601760248201527f436f756c64206e6f742073656e642070726f63656564730000000000000000006044820152606401610aa9565b60405182815233907fd8138f8a3f377c5259ca548e70e4c2de94f129f5a11036a15b69513cba2b426a9060200160405180910390a25050565b6060600280546109b190613cf7565b6000546001600160a01b03163314611ac55760405162461bcd60e51b8152600401610aa990613b88565b6015805460ff191660011790556040517f0f2e5b6c72c6a4491efd919a9f9a409f324ef0708c11ee57d410c2cb06c0992b90600090a1565b6002600b541415611b205760405162461bcd60e51b8152600401610aa990613c32565b6002600b55600d54421015611b6a5760405162461bcd60e51b815260206004820152601060248201526f135a5b9d081b9bdd081cdd185c9d195960821b6044820152606401610aa9565b601554610100900460ff16611bee57600e544210611b9a5760405162461bcd60e51b8152600401610aa990613bbd565b33600090815260106020526040902054811115611bc95760405162461bcd60e51b8152600401610aa990613b0f565b3360009081526010602052604081208054839290611be8908490613cb4565b90915550505b6000546001600160a01b03163314611c2f57611c1166038d7ea4c6800082613c95565b3414611c2f5760405162461bcd60e51b8152600401610aa990613a5b565b3360009081526012602052604081208054839290611c4e908490613c69565b90915550504360165560005b8181101561191557611c6b33612b83565b80611c7581613d32565b915050611c5a565b611c88338383612ce5565b5050565b6000546001600160a01b03163314611cb65760405162461bcd60e51b8152600401610aa990613b88565b6015805461ff001981166101009182900460ff16159091021790556040517f98bc8e6193430ff4877b42d69dfbee87f60c67a35b201e9e9402fa4fc4befae690600090a1565b6000546001600160a01b03163314611d265760405162461bcd60e51b8152600401610aa990613b88565b600e54421015611d6d5760405162461bcd60e51b8152602060048201526012602482015271135a5b9d081a185cc81b9bdd08195b99195960721b6044820152606401610aa9565b6040516370a0823160e01b81523060048201526000906001600160a01b038316906370a082319060240160206040518083038186803b158015611daf57600080fd5b505afa158015611dc3573d6000803e3d6000fd5b505050506040513d601f19601f82011682018060405250810190611de7919061384d565b11611e2a5760405162461bcd60e51b81526020600482015260136024820152724e6f2066756e6420746f20776974686472617760681b6044820152606401610aa9565b6040516370a0823160e01b815230600482018190526001600160a01b038316916323b872dd9190339084906370a082319060240160206040518083038186803b158015611e7657600080fd5b505afa158015611e8a573d6000803e3d6000fd5b505050506040513d601f19601f82011682018060405250810190611eae919061384d565b6040518463ffffffff1660e01b8152600401611ecc939291906139b8565b602060405180830381600087803b158015611ee657600080fd5b505af1158015611efa573d6000803e3d6000fd5b505050506040513d601f19601f82011682018060405250810190611c88919061376b565b611f2833836128e5565b611f445760405162461bcd60e51b8152600401610aa990613be1565b611f5084848484612db4565b50505050565b6000818152600360205260409020546060906001600160a01b0316611fd55760405162461bcd60e51b815260206004820152602f60248201527f4552433732314d657461646174613a2055524920717565727920666f72206e6f60448201526e3732bc34b9ba32b73a103a37b5b2b760891b6064820152608401610aa9565b6013611fe083612de7565b604051602001611ff19291906138fd565b6040516020818303038152906040529050919050565b60007f00000000000000000000000000000000000000000000000000000000000000006016546120379190613d4d565b905090565b6000546001600160a01b031633146120665760405162461bcd60e51b8152600401610aa990613b88565b600c839055600d829055600e81905560408051848152602081018490529081018290527f3e5026851758e1ab6e995b071b048e26e92f459b047600ff68914479d5074c549060600160405180910390a1505050565b6002600b5414156120de5760405162461bcd60e51b8152600401610aa990613c32565b6002600b55600d544210156121285760405162461bcd60e51b815260206004820152601060248201526f135a5b9d081b9bdd081cdd185c9d195960821b6044820152606401610aa9565b601554610100900460ff166121ac57600e5442106121585760405162461bcd60e51b8152600401610aa990613bbd565b336000908152601060205260409020548211156121875760405162461bcd60e51b8152600401610aa990613b0f565b33600090815260106020526040812080548492906121a6908490613cb4565b90915550505b601a546001600160a01b03828116911614806121d55750601b546001600160a01b038281169116145b6122115760405162461bcd60e51b815260206004820152600d60248201526c24b73b30b634b2102a37b5b2b760991b6044820152606401610aa9565b601a546001600160a01b0382811691161415612372576000546001600160a01b0316331461236d57816018546122479190613c95565b6040516370a0823160e01b81523360048201526001600160a01b038316906370a082319060240160206040518083038186803b15801561228657600080fd5b505afa15801561229a573d6000803e3d6000fd5b505050506040513d601f19601f820116820180604052508101906122be919061384d565b10156122dc5760405162461bcd60e51b8152600401610aa990613ad8565b806001600160a01b03166323b872dd3330856018546122fb9190613c95565b6040518463ffffffff1660e01b8152600401612319939291906139b8565b602060405180830381600087803b15801561233357600080fd5b505af1158015612347573d6000803e3d6000fd5b505050506040513d601f19601f8201168201806040525081019061236b919061376b565b505b6124ce565b601b546001600160a01b03828116911614156124ce576000546001600160a01b031633146124ce57816019546123a89190613c95565b6040516370a0823160e01b81523360048201526001600160a01b038316906370a082319060240160206040518083038186803b1580156123e757600080fd5b505afa1580156123fb573d6000803e3d6000fd5b505050506040513d601f19601f8201168201806040525081019061241f919061384d565b101561243d5760405162461bcd60e51b8152600401610aa990613ad8565b806001600160a01b03166323b872dd33308560195461245c9190613c95565b6040518463ffffffff1660e01b815260040161247a939291906139b8565b602060405180830381600087803b15801561249457600080fd5b505af11580156124a8573d6000803e3d6000fd5b505050506040513d601f19601f820116820180604052508101906124cc919061376b565b505b33600090815260126020526040812080548492906124ed908490613c69565b90915550504360165560005b8281101561251c5761250a33612b83565b8061251481613d32565b9150506124f9565b5060405182815233907f30385c845b448a36257a6a1716e6ad2e1bc2cbe333cde1e69fe849ad6511adfe90602001611393565b60138054610bf190613cf7565b6000546001600160a01b031633146125865760405162461bcd60e51b8152600401610aa990613b88565b8281146125a55760405162461bcd60e51b8152600401610aa990613b46565b60005b83811015610e205760008585838181106125c4576125c4613da3565b90506020020160208101906125d99190613531565b6001600160a01b031614156126195760405162461bcd60e51b8152600401610aa9906020808252600490820152635a65726f60e01b604082015260600190565b82828281811061262b5761262b613da3565b905060200201356010600087878581811061264857612648613da3565b905060200201602081019061265d9190613531565b6001600160a01b0316815260208101919091526040016000205584848281811061268957612689613da3565b905060200201602081019061269e9190613531565b6001600160a01b03167f6ea640312e182de387819fbeb13be00db3171a445412852248559054871c41998484848181106126da576126da613da3565b905060200201356040516126f091815260200190565b60405180910390a28061270281613d32565b9150506125a8565b6000546001600160a01b031633146127345760405162461bcd60e51b8152600401610aa990613b88565b6001600160a01b0381166127995760405162461bcd60e51b815260206004820152602660248201527f4f776e61626c653a206e6577206f776e657220697320746865207a65726f206160448201526564647265737360d01b6064820152608401610aa9565b6127a281612c1f565b50565b6000546001600160a01b031633146127cf5760405162461bcd60e51b8152600401610aa990613b88565b60155460ff16156128145760405162461bcd60e51b815260206004820152600f60248201526e13595d1859185d18481b1bd8dad959608a1b6044820152606401610aa9565b61282060148383613430565b507f9a15466c5caef68c45172698c3e94fec7de42c88676fa00817bde701c8df890382826040516116d3929190613a19565b60006001600160e01b0319821663780e9d6360e01b148061099c575061099c82612ee5565b600081815260056020526040902080546001600160a01b0319166001600160a01b03841690811790915581906128ac826116df565b6001600160a01b03167f8c5be1e5ebec7d5bd14f71427d1e84f3dd0314c0f7b2291e5b200ac8c7c3b92560405160405180910390a45050565b6000818152600360205260408120546001600160a01b031661295e5760405162461bcd60e51b815260206004820152602c60248201527f4552433732313a206f70657261746f7220717565727920666f72206e6f6e657860448201526b34b9ba32b73a103a37b5b2b760a11b6064820152608401610aa9565b6000612969836116df565b9050806001600160a01b0316846001600160a01b031614806129a45750836001600160a01b031661299984610a34565b6001600160a01b0316145b806129d457506001600160a01b0380821660009081526006602090815260408083209388168352929052205460ff165b949350505050565b826001600160a01b03166129ef826116df565b6001600160a01b031614612a535760405162461bcd60e51b815260206004820152602560248201527f4552433732313a207472616e736665722066726f6d20696e636f72726563742060448201526437bbb732b960d91b6064820152608401610aa9565b6001600160a01b038216612ab55760405162461bcd60e51b8152602060048201526024808201527f4552433732313a207472616e7366657220746f20746865207a65726f206164646044820152637265737360e01b6064820152608401610aa9565b612ac0838383612f35565b612acb600082612877565b6001600160a01b0383166000908152600460205260408120805460019290612af4908490613cb4565b90915550506001600160a01b0382166000908152600460205260408120805460019290612b22908490613c69565b909155505060008181526003602052604080822080546001600160a01b0319166001600160a01b0386811691821790925591518493918716917fddf252ad1be2c89b69c2b068fc378daa952ba7f163c4a11628f55a4df523b3ef91a4505050565b7f000000000000000000000000000000000000000000000000000000000000000060175410612bef5760405162461bcd60e51b8152602060048201526018602482015277105d985a5b18589b19481cdd5c1c1b1e481c995858da195960421b6044820152606401610aa9565b612c07336017546001612c029190613c69565b612f40565b60178054906000612c1783613d32565b919050555050565b600080546001600160a01b038381166001600160a01b0319831681178455604051919092169283917f8be0079c531659141344cd1fd0a4f28419497f9722a3daafe3b4186f6b6457e09190a35050565b612c9a7f0000000000000000000000000000000000000000000000000000000000000000603c613c69565b60175410612bef5760405162461bcd60e51b8152602060048201526018602482015277105d985a5b18589b19481cdd5c1c1b1e481c995858da195960421b6044820152606401610aa9565b816001600160a01b0316836001600160a01b03161415612d475760405162461bcd60e51b815260206004820152601960248201527f4552433732313a20617070726f766520746f2063616c6c6572000000000000006044820152606401610aa9565b6001600160a01b03838116600081815260066020908152604080832094871680845294825291829020805460ff191686151590811790915591519182527f17307eab39ab6107e8899845ad3d59bd9653f200f220920489ca2b5937696c31910160405180910390a3505050565b612dbf8484846129dc565b612dcb84848484612f5a565b611f505760405162461bcd60e51b8152600401610aa990613a86565b606081612e0b5750506040805180820190915260018152600360fc1b602082015290565b8160005b8115612e355780612e1f81613d32565b9150612e2e9050600a83613c81565b9150612e0f565b60008167ffffffffffffffff811115612e5057612e50613db9565b6040519080825280601f01601f191660200182016040528015612e7a576020820181803683370190505b5090505b84156129d457612e8f600183613cb4565b9150612e9c600a86613d4d565b612ea7906030613c69565b60f81b818381518110612ebc57612ebc613da3565b60200101906001600160f81b031916908160001a905350612ede600a86613c81565b9450612e7e565b60006001600160e01b031982166380ac58cd60e01b1480612f1657506001600160e01b03198216635b5e139f60e01b145b8061099c57506301ffc9a760e01b6001600160e01b031983161461099c565b610bdf838383613067565b611c8882826040518060200160405280600081525061311f565b60006001600160a01b0384163b1561305c57604051630a85bd0160e11b81526001600160a01b0385169063150b7a0290612f9e9033908990889088906004016139dc565b602060405180830381600087803b158015612fb857600080fd5b505af1925050508015612fe8575060408051601f3d908101601f19168201909252612fe5918101906137a5565b60015b613042573d808015613016576040519150601f19603f3d011682016040523d82523d6000602084013e61301b565b606091505b50805161303a5760405162461bcd60e51b8152600401610aa990613a86565b805181602001fd5b6001600160e01b031916630a85bd0160e11b1490506129d4565b506001949350505050565b6001600160a01b0383166130c2576130bd81600980546000838152600a60205260408120829055600182018355919091527f6e1540171b6c0c960b71a7020d9f60077f6af931a8bbf590da0223dacf75c7af0155565b6130e5565b816001600160a01b0316836001600160a01b0316146130e5576130e58382613152565b6001600160a01b0382166130fc57610bdf816131ef565b826001600160a01b0316826001600160a01b031614610bdf57610bdf828261329e565b61312983836132e2565b6131366000848484612f5a565b610bdf5760405162461bcd60e51b8152600401610aa990613a86565b6000600161315f84611756565b6131699190613cb4565b6000838152600860205260409020549091508082146131bc576001600160a01b03841660009081526007602090815260408083208584528252808320548484528184208190558352600890915290208190555b5060009182526008602090815260408084208490556001600160a01b039094168352600781528383209183525290812055565b60095460009061320190600190613cb4565b6000838152600a60205260408120546009805493945090928490811061322957613229613da3565b90600052602060002001549050806009838154811061324a5761324a613da3565b6000918252602080832090910192909255828152600a9091526040808220849055858252812055600980548061328257613282613d8d565b6001900381819060005260206000200160009055905550505050565b60006132a983611756565b6001600160a01b039093166000908152600760209081526040808320868452825280832085905593825260089052919091209190915550565b6001600160a01b0382166133385760405162461bcd60e51b815260206004820181905260248201527f4552433732313a206d696e7420746f20746865207a65726f20616464726573736044820152606401610aa9565b6000818152600360205260409020546001600160a01b03161561339d5760405162461bcd60e51b815260206004820152601c60248201527f4552433732313a20746f6b656e20616c7265616479206d696e746564000000006044820152606401610aa9565b6133a960008383612f35565b6001600160a01b03821660009081526004602052604081208054600192906133d2908490613c69565b909155505060008181526003602052604080822080546001600160a01b0319166001600160a01b03861690811790915590518392907fddf252ad1be2c89b69c2b068fc378daa952ba7f163c4a11628f55a4df523b3ef908290a45050565b82805461343c90613cf7565b90600052602060002090601f01602090048101928261345e57600085556134a4565b82601f106134775782800160ff198235161785556134a4565b828001600101855582156134a4579182015b828111156134a4578235825591602001919060010190613489565b506134b09291506134b4565b5090565b5b808211156134b057600081556001016134b5565b80356001600160a01b03811681146134e057600080fd5b919050565b60008083601f8401126134f757600080fd5b50813567ffffffffffffffff81111561350f57600080fd5b6020830191508360208260051b850101111561352a57600080fd5b9250929050565b60006020828403121561354357600080fd5b61354c826134c9565b9392505050565b6000806040838503121561356657600080fd5b61356f836134c9565b915061357d602084016134c9565b90509250929050565b60008060006060848603121561359b57600080fd5b6135a4846134c9565b92506135b2602085016134c9565b9150604084013590509250925092565b600080600080608085870312156135d857600080fd5b6135e1856134c9565b93506135ef602086016134c9565b925060408501359150606085013567ffffffffffffffff8082111561361357600080fd5b818701915087601f83011261362757600080fd5b81358181111561363957613639613db9565b604051601f8201601f19908116603f0116810190838211818310171561366157613661613db9565b816040528281528a602084870101111561367a57600080fd5b82602086016020830137600060208483010152809550505050505092959194509250565b600080604083850312156136b157600080fd5b6136ba836134c9565b915060208301356136ca81613dcf565b809150509250929050565b600080604083850312156136e857600080fd5b6136f1836134c9565b946020939093013593505050565b6000806000806040858703121561371557600080fd5b843567ffffffffffffffff8082111561372d57600080fd5b613739888389016134e5565b9096509450602087013591508082111561375257600080fd5b5061375f878288016134e5565b95989497509550505050565b60006020828403121561377d57600080fd5b815161354c81613dcf565b60006020828403121561379a57600080fd5b813561354c81613ddd565b6000602082840312156137b757600080fd5b815161354c81613ddd565b600080602083850312156137d557600080fd5b823567ffffffffffffffff808211156137ed57600080fd5b818501915085601f83011261380157600080fd5b81358181111561381057600080fd5b86602082850101111561382257600080fd5b60209290920196919550909350505050565b60006020828403121561384657600080fd5b5035919050565b60006020828403121561385f57600080fd5b5051919050565b6000806040838503121561387957600080fd5b8235915061357d602084016134c9565b60008060006060848603121561389e57600080fd5b505081359360208301359350604090920135919050565b600081518084526138cd816020860160208601613ccb565b601f01601f19169290920160200192915050565b600081516138f3818560208601613ccb565b9290920192915050565b600080845481600182811c91508083168061391957607f831692505b602080841082141561393957634e487b7160e01b86526022600452602486fd5b81801561394d576001811461395e5761398b565b60ff1986168952848901965061398b565b60008b81526020902060005b868110156139835781548b82015290850190830161396a565b505084890196505b5050505050506139af61399e82866138e1565b64173539b7b760d91b815260050190565b95945050505050565b6001600160a01b039384168152919092166020820152604081019190915260600190565b6001600160a01b0385811682528416602082015260408101839052608060608201819052600090613a0f908301846138b5565b9695505050505050565b60208152816020820152818360408301376000818301604090810191909152601f909201601f19160101919050565b60208152600061354c60208301846138b5565b602080825260119082015270125b98dbdc9c9958dd081c185e5b595b9d607a1b604082015260600190565b60208082526032908201527f4552433732313a207472616e7366657220746f206e6f6e20455243373231526560408201527131b2b4bb32b91034b6b83632b6b2b73a32b960711b606082015260800190565b60208082526017908201527f746f6b656e20616d6f756e7420697320746f6f206c6f77000000000000000000604082015260600190565b6020808252601d908201527f4d6178206d696e747320666f7220616464726573732072656163686564000000604082015260600190565b60208082526022908201527f416464726573736573206c656e67746820213d20656e7472696573206c656e676040820152610e8d60f31b606082015260800190565b6020808252818101527f4f776e61626c653a2063616c6c6572206973206e6f7420746865206f776e6572604082015260600190565b6020808252600a9082015269135a5b9d08195b99195960b21b604082015260600190565b60208082526031908201527f4552433732313a207472616e736665722063616c6c6572206973206e6f74206f6040820152701ddb995c881b9bdc88185c1c1c9bdd9959607a1b606082015260800190565b6020808252601f908201527f5265656e7472616e637947756172643a207265656e7472616e742063616c6c00604082015260600190565b60008219821115613c7c57613c7c613d61565b500190565b600082613c9057613c90613d77565b500490565b6000816000190483118215151615613caf57613caf613d61565b500290565b600082821015613cc657613cc6613d61565b500390565b60005b83811015613ce6578181015183820152602001613cce565b83811115611f505750506000910152565b600181811c90821680613d0b57607f821691505b60208210811415613d2c57634e487b7160e01b600052602260045260246000fd5b50919050565b6000600019821415613d4657613d46613d61565b5060010190565b600082613d5c57613d5c613d77565b500690565b634e487b7160e01b600052601160045260246000fd5b634e487b7160e01b600052601260045260246000fd5b634e487b7160e01b600052603160045260246000fd5b634e487b7160e01b600052603260045260246000fd5b634e487b7160e01b600052604160045260246000fd5b80151581146127a257600080fd5b6001600160e01b0319811681146127a257600080fdfea26469706673582212207aee4b827c7109c84c9bbe2f1faeacabf739914be67757bd05f487a131b3522064736f6c63430008070033",
  "devdoc": {
    "kind": "dev",
    "methods": {
      "approve(address,uint256)": {
        "details": "See {IERC721-approve}."
      },
      "balanceOf(address)": {
        "details": "See {IERC721-balanceOf}."
      },
      "getApproved(uint256)": {
        "details": "See {IERC721-getApproved}."
      },
      "isApprovedForAll(address,address)": {
        "details": "See {IERC721-isApprovedForAll}."
      },
      "name()": {
        "details": "See {IERC721Metadata-name}."
      },
      "owner()": {
        "details": "Returns the address of the current owner."
      },
      "ownerOf(uint256)": {
        "details": "See {IERC721-ownerOf}."
      },
      "renounceOwnership()": {
        "details": "Leaves the contract without owner. It will not be possible to call `onlyOwner` functions anymore. Can only be called by the current owner. NOTE: Renouncing ownership will leave the contract without an owner, thereby removing any functionality that is only available to the owner."
      },
      "safeTransferFrom(address,address,uint256)": {
        "details": "See {IERC721-safeTransferFrom}."
      },
      "safeTransferFrom(address,address,uint256,bytes)": {
        "details": "See {IERC721-safeTransferFrom}."
      },
      "setApprovalForAll(address,bool)": {
        "details": "See {IERC721-setApprovalForAll}."
      },
      "symbol()": {
        "details": "See {IERC721Metadata-symbol}."
      },
      "tokenByIndex(uint256)": {
        "details": "See {IERC721Enumerable-tokenByIndex}."
      },
      "tokenOfOwnerByIndex(address,uint256)": {
        "details": "See {IERC721Enumerable-tokenOfOwnerByIndex}."
      },
      "tokenURI(uint256)": {
        "details": "See {IERC721Metadata-tokenURI}."
      },
      "totalSupply()": {
        "details": "See {IERC721Enumerable-totalSupply}."
      },
      "transferFrom(address,address,uint256)": {
        "details": "See {IERC721-transferFrom}."
      },
      "transferOwnership(address)": {
        "details": "Transfers ownership of the contract to a new account (`newOwner`). Can only be called by the current owner."
      }
    },
    "version": 1
  },
  "userdoc": {
    "kind": "user",
    "methods": {},
    "version": 1
  },
  "storageLayout": {
    "storage": [
      {
        "astId": 7,
        "contract": "contracts/MetaHornbill.sol:MetaHornbill",
        "label": "_owner",
        "offset": 0,
        "slot": "0",
        "type": "t_address"
      },
      {
        "astId": 905,
        "contract": "contracts/MetaHornbill.sol:MetaHornbill",
        "label": "_name",
        "offset": 0,
        "slot": "1",
        "type": "t_string_storage"
      },
      {
        "astId": 907,
        "contract": "contracts/MetaHornbill.sol:MetaHornbill",
        "label": "_symbol",
        "offset": 0,
        "slot": "2",
        "type": "t_string_storage"
      },
      {
        "astId": 911,
        "contract": "contracts/MetaHornbill.sol:MetaHornbill",
        "label": "_owners",
        "offset": 0,
        "slot": "3",
        "type": "t_mapping(t_uint256,t_address)"
      },
      {
        "astId": 915,
        "contract": "contracts/MetaHornbill.sol:MetaHornbill",
        "label": "_balances",
        "offset": 0,
        "slot": "4",
        "type": "t_mapping(t_address,t_uint256)"
      },
      {
        "astId": 919,
        "contract": "contracts/MetaHornbill.sol:MetaHornbill",
        "label": "_tokenApprovals",
        "offset": 0,
        "slot": "5",
        "type": "t_mapping(t_uint256,t_address)"
      },
      {
        "astId": 925,
        "contract": "contracts/MetaHornbill.sol:MetaHornbill",
        "label": "_operatorApprovals",
        "offset": 0,
        "slot": "6",
        "type": "t_mapping(t_address,t_mapping(t_address,t_bool))"
      },
      {
        "astId": 1894,
        "contract": "contracts/MetaHornbill.sol:MetaHornbill",
        "label": "_ownedTokens",
        "offset": 0,
        "slot": "7",
        "type": "t_mapping(t_address,t_mapping(t_uint256,t_uint256))"
      },
      {
        "astId": 1898,
        "contract": "contracts/MetaHornbill.sol:MetaHornbill",
        "label": "_ownedTokensIndex",
        "offset": 0,
        "slot": "8",
        "type": "t_mapping(t_uint256,t_uint256)"
      },
      {
        "astId": 1901,
        "contract": "contracts/MetaHornbill.sol:MetaHornbill",
        "label": "_allTokens",
        "offset": 0,
        "slot": "9",
        "type": "t_array(t_uint256)dyn_storage"
      },
      {
        "astId": 1905,
        "contract": "contracts/MetaHornbill.sol:MetaHornbill",
        "label": "_allTokensIndex",
        "offset": 0,
        "slot": "10",
        "type": "t_mapping(t_uint256,t_uint256)"
      },
      {
        "astId": 115,
        "contract": "contracts/MetaHornbill.sol:MetaHornbill",
        "label": "_status",
        "offset": 0,
        "slot": "11",
        "type": "t_uint256"
      },
      {
        "astId": 2857,
        "contract": "contracts/MetaHornbill.sol:MetaHornbill",
        "label": "MINT_PRE_START_TIME",
        "offset": 0,
        "slot": "12",
        "type": "t_uint256"
      },
      {
        "astId": 2859,
        "contract": "contracts/MetaHornbill.sol:MetaHornbill",
        "label": "MINT_START_TIME",
        "offset": 0,
        "slot": "13",
        "type": "t_uint256"
      },
      {
        "astId": 2861,
        "contract": "contracts/MetaHornbill.sol:MetaHornbill",
        "label": "MINT_END_TIME",
        "offset": 0,
        "slot": "14",
        "type": "t_uint256"
      },
      {
        "astId": 2865,
        "contract": "contracts/MetaHornbill.sol:MetaHornbill",
        "label": "whitelistPre",
        "offset": 0,
        "slot": "15",
        "type": "t_mapping(t_address,t_uint256)"
      },
      {
        "astId": 2869,
        "contract": "contracts/MetaHornbill.sol:MetaHornbill",
        "label": "whitelist",
        "offset": 0,
        "slot": "16",
        "type": "t_mapping(t_address,t_uint256)"
      },
      {
        "astId": 2873,
        "contract": "contracts/MetaHornbill.sol:MetaHornbill",
        "label": "entriesPerAddressPre",
        "offset": 0,
        "slot": "17",
        "type": "t_mapping(t_address,t_uint256)"
      },
      {
        "astId": 2877,
        "contract": "contracts/MetaHornbill.sol:MetaHornbill",
        "label": "entriesPerAddress",
        "offset": 0,
        "slot": "18",
        "type": "t_mapping(t_address,t_uint256)"
      },
      {
        "astId": 2879,
        "contract": "contracts/MetaHornbill.sol:MetaHornbill",
        "label": "uri",
        "offset": 0,
        "slot": "19",
        "type": "t_string_storage"
      },
      {
        "astId": 2881,
        "contract": "contracts/MetaHornbill.sol:MetaHornbill",
        "label": "provenance",
        "offset": 0,
        "slot": "20",
        "type": "t_string_storage"
      },
      {
        "astId": 2883,
        "contract": "contracts/MetaHornbill.sol:MetaHornbill",
        "label": "locked",
        "offset": 0,
        "slot": "21",
        "type": "t_bool"
      },
      {
        "astId": 2885,
        "contract": "contracts/MetaHornbill.sol:MetaHornbill",
        "label": "mintOpen",
        "offset": 1,
        "slot": "21",
        "type": "t_bool"
      },
      {
        "astId": 2887,
        "contract": "contracts/MetaHornbill.sol:MetaHornbill",
        "label": "entropy",
        "offset": 0,
        "slot": "22",
        "type": "t_uint256"
      },
      {
        "astId": 2889,
        "contract": "contracts/MetaHornbill.sol:MetaHornbill",
        "label": "nftCount",
        "offset": 0,
        "slot": "23",
        "type": "t_uint256"
      },
      {
        "astId": 2892,
        "contract": "contracts/MetaHornbill.sol:MetaHornbill",
        "label": "afinPrice",
        "offset": 0,
        "slot": "24",
        "type": "t_uint256"
      },
      {
        "astId": 2895,
        "contract": "contracts/MetaHornbill.sol:MetaHornbill",
        "label": "mvpPrice",
        "offset": 0,
        "slot": "25",
        "type": "t_uint256"
      },
      {
        "astId": 2897,
        "contract": "contracts/MetaHornbill.sol:MetaHornbill",
        "label": "afin",
        "offset": 0,
        "slot": "26",
        "type": "t_address"
      },
      {
        "astId": 2899,
        "contract": "contracts/MetaHornbill.sol:MetaHornbill",
        "label": "mvp",
        "offset": 0,
        "slot": "27",
        "type": "t_address"
      }
    ],
    "types": {
      "t_address": {
        "encoding": "inplace",
        "label": "address",
        "numberOfBytes": "20"
      },
      "t_array(t_uint256)dyn_storage": {
        "base": "t_uint256",
        "encoding": "dynamic_array",
        "label": "uint256[]",
        "numberOfBytes": "32"
      },
      "t_bool": {
        "encoding": "inplace",
        "label": "bool",
        "numberOfBytes": "1"
      },
      "t_mapping(t_address,t_bool)": {
        "encoding": "mapping",
        "key": "t_address",
        "label": "mapping(address => bool)",
        "numberOfBytes": "32",
        "value": "t_bool"
      },
      "t_mapping(t_address,t_mapping(t_address,t_bool))": {
        "encoding": "mapping",
        "key": "t_address",
        "label": "mapping(address => mapping(address => bool))",
        "numberOfBytes": "32",
        "value": "t_mapping(t_address,t_bool)"
      },
      "t_mapping(t_address,t_mapping(t_uint256,t_uint256))": {
        "encoding": "mapping",
        "key": "t_address",
        "label": "mapping(address => mapping(uint256 => uint256))",
        "numberOfBytes": "32",
        "value": "t_mapping(t_uint256,t_uint256)"
      },
      "t_mapping(t_address,t_uint256)": {
        "encoding": "mapping",
        "key": "t_address",
        "label": "mapping(address => uint256)",
        "numberOfBytes": "32",
        "value": "t_uint256"
      },
      "t_mapping(t_uint256,t_address)": {
        "encoding": "mapping",
        "key": "t_uint256",
        "label": "mapping(uint256 => address)",
        "numberOfBytes": "32",
        "value": "t_address"
      },
      "t_mapping(t_uint256,t_uint256)": {
        "encoding": "mapping",
        "key": "t_uint256",
        "label": "mapping(uint256 => uint256)",
        "numberOfBytes": "32",
        "value": "t_uint256"
      },
      "t_string_storage": {
        "encoding": "bytes",
        "label": "string",
        "numberOfBytes": "32"
      },
      "t_uint256": {
        "encoding": "inplace",
        "label": "uint256",
        "numberOfBytes": "32"
      }
    }
  }
}