{
  "address": "0x90A844B8cAcC4Aa1a874299B95CB473649ffAF03",
  "abi": [
    {
      "inputs": [
        {
          "internalType": "address",
          "name": "_admin",
          "type": "address"
        },
        {
          "internalType": "address",
          "name": "_ronin",
          "type": "address"
        }
      ],
      "stateMutability": "nonpayable",
      "type": "constructor"
    },
    {
      "anonymous": false,
      "inputs": [
        {
          "indexed": true,
          "internalType": "address",
          "name": "owner",
          "type": "address"
        },
        {
          "indexed": true,
          "internalType": "address",
          "name": "spender",
          "type": "address"
        },
        {
          "indexed": false,
          "internalType": "uint256",
          "name": "value",
          "type": "uint256"
        }
      ],
      "name": "Approval",
      "type": "event"
    },
    {
      "anonymous": false,
      "inputs": [
        {
          "indexed": true,
          "internalType": "bytes32",
          "name": "role",
          "type": "bytes32"
        },
        {
          "indexed": true,
          "internalType": "bytes32",
          "name": "previousAdminRole",
          "type": "bytes32"
        },
        {
          "indexed": true,
          "internalType": "bytes32",
          "name": "newAdminRole",
          "type": "bytes32"
        }
      ],
      "name": "RoleAdminChanged",
      "type": "event"
    },
    {
      "anonymous": false,
      "inputs": [
        {
          "indexed": true,
          "internalType": "bytes32",
          "name": "role",
          "type": "bytes32"
        },
        {
          "indexed": true,
          "internalType": "address",
          "name": "account",
          "type": "address"
        },
        {
          "indexed": true,
          "internalType": "address",
          "name": "sender",
          "type": "address"
        }
      ],
      "name": "RoleGranted",
      "type": "event"
    },
    {
      "anonymous": false,
      "inputs": [
        {
          "indexed": true,
          "internalType": "bytes32",
          "name": "role",
          "type": "bytes32"
        },
        {
          "indexed": true,
          "internalType": "address",
          "name": "account",
          "type": "address"
        },
        {
          "indexed": true,
          "internalType": "address",
          "name": "sender",
          "type": "address"
        }
      ],
      "name": "RoleRevoked",
      "type": "event"
    },
    {
      "anonymous": false,
      "inputs": [
        {
          "indexed": true,
          "internalType": "address",
          "name": "user",
          "type": "address"
        },
        {
          "indexed": true,
          "internalType": "uint256",
          "name": "tokenId",
          "type": "uint256"
        }
      ],
      "name": "Stake",
      "type": "event"
    },
    {
      "anonymous": false,
      "inputs": [
        {
          "indexed": true,
          "internalType": "address",
          "name": "from",
          "type": "address"
        },
        {
          "indexed": true,
          "internalType": "address",
          "name": "to",
          "type": "address"
        },
        {
          "indexed": false,
          "internalType": "uint256",
          "name": "value",
          "type": "uint256"
        }
      ],
      "name": "Transfer",
      "type": "event"
    },
    {
      "anonymous": false,
      "inputs": [
        {
          "indexed": true,
          "internalType": "address",
          "name": "user",
          "type": "address"
        },
        {
          "indexed": true,
          "internalType": "uint256",
          "name": "tokenId",
          "type": "uint256"
        }
      ],
      "name": "Unstake",
      "type": "event"
    },
    {
      "inputs": [],
      "name": "DEFAULT_ADMIN_ROLE",
      "outputs": [
        {
          "internalType": "bytes32",
          "name": "",
          "type": "bytes32"
        }
      ],
      "stateMutability": "view",
      "type": "function"
    },
    {
      "inputs": [],
      "name": "MINTER_ROLE",
      "outputs": [
        {
          "internalType": "bytes32",
          "name": "",
          "type": "bytes32"
        }
      ],
      "stateMutability": "view",
      "type": "function"
    },
    {
      "inputs": [],
      "name": "TOKENS_PER_POINT",
      "outputs": [
        {
          "internalType": "uint256",
          "name": "",
          "type": "uint256"
        }
      ],
      "stateMutability": "view",
      "type": "function"
    },
    {
      "inputs": [
        {
          "internalType": "address",
          "name": "owner",
          "type": "address"
        },
        {
          "internalType": "address",
          "name": "spender",
          "type": "address"
        }
      ],
      "name": "allowance",
      "outputs": [
        {
          "internalType": "uint256",
          "name": "",
          "type": "uint256"
        }
      ],
      "stateMutability": "view",
      "type": "function"
    },
    {
      "inputs": [
        {
          "internalType": "address",
          "name": "spender",
          "type": "address"
        },
        {
          "internalType": "uint256",
          "name": "amount",
          "type": "uint256"
        }
      ],
      "name": "approve",
      "outputs": [
        {
          "internalType": "bool",
          "name": "",
          "type": "bool"
        }
      ],
      "stateMutability": "nonpayable",
      "type": "function"
    },
    {
      "inputs": [
        {
          "internalType": "address",
          "name": "account",
          "type": "address"
        }
      ],
      "name": "balanceOf",
      "outputs": [
        {
          "internalType": "uint256",
          "name": "",
          "type": "uint256"
        }
      ],
      "stateMutability": "view",
      "type": "function"
    },
    {
      "inputs": [
        {
          "internalType": "uint256",
          "name": "amount",
          "type": "uint256"
        }
      ],
      "name": "burn",
      "outputs": [],
      "stateMutability": "nonpayable",
      "type": "function"
    },
    {
      "inputs": [
        {
          "internalType": "address",
          "name": "account",
          "type": "address"
        },
        {
          "internalType": "uint256",
          "name": "amount",
          "type": "uint256"
        }
      ],
      "name": "burnFrom",
      "outputs": [],
      "stateMutability": "nonpayable",
      "type": "function"
    },
    {
      "inputs": [
        {
          "internalType": "uint256",
          "name": "tokenId",
          "type": "uint256"
        }
      ],
      "name": "calculateTokenAmount",
      "outputs": [
        {
          "internalType": "uint256",
          "name": "amount",
          "type": "uint256"
        }
      ],
      "stateMutability": "view",
      "type": "function"
    },
    {
      "inputs": [],
      "name": "cap",
      "outputs": [
        {
          "internalType": "uint256",
          "name": "",
          "type": "uint256"
        }
      ],
      "stateMutability": "view",
      "type": "function"
    },
    {
      "inputs": [],
      "name": "decimals",
      "outputs": [
        {
          "internalType": "uint8",
          "name": "",
          "type": "uint8"
        }
      ],
      "stateMutability": "view",
      "type": "function"
    },
    {
      "inputs": [
        {
          "internalType": "address",
          "name": "spender",
          "type": "address"
        },
        {
          "internalType": "uint256",
          "name": "subtractedValue",
          "type": "uint256"
        }
      ],
      "name": "decreaseAllowance",
      "outputs": [
        {
          "internalType": "bool",
          "name": "",
          "type": "bool"
        }
      ],
      "stateMutability": "nonpayable",
      "type": "function"
    },
    {
      "inputs": [
        {
          "internalType": "bytes32",
          "name": "role",
          "type": "bytes32"
        }
      ],
      "name": "getRoleAdmin",
      "outputs": [
        {
          "internalType": "bytes32",
          "name": "",
          "type": "bytes32"
        }
      ],
      "stateMutability": "view",
      "type": "function"
    },
    {
      "inputs": [
        {
          "internalType": "bytes32",
          "name": "role",
          "type": "bytes32"
        },
        {
          "internalType": "uint256",
          "name": "index",
          "type": "uint256"
        }
      ],
      "name": "getRoleMember",
      "outputs": [
        {
          "internalType": "address",
          "name": "",
          "type": "address"
        }
      ],
      "stateMutability": "view",
      "type": "function"
    },
    {
      "inputs": [
        {
          "internalType": "bytes32",
          "name": "role",
          "type": "bytes32"
        }
      ],
      "name": "getRoleMemberCount",
      "outputs": [
        {
          "internalType": "uint256",
          "name": "",
          "type": "uint256"
        }
      ],
      "stateMutability": "view",
      "type": "function"
    },
    {
      "inputs": [
        {
          "internalType": "address",
          "name": "minter",
          "type": "address"
        }
      ],
      "name": "grantMinter",
      "outputs": [],
      "stateMutability": "nonpayable",
      "type": "function"
    },
    {
      "inputs": [
        {
          "internalType": "bytes32",
          "name": "role",
          "type": "bytes32"
        },
        {
          "internalType": "address",
          "name": "account",
          "type": "address"
        }
      ],
      "name": "grantRole",
      "outputs": [],
      "stateMutability": "nonpayable",
      "type": "function"
    },
    {
      "inputs": [
        {
          "internalType": "bytes32",
          "name": "role",
          "type": "bytes32"
        },
        {
          "internalType": "address",
          "name": "account",
          "type": "address"
        }
      ],
      "name": "hasRole",
      "outputs": [
        {
          "internalType": "bool",
          "name": "",
          "type": "bool"
        }
      ],
      "stateMutability": "view",
      "type": "function"
    },
    {
      "inputs": [
        {
          "internalType": "address",
          "name": "spender",
          "type": "address"
        },
        {
          "internalType": "uint256",
          "name": "addedValue",
          "type": "uint256"
        }
      ],
      "name": "increaseAllowance",
      "outputs": [
        {
          "internalType": "bool",
          "name": "",
          "type": "bool"
        }
      ],
      "stateMutability": "nonpayable",
      "type": "function"
    },
    {
      "inputs": [
        {
          "internalType": "address",
          "name": "receiver",
          "type": "address"
        },
        {
          "internalType": "uint256",
          "name": "amount",
          "type": "uint256"
        }
      ],
      "name": "mint",
      "outputs": [],
      "stateMutability": "nonpayable",
      "type": "function"
    },
    {
      "inputs": [],
      "name": "name",
      "outputs": [
        {
          "internalType": "string",
          "name": "",
          "type": "string"
        }
      ],
      "stateMutability": "view",
      "type": "function"
    },
    {
      "inputs": [
        {
          "internalType": "address",
          "name": "",
          "type": "address"
        },
        {
          "internalType": "address",
          "name": "",
          "type": "address"
        },
        {
          "internalType": "uint256",
          "name": "",
          "type": "uint256"
        },
        {
          "internalType": "bytes",
          "name": "",
          "type": "bytes"
        }
      ],
      "name": "onERC721Received",
      "outputs": [
        {
          "internalType": "bytes4",
          "name": "",
          "type": "bytes4"
        }
      ],
      "stateMutability": "nonpayable",
      "type": "function"
    },
    {
      "inputs": [
        {
          "internalType": "address",
          "name": "owner",
          "type": "address"
        },
        {
          "internalType": "uint256",
          "name": "index",
          "type": "uint256"
        }
      ],
      "name": "ownerInfoAtIndex",
      "outputs": [
        {
          "internalType": "uint256",
          "name": "",
          "type": "uint256"
        }
      ],
      "stateMutability": "view",
      "type": "function"
    },
    {
      "inputs": [
        {
          "internalType": "address",
          "name": "owner",
          "type": "address"
        }
      ],
      "name": "ownerInfoCount",
      "outputs": [
        {
          "internalType": "uint256",
          "name": "",
          "type": "uint256"
        }
      ],
      "stateMutability": "view",
      "type": "function"
    },
    {
      "inputs": [
        {
          "internalType": "uint256",
          "name": "",
          "type": "uint256"
        }
      ],
      "name": "owners",
      "outputs": [
        {
          "internalType": "address",
          "name": "",
          "type": "address"
        }
      ],
      "stateMutability": "view",
      "type": "function"
    },
    {
      "inputs": [
        {
          "internalType": "bytes32",
          "name": "role",
          "type": "bytes32"
        },
        {
          "internalType": "address",
          "name": "account",
          "type": "address"
        }
      ],
      "name": "renounceRole",
      "outputs": [],
      "stateMutability": "nonpayable",
      "type": "function"
    },
    {
      "inputs": [
        {
          "internalType": "address",
          "name": "minter",
          "type": "address"
        }
      ],
      "name": "revokeMinter",
      "outputs": [],
      "stateMutability": "nonpayable",
      "type": "function"
    },
    {
      "inputs": [
        {
          "internalType": "bytes32",
          "name": "role",
          "type": "bytes32"
        },
        {
          "internalType": "address",
          "name": "account",
          "type": "address"
        }
      ],
      "name": "revokeRole",
      "outputs": [],
      "stateMutability": "nonpayable",
      "type": "function"
    },
    {
      "inputs": [],
      "name": "ronin",
      "outputs": [
        {
          "internalType": "contract IERC721",
          "name": "",
          "type": "address"
        }
      ],
      "stateMutability": "view",
      "type": "function"
    },
    {
      "inputs": [
        {
          "internalType": "uint256",
          "name": "tokenId",
          "type": "uint256"
        }
      ],
      "name": "stake",
      "outputs": [],
      "stateMutability": "nonpayable",
      "type": "function"
    },
    {
      "inputs": [
        {
          "internalType": "bytes4",
          "name": "interfaceId",
          "type": "bytes4"
        }
      ],
      "name": "supportsInterface",
      "outputs": [
        {
          "internalType": "bool",
          "name": "",
          "type": "bool"
        }
      ],
      "stateMutability": "view",
      "type": "function"
    },
    {
      "inputs": [],
      "name": "symbol",
      "outputs": [
        {
          "internalType": "string",
          "name": "",
          "type": "string"
        }
      ],
      "stateMutability": "view",
      "type": "function"
    },
    {
      "inputs": [],
      "name": "totalSupply",
      "outputs": [
        {
          "internalType": "uint256",
          "name": "",
          "type": "uint256"
        }
      ],
      "stateMutability": "view",
      "type": "function"
    },
    {
      "inputs": [
        {
          "internalType": "address",
          "name": "recipient",
          "type": "address"
        },
        {
          "internalType": "uint256",
          "name": "amount",
          "type": "uint256"
        }
      ],
      "name": "transfer",
      "outputs": [
        {
          "internalType": "bool",
          "name": "",
          "type": "bool"
        }
      ],
      "stateMutability": "nonpayable",
      "type": "function"
    },
    {
      "inputs": [
        {
          "internalType": "address",
          "name": "sender",
          "type": "address"
        },
        {
          "internalType": "address",
          "name": "recipient",
          "type": "address"
        },
        {
          "internalType": "uint256",
          "name": "amount",
          "type": "uint256"
        }
      ],
      "name": "transferFrom",
      "outputs": [
        {
          "internalType": "bool",
          "name": "",
          "type": "bool"
        }
      ],
      "stateMutability": "nonpayable",
      "type": "function"
    },
    {
      "inputs": [
        {
          "internalType": "uint256",
          "name": "tokenId",
          "type": "uint256"
        }
      ],
      "name": "unstake",
      "outputs": [],
      "stateMutability": "nonpayable",
      "type": "function"
    }
  ],
  "transactionHash": "0xf2144eb15839bc78f1548279ffa175a62d31b1f4a4004edef169e1f95dc5eab6",
  "args": [
    "0xd0BE34550AC47e616B7220564605BA00912A5FeF",
    "0x0bF652eD8949e015C1569B8BA50d1c529e3E2978"
  ],
  "solcInputHash": "345703977ccf2f5f3be624d0589164ad",
  "bytecode": "0x60a06040523480156200001157600080fd5b506040516200218a3803806200218a833981016040819052620000349162000362565b604080518082018252600b81526a526f6e696e205374616b6560a81b602080830191825283518085019094526006845265524f4e494e7360d01b9084015281516a52b7d2dcc80cd2e400000093916200009191600391906200029f565b508051620000a79060049060208401906200029f565b50505060008111620000ff5760405162461bcd60e51b815260206004820152601560248201527f45524332304361707065643a2063617020697320300000000000000000000000604482015260640160405180910390fd5b6080526200010f60008362000136565b600780546001600160a01b0319166001600160a01b039290921691909117905550620003d7565b6200014d82826200017960201b62000da11760201c565b60008281526006602090815260409091206200017491839062000dab62000189821b17901c565b505050565b620001858282620001a9565b5050565b6000620001a0836001600160a01b0384166200024d565b90505b92915050565b60008281526005602090815260408083206001600160a01b038516845290915290205460ff16620001855760008281526005602090815260408083206001600160a01b03851684529091529020805460ff19166001179055620002093390565b6001600160a01b0316816001600160a01b0316837f2f8788117e7eff1d82e926ec794901d17c78024a50270940304540a733656f0d60405160405180910390a45050565b60008181526001830160205260408120546200029657508154600181810184556000848152602080822090930184905584548482528286019093526040902091909155620001a3565b506000620001a3565b828054620002ad906200039a565b90600052602060002090601f016020900481019282620002d157600085556200031c565b82601f10620002ec57805160ff19168380011785556200031c565b828001600101855582156200031c579182015b828111156200031c578251825591602001919060010190620002ff565b506200032a9291506200032e565b5090565b5b808211156200032a57600081556001016200032f565b80516001600160a01b03811681146200035d57600080fd5b919050565b600080604083850312156200037657600080fd5b620003818362000345565b9150620003916020840162000345565b90509250929050565b600181811c90821680620003af57607f821691505b60208210811415620003d157634e487b7160e01b600052602260045260246000fd5b50919050565b608051611d90620003fa6000396000818161039001526115df0152611d906000f3fe608060405234801561001057600080fd5b506004361061021c5760003560e01c806352a212ec11610125578063a457c2d7116100ad578063cfbd48851161007c578063cfbd4885146104fb578063d53913931461050e578063d547741f14610523578063dd62ed3e14610536578063eda266311461056f57600080fd5b8063a457c2d7146104af578063a694fc3a146104c2578063a9059cbb146104d5578063ca15c873146104e857600080fd5b80639010d07c116100f45780639010d07c1461045e57806391d148541461047157806395d89b4114610484578063a217fddf1461048c578063a24bcf461461049457600080fd5b806352a212ec1461040057806370a082311461041357806379cc67901461043c578063898a97b91461044f57600080fd5b80632e17de78116101a8578063355274ea11610177578063355274ea1461038e57806336568abe146103b457806339509351146103c757806340c10f19146103da57806342966c68146103ed57600080fd5b80632e17de78146103465780632e95753f146103595780632f2ff15d1461036c578063313ce5671461037f57600080fd5b8063150b7a02116101ef578063150b7a02146102b257806318160ddd146102e957806323b872dd146102fb578063248a9ca31461030e578063261707fa1461033157600080fd5b806301ffc9a714610221578063025e7c271461024957806306fdde031461028a578063095ea7b31461029f575b600080fd5b61023461022f366004611b2f565b610582565b60405190151581526020015b60405180910390f35b610272610257366004611acf565b6008602052600090815260409020546001600160a01b031681565b6040516001600160a01b039091168152602001610240565b6102926105ad565b6040516102409190611bce565b6102346102ad366004611aa3565b61063f565b6102d06102c03660046119c3565b630a85bd0160e11b949350505050565b6040516001600160e01b03199091168152602001610240565b6002545b604051908152602001610240565b610234610309366004611982565b610655565b6102ed61031c366004611acf565b60009081526005602052604090206001015490565b61034461033f36600461190f565b610704565b005b610344610354366004611acf565b61076f565b6102ed61036736600461190f565b6108af565b61034461037a366004611ae8565b6108d0565b60405160128152602001610240565b7f00000000000000000000000000000000000000000000000000000000000000006102ed565b6103446103c2366004611ae8565b6108f7565b6102346103d5366004611aa3565b610919565b6103446103e8366004611aa3565b610955565b6103446103fb366004611acf565b6109c0565b6102ed61040e366004611aa3565b6109ca565b6102ed61042136600461190f565b6001600160a01b031660009081526020819052604090205490565b61034461044a366004611aa3565b6109f3565b6102ed670de0b6b3a764000081565b61027261046c366004611b0d565b610a74565b61023461047f366004611ae8565b610a8c565b610292610ab7565b6102ed600081565b6102ed6104a2366004611acf565b50678ac7230489e8000090565b6102346104bd366004611aa3565b610ac6565b6103446104d0366004611acf565b610b5f565b6102346104e3366004611aa3565b610d0f565b6102ed6104f6366004611acf565b610d1c565b61034461050936600461190f565b610d33565b6102ed600080516020611d3b83398151915281565b610344610531366004611ae8565b610d97565b6102ed610544366004611949565b6001600160a01b03918216600090815260016020908152604080832093909416825291909152205490565b600754610272906001600160a01b031681565b60006001600160e01b03198216635a05180f60e01b14806105a757506105a782610dc0565b92915050565b6060600380546105bc90611c92565b80601f01602080910402602001604051908101604052809291908181526020018280546105e890611c92565b80156106355780601f1061060a57610100808354040283529160200191610635565b820191906000526020600020905b81548152906001019060200180831161061857829003601f168201915b5050505050905090565b600061064c338484610df5565b50600192915050565b6000610662848484610f19565b6001600160a01b0384166000908152600160209081526040808320338452909152902054828110156106ec5760405162461bcd60e51b815260206004820152602860248201527f45524332303a207472616e7366657220616d6f756e74206578636565647320616044820152676c6c6f77616e636560c01b60648201526084015b60405180910390fd5b6106f98533858403610df5565b506001949350505050565b61070f600033610a8c565b6107545760405162461bcd60e51b815260206004820152601660248201527521b0b63632b91034b9903737ba1030b71030b236b4b760511b60448201526064016106e3565b61076c600080516020611d3b833981519152826108d0565b50565b6000818152600860205260409020546001600160a01b031633146107c95760405162461bcd60e51b81526020600482015260116024820152701c195c9b5a5cdcda5bdb8819195b9a5959607a1b60448201526064016106e3565b600081815260086020908152604080832080546001600160a01b0319169055338352600990915290206107fc90826110e9565b50600754604051632142170760e11b8152306004820152336024820152604481018390526001600160a01b03909116906342842e0e90606401600060405180830381600087803b15801561084f57600080fd5b505af1158015610863573d6000803e3d6000fd5b5050505061087f3361087a678ac7230489e8000090565b6110f5565b604051819033907f85082129d87b2fe11527cb1b3b7a520aeb5aa6913f88a3d8757fe40d1db02fdd90600090a350565b6001600160a01b03811660009081526009602052604081206105a790611243565b6108da828261124d565b60008281526006602052604090206108f29082610dab565b505050565b6109018282611273565b60008281526006602052604090206108f290826112ed565b3360008181526001602090815260408083206001600160a01b0387168452909152812054909161064c918590610950908690611c01565b610df5565b61096d600080516020611d3b83398151915233610a8c565b6109b25760405162461bcd60e51b815260206004820152601660248201527521b0b63632b91034b9903737ba10309036b4b73a32b960511b60448201526064016106e3565b6109bc8282611302565b5050565b61076c33826110f5565b6001600160a01b03821660009081526009602052604081206109ec908361130c565b9392505050565b60006109ff8333610544565b905081811015610a5d5760405162461bcd60e51b8152602060048201526024808201527f45524332303a206275726e20616d6f756e74206578636565647320616c6c6f77604482015263616e636560e01b60648201526084016106e3565b610a6a8333848403610df5565b6108f283836110f5565b60008281526006602052604081206109ec908361130c565b60009182526005602090815260408084206001600160a01b0393909316845291905290205460ff1690565b6060600480546105bc90611c92565b3360009081526001602090815260408083206001600160a01b038616845290915281205482811015610b485760405162461bcd60e51b815260206004820152602560248201527f45524332303a2064656372656173656420616c6c6f77616e63652062656c6f77604482015264207a65726f60d81b60648201526084016106e3565b610b553385858403610df5565b5060019392505050565b6007546040516331a9108f60e11b81526004810183905233916001600160a01b031690636352211e9060240160206040518083038186803b158015610ba357600080fd5b505afa158015610bb7573d6000803e3d6000fd5b505050506040513d601f19601f82011682018060405250810190610bdb919061192c565b6001600160a01b031614610c255760405162461bcd60e51b81526020600482015260116024820152701c195c9b5a5cdcda5bdb8819195b9a5959607a1b60448201526064016106e3565b600081815260086020908152604080832080546001600160a01b03191633908117909155835260099091529020610c5c9082611318565b50600754604051632142170760e11b8152336004820152306024820152604481018390526001600160a01b03909116906342842e0e90606401600060405180830381600087803b158015610caf57600080fd5b505af1158015610cc3573d6000803e3d6000fd5b50505050610cdf33610cda678ac7230489e8000090565b611302565b604051819033907febedb8b3c678666e7f36970bc8f57abf6d8fa2e828c0da91ea5b75bf68ed101a90600090a350565b600061064c338484610f19565b60008181526006602052604081206105a790611243565b610d3e600033610a8c565b610d835760405162461bcd60e51b815260206004820152601660248201527521b0b63632b91034b9903737ba1030b71030b236b4b760511b60448201526064016106e3565b61076c600080516020611d3b833981519152825b6109018282611324565b6109bc828261134a565b60006109ec836001600160a01b0384166113d0565b60006001600160e01b03198216637965db0b60e01b14806105a757506301ffc9a760e01b6001600160e01b03198316146105a7565b6001600160a01b038316610e575760405162461bcd60e51b8152602060048201526024808201527f45524332303a20617070726f76652066726f6d20746865207a65726f206164646044820152637265737360e01b60648201526084016106e3565b6001600160a01b038216610eb85760405162461bcd60e51b815260206004820152602260248201527f45524332303a20617070726f766520746f20746865207a65726f206164647265604482015261737360f01b60648201526084016106e3565b6001600160a01b0383811660008181526001602090815260408083209487168084529482529182902085905590518481527f8c5be1e5ebec7d5bd14f71427d1e84f3dd0314c0f7b2291e5b200ac8c7c3b925910160405180910390a3505050565b6001600160a01b038316610f7d5760405162461bcd60e51b815260206004820152602560248201527f45524332303a207472616e736665722066726f6d20746865207a65726f206164604482015264647265737360d81b60648201526084016106e3565b6001600160a01b038216610fdf5760405162461bcd60e51b815260206004820152602360248201527f45524332303a207472616e7366657220746f20746865207a65726f206164647260448201526265737360e81b60648201526084016106e3565b6001600160a01b038316600090815260208190526040902054818110156110575760405162461bcd60e51b815260206004820152602660248201527f45524332303a207472616e7366657220616d6f756e7420657863656564732062604482015265616c616e636560d01b60648201526084016106e3565b6001600160a01b0380851660009081526020819052604080822085850390559185168152908120805484929061108e908490611c01565b92505081905550826001600160a01b0316846001600160a01b03167fddf252ad1be2c89b69c2b068fc378daa952ba7f163c4a11628f55a4df523b3ef846040516110da91815260200190565b60405180910390a35b50505050565b60006109ec838361141f565b6001600160a01b0382166111555760405162461bcd60e51b815260206004820152602160248201527f45524332303a206275726e2066726f6d20746865207a65726f206164647265736044820152607360f81b60648201526084016106e3565b6001600160a01b038216600090815260208190526040902054818110156111c95760405162461bcd60e51b815260206004820152602260248201527f45524332303a206275726e20616d6f756e7420657863656564732062616c616e604482015261636560f01b60648201526084016106e3565b6001600160a01b03831660009081526020819052604081208383039055600280548492906111f8908490611c38565b90915550506040518281526000906001600160a01b038516907fddf252ad1be2c89b69c2b068fc378daa952ba7f163c4a11628f55a4df523b3ef9060200160405180910390a3505050565b60006105a7825490565b6000828152600560205260409020600101546112698133611512565b6108f2838361134a565b6001600160a01b03811633146112e35760405162461bcd60e51b815260206004820152602f60248201527f416363657373436f6e74726f6c3a2063616e206f6e6c792072656e6f756e636560448201526e103937b632b9903337b91039b2b63360891b60648201526084016106e3565b6109bc8282611576565b60006109ec836001600160a01b03841661141f565b6109bc82826115dd565b60006109ec838361166a565b60006109ec83836113d0565b6000828152600560205260409020600101546113408133611512565b6108f28383611576565b6113548282610a8c565b6109bc5760008281526005602090815260408083206001600160a01b03851684529091529020805460ff1916600117905561138c3390565b6001600160a01b0316816001600160a01b0316837f2f8788117e7eff1d82e926ec794901d17c78024a50270940304540a733656f0d60405160405180910390a45050565b6000818152600183016020526040812054611417575081546001818101845560008481526020808220909301849055845484825282860190935260409020919091556105a7565b5060006105a7565b60008181526001830160205260408120548015611508576000611443600183611c38565b855490915060009061145790600190611c38565b90508181146114bc57600086600001828154811061147757611477611cf9565b906000526020600020015490508087600001848154811061149a5761149a611cf9565b6000918252602080832090910192909255918252600188019052604090208390555b85548690806114cd576114cd611ce3565b6001900381819060005260206000200160009055905585600101600086815260200190815260200160002060009055600193505050506105a7565b60009150506105a7565b61151c8282610a8c565b6109bc57611534816001600160a01b03166014611694565b61153f836020611694565b604051602001611550929190611b59565b60408051601f198184030181529082905262461bcd60e51b82526106e391600401611bce565b6115808282610a8c565b156109bc5760008281526005602090815260408083206001600160a01b0385168085529252808320805460ff1916905551339285917ff6391f5c32d9c69d2a47ea670b442974b53935d1edc7fd64eb21e047a839171b9190a45050565b7f00000000000000000000000000000000000000000000000000000000000000008161160860025490565b6116129190611c01565b11156116605760405162461bcd60e51b815260206004820152601960248201527f45524332304361707065643a206361702065786365656465640000000000000060448201526064016106e3565b6109bc8282611830565b600082600001828154811061168157611681611cf9565b9060005260206000200154905092915050565b606060006116a3836002611c19565b6116ae906002611c01565b67ffffffffffffffff8111156116c6576116c6611d0f565b6040519080825280601f01601f1916602001820160405280156116f0576020820181803683370190505b509050600360fc1b8160008151811061170b5761170b611cf9565b60200101906001600160f81b031916908160001a905350600f60fb1b8160018151811061173a5761173a611cf9565b60200101906001600160f81b031916908160001a905350600061175e846002611c19565b611769906001611c01565b90505b60018111156117e1576f181899199a1a9b1b9c1cb0b131b232b360811b85600f166010811061179d5761179d611cf9565b1a60f81b8282815181106117b3576117b3611cf9565b60200101906001600160f81b031916908160001a90535060049490941c936117da81611c7b565b905061176c565b5083156109ec5760405162461bcd60e51b815260206004820181905260248201527f537472696e67733a20686578206c656e67746820696e73756666696369656e7460448201526064016106e3565b6001600160a01b0382166118865760405162461bcd60e51b815260206004820152601f60248201527f45524332303a206d696e7420746f20746865207a65726f20616464726573730060448201526064016106e3565b80600260008282546118989190611c01565b90915550506001600160a01b038216600090815260208190526040812080548392906118c5908490611c01565b90915550506040518181526001600160a01b038316906000907fddf252ad1be2c89b69c2b068fc378daa952ba7f163c4a11628f55a4df523b3ef9060200160405180910390a35050565b60006020828403121561192157600080fd5b81356109ec81611d25565b60006020828403121561193e57600080fd5b81516109ec81611d25565b6000806040838503121561195c57600080fd5b823561196781611d25565b9150602083013561197781611d25565b809150509250929050565b60008060006060848603121561199757600080fd5b83356119a281611d25565b925060208401356119b281611d25565b929592945050506040919091013590565b600080600080608085870312156119d957600080fd5b84356119e481611d25565b935060208501356119f481611d25565b925060408501359150606085013567ffffffffffffffff80821115611a1857600080fd5b818701915087601f830112611a2c57600080fd5b813581811115611a3e57611a3e611d0f565b604051601f8201601f19908116603f01168101908382118183101715611a6657611a66611d0f565b816040528281528a6020848701011115611a7f57600080fd5b82602086016020830137600060208483010152809550505050505092959194509250565b60008060408385031215611ab657600080fd5b8235611ac181611d25565b946020939093013593505050565b600060208284031215611ae157600080fd5b5035919050565b60008060408385031215611afb57600080fd5b82359150602083013561197781611d25565b60008060408385031215611b2057600080fd5b50508035926020909101359150565b600060208284031215611b4157600080fd5b81356001600160e01b0319811681146109ec57600080fd5b7f416363657373436f6e74726f6c3a206163636f756e7420000000000000000000815260008351611b91816017850160208801611c4f565b7001034b99036b4b9b9b4b733903937b6329607d1b6017918401918201528351611bc2816028840160208801611c4f565b01602801949350505050565b6020815260008251806020840152611bed816040850160208701611c4f565b601f01601f19169190910160400192915050565b60008219821115611c1457611c14611ccd565b500190565b6000816000190483118215151615611c3357611c33611ccd565b500290565b600082821015611c4a57611c4a611ccd565b500390565b60005b83811015611c6a578181015183820152602001611c52565b838111156110e35750506000910152565b600081611c8a57611c8a611ccd565b506000190190565b600181811c90821680611ca657607f821691505b60208210811415611cc757634e487b7160e01b600052602260045260246000fd5b50919050565b634e487b7160e01b600052601160045260246000fd5b634e487b7160e01b600052603160045260246000fd5b634e487b7160e01b600052603260045260246000fd5b634e487b7160e01b600052604160045260246000fd5b6001600160a01b038116811461076c57600080fdfe9f2df0fed2c77648de5860a4cc508cd0818c85b8b8a1ab4ceeef8d981c8956a6a264697066735822122008305f1f76e65afb036d72d6304c95d43129165e889e7a7d25b4d7d7a768416564736f6c63430008070033",
  "devdoc": {
    "kind": "dev",
    "methods": {
      "allowance(address,address)": {
        "details": "See {IERC20-allowance}."
      },
      "approve(address,uint256)": {
        "details": "See {IERC20-approve}. Requirements: - `spender` cannot be the zero address."
      },
      "balanceOf(address)": {
        "details": "See {IERC20-balanceOf}."
      },
      "burn(uint256)": {
        "details": "Destroys `amount` tokens from the caller. See {ERC20-_burn}."
      },
      "burnFrom(address,uint256)": {
        "details": "Destroys `amount` tokens from `account`, deducting from the caller's allowance. See {ERC20-_burn} and {ERC20-allowance}. Requirements: - the caller must have allowance for ``accounts``'s tokens of at least `amount`."
      },
      "cap()": {
        "details": "Returns the cap on the token's total supply."
      },
      "decimals()": {
        "details": "Returns the number of decimals used to get its user representation. For example, if `decimals` equals `2`, a balance of `505` tokens should be displayed to a user as `5.05` (`505 / 10 ** 2`). Tokens usually opt for a value of 18, imitating the relationship between Ether and Wei. This is the value {ERC20} uses, unless this function is overridden; NOTE: This information is only used for _display_ purposes: it in no way affects any of the arithmetic of the contract, including {IERC20-balanceOf} and {IERC20-transfer}."
      },
      "decreaseAllowance(address,uint256)": {
        "details": "Atomically decreases the allowance granted to `spender` by the caller. This is an alternative to {approve} that can be used as a mitigation for problems described in {IERC20-approve}. Emits an {Approval} event indicating the updated allowance. Requirements: - `spender` cannot be the zero address. - `spender` must have allowance for the caller of at least `subtractedValue`."
      },
      "getRoleAdmin(bytes32)": {
        "details": "Returns the admin role that controls `role`. See {grantRole} and {revokeRole}. To change a role's admin, use {_setRoleAdmin}."
      },
      "getRoleMember(bytes32,uint256)": {
        "details": "Returns one of the accounts that have `role`. `index` must be a value between 0 and {getRoleMemberCount}, non-inclusive. Role bearers are not sorted in any particular way, and their ordering may change at any point. WARNING: When using {getRoleMember} and {getRoleMemberCount}, make sure you perform all queries on the same block. See the following https://forum.openzeppelin.com/t/iterating-over-elements-on-enumerableset-in-openzeppelin-contracts/2296[forum post] for more information."
      },
      "getRoleMemberCount(bytes32)": {
        "details": "Returns the number of accounts that have `role`. Can be used together with {getRoleMember} to enumerate all bearers of a role."
      },
      "grantRole(bytes32,address)": {
        "details": "Overload {grantRole} to track enumerable memberships"
      },
      "hasRole(bytes32,address)": {
        "details": "Returns `true` if `account` has been granted `role`."
      },
      "increaseAllowance(address,uint256)": {
        "details": "Atomically increases the allowance granted to `spender` by the caller. This is an alternative to {approve} that can be used as a mitigation for problems described in {IERC20-approve}. Emits an {Approval} event indicating the updated allowance. Requirements: - `spender` cannot be the zero address."
      },
      "name()": {
        "details": "Returns the name of the token."
      },
      "onERC721Received(address,address,uint256,bytes)": {
        "details": "See {IERC721Receiver-onERC721Received}. Always returns `IERC721Receiver.onERC721Received.selector`."
      },
      "renounceRole(bytes32,address)": {
        "details": "Overload {renounceRole} to track enumerable memberships"
      },
      "revokeRole(bytes32,address)": {
        "details": "Overload {revokeRole} to track enumerable memberships"
      },
      "supportsInterface(bytes4)": {
        "details": "See {IERC165-supportsInterface}."
      },
      "symbol()": {
        "details": "Returns the symbol of the token, usually a shorter version of the name."
      },
      "totalSupply()": {
        "details": "See {IERC20-totalSupply}."
      },
      "transfer(address,uint256)": {
        "details": "See {IERC20-transfer}. Requirements: - `recipient` cannot be the zero address. - the caller must have a balance of at least `amount`."
      },
      "transferFrom(address,address,uint256)": {
        "details": "See {IERC20-transferFrom}. Emits an {Approval} event indicating the updated allowance. This is not required by the EIP. See the note at the beginning of {ERC20}. Requirements: - `sender` and `recipient` cannot be the zero address. - `sender` must have a balance of at least `amount`. - the caller must have allowance for ``sender``'s tokens of at least `amount`."
      }
    },
    "version": 1
  },
  "userdoc": {
    "kind": "user",
    "methods": {},
    "version": 1
  },
  "storageLayout": {
    "storage": [
      {
        "astId": 371,
        "contract": "contracts/Roninstake.sol:RoninStake",
        "label": "_balances",
        "offset": 0,
        "slot": "0",
        "type": "t_mapping(t_address,t_uint256)"
      },
      {
        "astId": 377,
        "contract": "contracts/Roninstake.sol:RoninStake",
        "label": "_allowances",
        "offset": 0,
        "slot": "1",
        "type": "t_mapping(t_address,t_mapping(t_address,t_uint256))"
      },
      {
        "astId": 379,
        "contract": "contracts/Roninstake.sol:RoninStake",
        "label": "_totalSupply",
        "offset": 0,
        "slot": "2",
        "type": "t_uint256"
      },
      {
        "astId": 381,
        "contract": "contracts/Roninstake.sol:RoninStake",
        "label": "_name",
        "offset": 0,
        "slot": "3",
        "type": "t_string_storage"
      },
      {
        "astId": 383,
        "contract": "contracts/Roninstake.sol:RoninStake",
        "label": "_symbol",
        "offset": 0,
        "slot": "4",
        "type": "t_string_storage"
      },
      {
        "astId": 1355,
        "contract": "contracts/Roninstake.sol:RoninStake",
        "label": "_roles",
        "offset": 0,
        "slot": "5",
        "type": "t_mapping(t_bytes32,t_struct(RoleData)1350_storage)"
      },
      {
        "astId": 2248,
        "contract": "contracts/Roninstake.sol:RoninStake",
        "label": "_roleMembers",
        "offset": 0,
        "slot": "6",
        "type": "t_mapping(t_bytes32,t_struct(AddressSet)1947_storage)"
      },
      {
        "astId": 2900,
        "contract": "contracts/Roninstake.sol:RoninStake",
        "label": "ronin",
        "offset": 0,
        "slot": "7",
        "type": "t_contract(IERC721)123"
      },
      {
        "astId": 2904,
        "contract": "contracts/Roninstake.sol:RoninStake",
        "label": "owners",
        "offset": 0,
        "slot": "8",
        "type": "t_mapping(t_uint256,t_address)"
      },
      {
        "astId": 2909,
        "contract": "contracts/Roninstake.sol:RoninStake",
        "label": "ownerInfo",
        "offset": 0,
        "slot": "9",
        "type": "t_mapping(t_address,t_struct(UintSet)2104_storage)"
      }
    ],
    "types": {
      "t_address": {
        "encoding": "inplace",
        "label": "address",
        "numberOfBytes": "20"
      },
      "t_array(t_bytes32)dyn_storage": {
        "base": "t_bytes32",
        "encoding": "dynamic_array",
        "label": "bytes32[]",
        "numberOfBytes": "32"
      },
      "t_bool": {
        "encoding": "inplace",
        "label": "bool",
        "numberOfBytes": "1"
      },
      "t_bytes32": {
        "encoding": "inplace",
        "label": "bytes32",
        "numberOfBytes": "32"
      },
      "t_contract(IERC721)123": {
        "encoding": "inplace",
        "label": "contract IERC721",
        "numberOfBytes": "20"
      },
      "t_mapping(t_address,t_bool)": {
        "encoding": "mapping",
        "key": "t_address",
        "label": "mapping(address => bool)",
        "numberOfBytes": "32",
        "value": "t_bool"
      },
      "t_mapping(t_address,t_mapping(t_address,t_uint256))": {
        "encoding": "mapping",
        "key": "t_address",
        "label": "mapping(address => mapping(address => uint256))",
        "numberOfBytes": "32",
        "value": "t_mapping(t_address,t_uint256)"
      },
      "t_mapping(t_address,t_struct(UintSet)2104_storage)": {
        "encoding": "mapping",
        "key": "t_address",
        "label": "mapping(address => struct EnumerableSet.UintSet)",
        "numberOfBytes": "32",
        "value": "t_struct(UintSet)2104_storage"
      },
      "t_mapping(t_address,t_uint256)": {
        "encoding": "mapping",
        "key": "t_address",
        "label": "mapping(address => uint256)",
        "numberOfBytes": "32",
        "value": "t_uint256"
      },
      "t_mapping(t_bytes32,t_struct(AddressSet)1947_storage)": {
        "encoding": "mapping",
        "key": "t_bytes32",
        "label": "mapping(bytes32 => struct EnumerableSet.AddressSet)",
        "numberOfBytes": "32",
        "value": "t_struct(AddressSet)1947_storage"
      },
      "t_mapping(t_bytes32,t_struct(RoleData)1350_storage)": {
        "encoding": "mapping",
        "key": "t_bytes32",
        "label": "mapping(bytes32 => struct AccessControl.RoleData)",
        "numberOfBytes": "32",
        "value": "t_struct(RoleData)1350_storage"
      },
      "t_mapping(t_bytes32,t_uint256)": {
        "encoding": "mapping",
        "key": "t_bytes32",
        "label": "mapping(bytes32 => uint256)",
        "numberOfBytes": "32",
        "value": "t_uint256"
      },
      "t_mapping(t_uint256,t_address)": {
        "encoding": "mapping",
        "key": "t_uint256",
        "label": "mapping(uint256 => address)",
        "numberOfBytes": "32",
        "value": "t_address"
      },
      "t_string_storage": {
        "encoding": "bytes",
        "label": "string",
        "numberOfBytes": "32"
      },
      "t_struct(AddressSet)1947_storage": {
        "encoding": "inplace",
        "label": "struct EnumerableSet.AddressSet",
        "members": [
          {
            "astId": 1946,
            "contract": "contracts/Roninstake.sol:RoninStake",
            "label": "_inner",
            "offset": 0,
            "slot": "0",
            "type": "t_struct(Set)1646_storage"
          }
        ],
        "numberOfBytes": "64"
      },
      "t_struct(RoleData)1350_storage": {
        "encoding": "inplace",
        "label": "struct AccessControl.RoleData",
        "members": [
          {
            "astId": 1347,
            "contract": "contracts/Roninstake.sol:RoninStake",
            "label": "members",
            "offset": 0,
            "slot": "0",
            "type": "t_mapping(t_address,t_bool)"
          },
          {
            "astId": 1349,
            "contract": "contracts/Roninstake.sol:RoninStake",
            "label": "adminRole",
            "offset": 0,
            "slot": "1",
            "type": "t_bytes32"
          }
        ],
        "numberOfBytes": "64"
      },
      "t_struct(Set)1646_storage": {
        "encoding": "inplace",
        "label": "struct EnumerableSet.Set",
        "members": [
          {
            "astId": 1641,
            "contract": "contracts/Roninstake.sol:RoninStake",
            "label": "_values",
            "offset": 0,
            "slot": "0",
            "type": "t_array(t_bytes32)dyn_storage"
          },
          {
            "astId": 1645,
            "contract": "contracts/Roninstake.sol:RoninStake",
            "label": "_indexes",
            "offset": 0,
            "slot": "1",
            "type": "t_mapping(t_bytes32,t_uint256)"
          }
        ],
        "numberOfBytes": "64"
      },
      "t_struct(UintSet)2104_storage": {
        "encoding": "inplace",
        "label": "struct EnumerableSet.UintSet",
        "members": [
          {
            "astId": 2103,
            "contract": "contracts/Roninstake.sol:RoninStake",
            "label": "_inner",
            "offset": 0,
            "slot": "0",
            "type": "t_struct(Set)1646_storage"
          }
        ],
        "numberOfBytes": "64"
      },
      "t_uint256": {
        "encoding": "inplace",
        "label": "uint256",
        "numberOfBytes": "32"
      }
    }
  }
}